:020000040802F0
:1000000000060030050E0208D51C0B08710302081B
:10001000511C0B08491C0B084D1C0B08070E02084D
:10002000070E0208070E0208070E0208A1A5120813
:10003000070E0208070E0208070E0208070E020844
:10004000070E0208070E0208070E0208070E020834
:10005000070E0208070E0208AD271308D927130858
:1000600005281308312813085D28130851B4120815
:1000700079B41208A5B41208D1B41208FDB412085C
:1000800025B5120851B512085DB01208E1E10A0861
:100090002DE30A08B5E20A0801E40A0889281308D2
:1000A000070E0208D9291308070E0208ED291308C4
:1000B000012A1308070E0208152A130885BD120825
:1000C00039BE120821BF1208D5BF12080DCE120882
:1000D00021CE1208070E020861291308752913089A
:1000E000ED281308070E0208070E0208070E020883
:1000F000070E0208070E0208070E02087DB5120857
:10010000070E0208A5C61208292A1308070E0208BE
:1001100089291308070E0208070E0208070E0208B5
:10012000A9B51208D1B51208FDB5120829B61208F2
:1001300055B61208070E0208070E0208070E02083D
:10014000070E0208070E0208070E0208070E020833
:100150007DB61208A9B61208D5B612089D29130853
:10016000070E0208070E0208070E0208070E020813
:10017000070E0208F9231308070E0208070E0208EB
:10018000070E0208070E0208B1291308C529130833
:1001900035CE1208070E0208070E0208070E0208E5
:1001A000070E0208070E0208070E0208070E0208D3
:1001B000070E0208070E0208070E0208070E0208C3
:1001C000070E0208070E0208070E0208070E0208B3
:1001D000070E0208E5231308070E0208070E02089F
:1001E000070E0208070E0208070E0208070E020893
:1001F000070E0208070E0208070E0208070E020883
:10020000070E0208070E0208070E0208070E020872
:10021000070E0208070E0208070E0208070E020862
:10022000070E0208070E0208070E0208070E020852
:10023000070E0208070E0208070E02087DB012081A
:10024000070E020801B2120829B2120855B21208AC
:1002500081B21208ADB21208D9B2120805B3120861
:1002600031B31208070E0208070E0208070E020833
:10027000070E0208070E0208070E0208070E020802
:10028000070E0208070E0208070E0208070E0208F2
:10029000070E0208070E0208070E0208070E0208E2
:1002A0003D3302088544020869A70208E5B3020845
:1002B0007DE302084DF00208914E0308D57803084B
:1002C000E1FA030831EA04083D250708E15607086A
:1002D000495B0708D174070885E5070829EE070878
:1002E000D1F10708CD7C08081DA20808DD5A0908CD
:1002F000AD6909081DBA090865C40908ADC90A082D
:1003000079E40A0841E70A0879EC0A0855160B084F
:100310005D2D0B08292B0D08DD510D08AD570D087B
:1003200051590D0899690D08757E0D08AD7E0D08AF
:1003300049A20D080DF20D0861390E08CD480E08CE
:100340001D8C0E086DDB0E087D62100865631008B9
:1003500025681008C96A1008A9721008C999100800
:100360000939110809461108798311085D8D1108B2
:10037000EFF30383EFF30982EFF30881DFF814D082
:100380002DE9FE4F684601F017F8BDE8FE4F8D4697
:1003900070470000C42A0030F1EE101AA0EC200AC9
:1003A00001607047A0EC108A704700BF81F00041E7
:1003B00002E000BF83F0004330B54FEA41044FEA4A
:1003C000430594EA050F08BF90EA020F1FBF54EAE5
:1003D000000C55EA020C7FEA645C7FEA655C00F081
:1003E000E2804FEA5454D4EB5555B8BF6D420CDD52
:1003F0002C4480EA020281EA030382EA000083EAD5
:10040000010180EA020281EA0303362D88BF30BD74
:1004100011F0004F4FEA01314FF4801C4CEA1131CA
:1004200002D0404261EB410113F0004F4FEA033329
:100430004CEA133302D0524263EB430394EA050FB4
:1004400000F0A780A4F10104D5F1200E0DDB02FA23
:100450000EFC22FA05F2801841F1000103FA0EF2B7
:10046000801843FA05F359410EE0A5F120050EF17D
:10047000200E012A03FA0EFC28BF4CF0020C43FAAE
:1004800005F3C01851EBE37101F0004507D54FF0BB
:10049000000EDCF1000C7EEB00006EEB0101B1F50B
:1004A000801F1BD3B1F5001F0CD349085FEA300051
:1004B0004FEA3C0C04F101044FEA445212F5800F5C
:1004C00080F09A80BCF1004F08BF5FEA500C50F1F9
:1004D000000041EB045141EA050130BD5FEA4C0CDC
:1004E000404141EB0101013C28BFB1F5801FE9D239
:1004F00091F0000F04BF01460020B1FA81F308BF5C
:100500002033A3F10B03B3F120020CDA0C3208DD27
:1005100002F1140CC2F10C0201FA0CF021FA02F102
:100520000CE002F11402D8BFC2F1200C01FA02F172
:1005300020FA0CFCDCBF41EA0C019040E41AA2BF97
:1005400001EB0451294330BD6FEA04041F3C1CDA5F
:100550000C340EDC04F11404C4F1200220FA04F07F
:1005600001FA02F340EA030021FA04F345EA030129
:1005700030BDC4F10C04C4F1200220FA02F001FAEB
:1005800004F340EA0300294630BD21FA04F029466D
:1005900030BD94F0000F83F4801306BF81F4801106
:1005A0000134013D4EE77FEA645C18BF7FEA655C79
:1005B00029D094EA050F08BF90EA020F05D054EA4B
:1005C000000C04BF1946104630BD91EA030F1EBF50
:1005D0000021002030BD5FEA545C05D14000494154
:1005E00028BF41F0004130BD14F580043CBF01F547
:1005F000801130BD01F0004545F0FE4141F470012D
:100600004FF0000030BD7FEA645C1ABF1946104607
:100610007FEA655C1CBF0B46024650EA013406BF08
:1006200052EA033591EA030F41F4002130BD00BFC7
:1006300090F0000F04BF0021704730B54FF4806484
:1006400004F132044FF000054FF0000150E700BF05
:1006500090F0000F04BF0021704730B54FF4806464
:1006600004F1320410F0004548BF40424FF0000151
:100670003EE700BF42004FEAE2014FEA31014FEA94
:1006800002701FBF12F07F4393F07F4F81F06051E3
:10069000704732F07F4208BF704793F07F4F04BF2E
:1006A00041F40021704730B54FF4607401F000450B
:1006B00021F000411CE700BF50EA010208BF70476B
:1006C00030B54FF000050AE050EA010208BF70475C
:1006D00030B511F0004502D5404261EB41014FF4C5
:1006E000806404F132045FEA915C3FF4D8AE4FF0CD
:1006F00003025FEADC0C18BF03325FEADC0C18BFB0
:10070000033202EBDC02C2F1200300FA03FC20FA00
:1007100002F001FA03FE40EA0E0021FA02F114444D
:10072000BDE600BF80F0004002E000BF81F0004164
:1007300042001FBF5FEA410392EA030F7FEA226C87
:100740007FEA236C6AD04FEA1262D2EB1363C1BF17
:10075000D218414048404140B8BF5B42192B88BF86
:10076000704710F0004F40F4000020F07F4018BFA9
:10077000404211F0004F41F4000121F07F4118BFC9
:10078000494292EA030F3FD0A2F1010241FA03FC71
:1007900010EB0C00C3F1200301FA03F100F0004359
:1007A00002D5494260EB4000B0F5000F13D3B0F121
:1007B000807F06D340084FEA310102F10102FE2A90
:1007C00051D2B1F1004F40EBC25008BF20F0010000
:1007D00040EA03007047490040EB0000013A28BF9F
:1007E000B0F5000FEDD2B0FA80FCACF1080CB2EB22
:1007F0000C0200FA0CF0AABF00EBC25052421843A0
:10080000BCBFD0401843704792F0000F81F4000144
:1008100006BF80F400000132013BB5E74FEA410317
:100820007FEA226C18BF7FEA236C21D092EA030F83
:1008300004D092F0000F08BF0846704790EA010FFD
:100840001CBF0020704712F07F4F04D1400028BF2A
:1008500040F00040704712F100723CBF00F500000C
:10086000704700F0004343F0FE4040F40000704742
:100870007FEA226216BF08467FEA236301464202EE
:1008800006BF5FEA412390EA010F40F48000704701
:100890004FF0000304E000BF10F0004348BF4042A7
:1008A0005FEA000C08BF704743F0964301464FF0E3
:1008B00000001CE050EA010208BF70474FF000033F
:1008C0000AE000BF50EA010208BF704711F0004380
:1008D00002D5404261EB41015FEA010C02BF844650
:1008E0000146002043F0B64308BFA3F18053A3F5AF
:1008F0000003BCFA8CF2083AA3EBC25310DB01FAF6
:1009000002FC634400FA02FCC2F12002BCF1004F79
:1009100020FA02F243EB020008BF20F0010070470A
:1009200002F1200201FA02FCC2F1200250EA4C005E
:1009300021FA02F243EB020008BF20EADC707047A4
:100940007BB972B90029BEBF00204FF0004106E01C
:1009500008BF00281CBF6FF000414FF0FF3000F0CF
:100960004FBAADF1080C6DE904CE002909DB002B6C
:100970001ADB00F0DDF8DDF804E0DDE9022304B065
:100980007047404261EB4101002B1BDB00F0D0F8C7
:10099000DDF804E0DDE9022304B0404261EB4101EF
:1009A000524263EB43037047524263EB430300F050
:1009B000BFF8DDF804E0DDE9022304B0404261EB5A
:1009C00041017047524263EB430300F0B1F8DDF898
:1009D00004E0DDE9022304B0524263EB43037047B5
:1009E00053B94AB9002908BF00281CBF4FF0FF3196
:1009F0004FF0FF3000F004BAADF1080C6DE904CE01
:100A000000F096F8DDF804E0DDE9022304B0704759
:100A1000430803F05533C01A830803F0333300F062
:100A20003330184400EB101000F00F3000EB0020C2
:100A300000EB0040000E704780EA104080EA102072
:100A400080EA101046F6961300F00F0043FA00F00B
:100A500000F00100704700BF07EE900AF5EEC07A83
:100A6000F1EE10FA01D400F023B8F1EE677A08B580
:100A700017EE900A00F01CF8404261EB410108BDFE
:100A800008B502460B4643EC172BB5EEC07BF1EEE2
:100A900010FA03D4BDE8084000F02AB8B1EE477B55
:100AA00051EC170B00F024F8404261EB410108BD06
:100AB0009FED0B6B07EE900A9FED0B5BB7EEE77AAD
:100AC00027EE066BBCEEC66BB8EE464BA4EE457B3C
:100AD000FCEEC77B16EE101A17EE900A704700BFA7
:100AE000000000000000F03D000000000000F041A8
:100AF0009FED0B6B41EC170B9FED0B5B27EE066B2D
:100B0000BCEEC66BB8EE464BA4EE457BFCEEC77B55
:100B100016EE101A17EE900A704700BFAFF3008070
:100B2000000000000000F03D000000000000F04167
:100B30002DE9F047089D04468E46002B4DD18A4290
:100B4000944669D9B2FA82F252B101FA02F3C2F1C3
:100B5000200120FA01F10CFA02FC41EA030E944054
:100B60004FEA1C48210CBEFBF8F61FFA8CF708FB75
:100B700016E341EA034306FB07F199420AD91CEB4D
:100B8000030306F1FF3080F01F81994240F21C817F
:100B9000023E63445B1AA4B2B3FBF8F008FB1033C7
:100BA00044EA034400FB07F7A7420AD91CEB0404FC
:100BB00000F1FF3380F00A81A74240F207816444CC
:100BC000023840EA0640E41B00261DB1D440002351
:100BD000C5E900433146BDE8F0878B4209D9002DB5
:100BE00000F0EF800026C5E9000130463146BDE83F
:100BF000F087B3FA83F6002E4AD18B4202D38242A9
:100C000000F2F980841A61EB030301209E46002D57
:100C1000E0D0C5E9004EDDE702B9FFDEB2FA82F2AC
:100C2000002A40F09280A1EB0C014FEA1C471FFA0A
:100C30008CFE0126200CB1FBF7F307FB131140EAF1
:100C400001410EFB03F0884208D91CEB010103F1BE
:100C5000FF3802D2884200F2CB804346091AA4B280
:100C6000B1FBF7F007FB101144EA01440EFB00FE54
:100C7000A64508D91CEB040400F1FF3102D2A645B9
:100C800000F2BB800846A4EB0E0440EA03409CE758
:100C9000C6F12007B34022FA07FC4CEA030C20FA05
:100CA00007F401FA06F31C43F9404FEA1C4900FA25
:100CB00006F3B1FBF9F8200C1FFA8CFE09FB1811A2
:100CC00040EA014108FB0EF0884202FA06F20BD915
:100CD0001CEB010108F1FF3A80F08880884240F265
:100CE0008580A8F102086144091AA4B2B1FBF9F0A9
:100CF00009FB101144EA014100FB0EFE8E4508D9A4
:100D00001CEB010100F1FF346CD28E456AD9023828
:100D1000614440EA0840A0FB0294A1EB0E01A1420D
:100D2000C846A64656D353D05DB1B3EB080261EB7B
:100D30000E0101FA07F722FA06F3F1401F43C5E955
:100D4000007100263146BDE8F087C2F12003D8408B
:100D50000CFA02FC21FA03F3914001434FEA1C47CD
:100D60001FFA8CFEB3FBF7F007FB10360B0C43EABF
:100D7000064300FB0EF69E4204FA02F408D91CEB6F
:100D8000030300F1FF382FD29E422DD9023863446D
:100D90009B1B89B2B3FBF7F607FB163341EA03410D
:100DA00006FB0EF38B4208D91CEB010106F1FF385C
:100DB00016D28B4214D9023E6144C91A46EA004653
:100DC00038E72E46284605E70646E3E61846F8E6E5
:100DD0004B45A9D2B9EB020864EB0C0E0138A3E72E
:100DE0004646EAE7204694E74046D1E7D0467BE70F
:100DF000023B614432E7304609E76444023842E787
:100E0000704700BF02E000F000F8FEE772B63A4813
:100E100080F30888394880F3098839484EF608512C
:100E2000CEF20001086040F20000CCF200004EF665
:100E30003471CEF200010860BFF34F8FBFF36F8FA4
:100E400040F20000C0F2F0004EF68851CEF20001F0
:100E50000860BFF34F8FBFF36F8F4FF00000E1EEDC
:100E6000100A4EF63C71CEF200010860062080F3B5
:100E70001488BFF36F8F10F13DFD10F1D1FC0FF11D
:100E800095FA4FF055301F491B4A91423CBF41F83B
:100E9000040BFAE71C49194A91423CBF41F8040B84
:100EA000FAE71A491A4A1B4B9A423EBF51F8040B03
:100EB00042F8040BF8E700201749184A91423CBF5A
:100EC00041F8040BFAE710F1EDFC0FF1A7FB144C0D
:100ED000144DAC4203DA54F8041B8847F9E702F0DA
:100EE0001DFA114C114DAC4203DA54F8041B88472B
:100EF000F9E710F1D5BC00000006003000220030F8
:100F000000000208000000300006003030DF160844
:100F100000220030D0280030D028003040F50130C9
:100F2000A00202087003020870030208700302089E
:100F30002DE9F04F2DED108AC1F80CD0D0F80CD06F
:100F4000BDEC108ABDE8F08F002383F3118828469A
:100F5000A04700200FF112F8FEE70EF189FE00DF36
:100F6000FEE7000070B54FF0FF0C4CF4E06C1CEA9B
:100F700011541DBF1CEA135594EA0C0F95EA0C0F8F
:100F800000F0DEF82C4481EA030621EA4C5123EA02
:100F90004C5350EA013518BF52EA033541F4801131
:100FA00043F4801338D0A0FB02CE4FF00005E1FBE4
:100FB00002E506F00042E0FB03E54FF00006E1FB2E
:100FC00003569CF0000F18BF4EF0010EA4F1FF0471
:100FD000B6F5007F64F5407404D25FEA4E0E6D41B1
:100FE00046EB060642EAC62141EA55514FEAC520C2
:100FF00040EA5E504FEACE2EB4F1FD0C88BFBCF53E
:10100000E06F1ED8BEF1004F08BF5FEA500E50F1EE
:10101000000041EB045170BD06F0004646EA0101B4
:1010200040EA020081EA0301B4EB5C04C2BFD4EBE6
:101030000C0541EA045170BD41F480114FF0000EDF
:10104000013C00F3AB8014F1360FDEBF002001F04D
:10105000004170BDC4F10004203C35DA0C341BDCC7
:1010600004F11404C4F1200500FA05F320FA04F099
:1010700001FA05F240EA020001F0004221F00041CD
:1010800010EBD37021FA04F642EB06015EEA430E40
:1010900008BF20EAD37070BDC4F10C04C4F1200570
:1010A00000FA04F320FA05F001FA04F240EA020023
:1010B00001F0004110EBD37041F100015EEA430EF4
:1010C00008BF20EAD37070BDC4F1200500FA05F214
:1010D0004EEA020E20FA04F301FA05F243EA020393
:1010E00021FA04F001F0004121FA04F220EA0200A2
:1010F00000EBD3705EEA430E08BF20EAD37070BDE8
:1011000094F0000F0FD101F00046400041EB0101C7
:1011100011F4801F08BF013CF7D041EA060195F0A9
:10112000000F18BF704703F00046520043EB030363
:1011300013F4801F08BF013DF7D043EA0603704750
:1011400094EA0C0F0CEA135518BF95EA0C0F0CD05B
:1011500050EA410618BF52EA4306D1D181EA0301A1
:1011600001F000414FF0000070BD50EA410606BF9B
:101170001046194652EA430619D094EA0C0F02D1E0
:1011800050EA013613D195EA0C0F05D152EA033625
:101190001CBF104619460AD181EA030101F0004143
:1011A00041F0FE4141F470014FF0000070BD41F08C
:1011B000FE4141F4780170BD4FEA410212F5001280
:1011C00015D211D56FF47873B3EB625212D94FEA8E
:1011D000C12343F0004343EA505311F0004F23FA78
:1011E00002F018BF404270474FF00000704750EACD
:1011F000013005D111F0004008BF6FF0004070478A
:101200004FF00000704700BF4FEA4102B2F1E043E7
:1012100024BFB3F5001CDCF1FE5C0DD901F0004CDD
:101220004FEAC0024CEA5070B2F1004F40EB83002D
:1012300008BF20F00100704711F0804F21D113F159
:101240003872BCBF01F00040704741F480114FEA92
:101250005252C2F11802C2F1200C10FA0CF320FA1B
:1012600002F018BF40F001004FEAC1234FEAD32338
:1012700003FA0CFC40EA0C0023FA02F34FEA4303A2
:10128000CCE77FEA625307D150EA01331EBF4FF02B
:10129000FE4040F44000704701F0004040F0FE4046
:1012A00040F40000704700BF01F0FF01102A2BDB63
:1012B00010F0070F08D010F8013B013A8B422DD0F7
:1012C00010F0070F42B3F6D1F0B441EA012141EA30
:1012D000014122F007047FF000070023F0E80256E6
:1012E000083C85EA010586EA010685FA47F5A3FA76
:1012F00087F586FA47F6A5FA87F68EB9EED1F0BCE7
:1013000001F0FF0102F0070232B110F8013B013A8F
:1013100083EA010313B1F8D1002070470138704708
:10132000002D06BF35460338073815F0010F07D1E9
:10133000013015F4807F02BF013015F4C03F013049
:10134000F0BC0138704700BFEC46A0E8F05F4FF0FA
:1013500000007047B0E8F05FE546080008BF0120D4
:10136000704700BF10F8012B11F8013B012A28BF7C
:101370009A42F7D0D01A7047034613F8012B002A7F
:10138000FBD1181A01387047A8B110B504460AE01D
:1013900000F08CFA14F8041C54E903031B1AB3FB85
:1013A000F1F200F083FA204654F80C3B08220121A8
:1013B0000133EDD110BD70472DE9F04F0023A7B0E8
:1013C0000293C36A009013F0040FD0E9002118BF04
:1013D0000A46D9064FF0E021D3694CBF02F1200044
:1013E00002F168000192DB0903F004030343039355
:1013F000D1F8883D03F4A003B3F5A00F01D1012378
:10140000029393694FF004094F4D4FF001081B8878
:101410004E4C03F47F43A3F53E43B3FA83F35B09D9
:10142000049329E000F040F9FFF7AEFF4FF0E0230E
:10143000D3F8003D03F47023B3F5402F0ED0444A97
:101440004FF0FF3305A88DF81C90059214328DF8EB
:1014500028800692CDE90833FFF796FF2B68A34258
:1014600006D03C4B0422012105A8059300F01EFA8A
:1014700000F066FB00285ED103A82C6000F002FC9F
:1014800004220121344800F011FA0422012102A8AB
:1014900000F00CFA10220121019800F007FA0098E0
:1014A000202201210C3000F001FA019804220121D0
:1014B000103000F0FBF90422012103A800F0F6F936
:1014C00001980C220121143000F0F0F90C220121C6
:1014D000009800F0EBF9029BDA07A3D5009BDB6ACA
:1014E000DB0622D415A80DF1140AFEF75BFFDDF828
:1014F00004E0D4460EF120060EF1600B3068103681
:1015000056F80C1C674656F8082C0CF1100C56F8CF
:10151000043C5E450FC7F1D1DEF86030259384228C
:101520005046012100F0C2F97CE70DF1140A504643
:10153000FEF732FFF3E7049B1BB1019A9369023374
:10154000936127B0BDE8F08FD0280030ED55CEACC8
:1015500028ED00E0ACCE55EDC8A7130838B526201D
:101560006D250CF1DBFB144B144A4FF0FF34D3F81C
:1015700090100D2041F40031C3F89010D3F8901072
:1015800021F40031C3F89010D3F89010D3F8E8108C
:1015900041F40031C3F8E810D3F8101141F40031E0
:1015A000C3F810110121D3F81031054BD560146236
:1015B0001060197038BD00BF00440258004400405C
:1015C000FC2A0030002953D02DE9F84F0746894600
:1015D0000026284DDFF8A480274C17F801AB2B78A4
:1015E0004FEA1A1218F802B0002B3CD0C4F828B009
:1015F000E369580604D410F1D9F8E3695906FAD51D
:101600000AF00F0A2B7818F80AA04BB3C4F828A0E8
:10161000E3695A0604D410F1C9F8E3695B06FAD508
:101620000136B14522D03107D7D12B784FF00D0BC1
:10163000DFF84CA08BB1C4F828B0E3695A0604D493
:1016400010F1B4F8E3695B06FAD51AF801BFBBF1F3
:10165000000FC2D02B78002BEDD1FFF77FFFEAE718
:10166000FFF77CFFD2E7FFF779FFBFE7BDE8F88F10
:10167000704700BFFC2A00300044004050A8130807
:1016800098851408014B1868704700BFFCFF1F08BD
:10169000014B0248C01A704700E6160800002008F7
:1016A0000048704700E61608724943F69822724BCC
:1016B00009682DE9F04F0A441B7883B002EB030957
:1016C0000EF186F9002800F09B806C4F04466C4BAD
:1016D0000225DFF8D4810126FF1ADFF8C8A12EE029
:1016E000184601910FF1B0FC0199A8BBE069AB4627
:1016F0000BF101030BEB4B0E04F138058944DBB20F
:1017000001440AEB8E0CB94503EB43034AF82E4023
:10171000CCF804500BF102058CF808600AEB830C3E
:10172000EDB24AF823008CF80860CCF804104FD2D0
:1017300020460EF15DF90446E8B13A2D1BD8E06968
:10174000404505D0211AA369002BC9D1AB46CFE78C
:101750004C4BA3EB0801F6E705EB450C01350AEB12
:101760008C005FFA85FB0672A3694AF82C300D33B2
:101770004360E069BCE7B7EB090129D40BF1030B27
:10178000414E42482B465FFA8BF5341A8C424CDCB2
:1017900004EB090203EB4303BF1A4AF823000122BA
:1017A0000AEB8303002F1A723A465E6010DB38485A
:1017B000384BC11A914205EB450249DD01354AF823
:1017C00022301F440AEB8203EDB201225F601A72DD
:1017D0003B2D1ED94FF0FF330122CAF8C4328AF8DC
:1017E000CC22CAF8C8322C4B1B782BB12B4A2C4B7D
:1017F00012681B68CAE900232A4803B0BDE8F08FCD
:101800001E4F1F4BFF1AB7EB09012BD50225DFF83E
:1018100094A005EB45054FF0FF3201210AEB85034B
:101820004AF8252019725A60DDE703EB43030144AF
:1018300001224AF823000AEB8303154859601A7203
:101840000022144B1746C11A914205EB4502B5DC44
:101850004AF8223001350AEB82030122EDB25860CA
:101860001A72B5E7084E032508480223DFF834A0B2
:10187000341A8BE7EC2A0030C42A0030000020081C
:1018800000E616080022003040F50130D028003074
:101890000000043040F5013000220030F02A003012
:1018A000E82A003004220030000600309A4B1B78F2
:1018B0002DE9F04F824685B00E4693462BB9974BE3
:1018C0001B782BBB05B0BDE8F08F022900F0EE803D
:1018D000042900F0B580012900F0AE80904D2B78EE
:1018E0000D27DFF858828F4C7BB1A762E3695A0657
:1018F00004D40FF15BFFE3695B06FAD518F8017FAA
:10190000002FDCD02B78002BEFD1FFF727FEECE780
:10191000854B4FF00009854A9B1A0093CB45D1D0E7
:10192000834F844C38682578031D009A2B449342DA
:1019300079D2202D51D0022E24D0042E0DD0012E8C
:10194000ECD12378DFF8F0815A1C22701AF80920B4
:1019500009F1010908F80320E0E7DFF8DC81002540
:10196000434620789AF80010421CE9400835D2B26C
:1019700008F80010202A227018D0202DF1D109F18A
:101980000109CBE725789AF80030DFF8AC8108F838
:1019900005300135EDB2202D257030D06B1C09F1DA
:1019A00001092370002308F80530B7E738685F495C
:1019B0000192084419460FF115F939684FF00003F8
:1019C000019A203123705C4B39600021184615F1D3
:1019D000C9FA0FF1EBFE584BCFE7544B2A46564954
:1019E00018440FF1FFF83B6800212A462033524883
:1019F00021703B6015F1B6FA0FF1D8FE9BE74B4B17
:101A00002A463868414618440FF1ECF83B6800213B
:101A10002A462033404621703B6015F1A3FA0FF1AE
:101A2000C5FE2578BAE7444A4FF0FF312023D16143
:101A3000237005B0BDE8F08F1146FFF7C3FD4DE7F9
:101A4000002A3FF44BAF02460027354D0DF10C083C
:101A500052F8043B334C0092039301910137042167
:101A60004046FFF7AFFDBB451ED0009ABE0752F8B7
:101A7000043B00920393F1D12A780D26DFF8BC9045
:101A80007AB1A662E369580604D40FF18FFEE369C8
:101A90005906FAD519F8016F002EDFD02A78002AEE
:101AA000EFD1FFF75BFDECE7019E18E7002A3FF45A
:101AB00015AF024600271A4D0DF10C0832F8023B13
:101AC000184C0092ADF80C300191013702214046CC
:101AD000FFF778FDBB45E7D0009A790732F8023B63
:101AE0000092ADF80C30F0D12A780D26DFF84C903A
:101AF0007AB1A662E3695A0604D40FF157FEE3698E
:101B00005B06FAD519F8016F002EDED02A78002A7C
:101B1000EFD1FFF723FDECE7C52A003000220030AB
:101B2000FC2A0030004400400000200800E61608AF
:101B3000EC2A0030C42A0030C82A003098851408E6
:101B4000F8B5324B1A782AB9314A1078F0B9012227
:101B50001A70F8BD2F4E0D252F4F304C3B7893B1A6
:101B6000A562E3695A0604D40FF120FEE3695B061F
:101B7000FAD516F8015F002DF0D1294B58680038CE
:101B800018BF0120F8BDFFF7E9FCE9E7254D264E17
:101B90002B68264C26481A1D3178241A0A44A24282
:101BA00006D239BB9C421CD800200FF1C5F8E4E7EF
:101BB000204A4FF0FF31D161202232701844202298
:101BC0001C490FF10FF82A68337800211948134493
:101BD000202231702B6015F1C5F90FF1E7FD2B685C
:101BE000E0E7144920221448CB610EF1FBFF0FF10E
:101BF000DDFDD9E703F120029442DFD81F29DDD8AB
:101C00000C4AD36120223270D8E700BFC52A0030C9
:101C100000220030CCA71308FC2A0030004400400A
:101C2000F42A0030EC2A0030C42A003000002008DA
:101C300000E61608C82A0030E0FF1F080E4B1B788C
:101C400010B5B3B1642100200C4A0D4CD3699B063A
:101C5000FCD5536ADBB28B424FF0640101D0002007
:101C6000F4E70130C0B20E2801D0015DEEE700209C
:101C700010BDFFF773FCE5E7FC2A0030004400408C
:101C8000DCA713082DE9F04102680646EFF3058151
:101C9000D9205369C9B28FF0DDFF674B1B782BB990
:101CA000664C2378002B37D1BDE8F081644B0D27BB
:101CB000DFF8B081634D644C96E8030083E80300CD
:101CC0002B7833B3A762E3695F0604D40FF16EFD8E
:101CD000E3695806FAD518F8017F002FF0D1736830
:101CE0000BB32B784227DFF88081574C73B1A76282
:101CF000E369590604D40FF159FDE3695A06FAD590
:101D000018F8017F1FB32B78002BF0D1FFF726FCCA
:101D1000EDE7FFF723FCD5E73568002D47D1002319
:101D20002370BDE8F081DFF844814327464C2B78CF
:101D3000002B6AD0A762E3695B0604D40FF136FD7D
:101D4000E3695F06FAD518F8017F002FEFD1DFF8BD
:101D5000208120273C4C2B78002B53D0A762E369CD
:101D6000580604D40FF122FDE3695906FAD518F894
:101D7000017F002FEFD1FFF761FF2B78DFF8F480B0
:101D80000D27314C83B1A762E3695A0604D40FF1E1
:101D90000DFDE3695B06FAD518F8017F002F3FF4CB
:101DA0007FAF2B78002BEED1FFF7D8FBEBE728466F
:101DB0000FF14AF90028B2D028460FF16DF900F270
:101DC0001450854231D3214BA5F214521A60284693
:101DD0000FF178F905F5E053834220D81C4A1360CF
:101DE00000231C481C4A03601C481D49801A0B70C4
:101DF00002D10DE083420BD252F8041B04330131AF
:101E0000F8D08CE7FFF7AAFBA8E7FFF7A7FB91E75D
:101E10000FF1CCFC0120BDE8F0410EF18DBF28464A
:101E20000FF150F90A4B1860DAE728460FF134F940
:101E3000064B1860CBE700BFC52A003000220030F7
:101E4000F42A0030FC2A003000440040F02A003020
:101E5000E82A0030EC2A003000E6160800002008CE
:101E6000C42A0030ECA71308F4A7130848A81308E5
:101E700000A81308988514080020704700207047B8
:101E8000704700BF704700BF704700BF704700BF7A
:101E900000207047002070470020704701207047E5
:101EA000704700BF00207047002070470020704737
:101EB00000207047002070470020704700207047C6
:101EC000704700BF0020704700207047044B03F6A6
:101ED0003442D3F82C0C904214BF042002207047E7
:101EE000086B003000207047014B93F8780870476A
:101EF000085B0030704700BF08B55DF06DFD30B97C
:101F0000034A92F8183D43F0040382F8183D08BDD7
:101F1000086B003038B5F7EE000A91ED000A0D4667
:101F200025F018FA90B9D5ED007A9FED0B7AF0EE16
:101F3000E77AF4EEC77AF1EE10FA01D4032038BD47
:101F40000446064802F0E8F8204638BD034802F08F
:101F5000CFF8002038BD00BF00000034082B00304F
:101F6000014802F09BB800BF082B003008B515F0FF
:101F7000ABFC0146B022054891F8E03202FB0311A8
:101F8000BDE80840CC3102F089B800BF082B003012
:101F900010B504460DF06AF8204610BD30B50C4669
:101FA00083B01B4A062105465FF0EAF8A38BB72BE6
:101FB00009D0B3F5967F23D02146284603B0BDE86B
:101FC000304065F0C7BB1E221249134802F0B8F832
:101FD000D4ED017A94ED007AFCEEE77A0D48BCEE80
:101FE000C77A17EE903A8DED017A9AB29DF80410F7
:101FF00001F024FD002814BF0020042003B030BDF0
:1020000002220649044802F09BF8002003B030BDCC
:1020100064A8130864770030082B0030387700304C
:10202000244B9FED256A03F60C52A3F5805110B5A1
:10203000D2ED006A03F6FC4203F6F8448AB092ED52
:10204000007AD4ED007A91F99A4803F55161B4EE23
:10205000C67A03F55063002CD1ED005AFDEEE77A05
:10206000007C46FEA56AF1EE10FA1B6817EE902A76
:1020700011B21CD5BCEEC77A17EE102A1FFA82FCEB
:1020800000220493B7241A2303920692079203AA0C
:10209000ADF82010ADF822103E21CDED056AADF867
:1020A00024C0CDE900345CF0ADF80AB010BD4FF6A5
:1020B000FF7CE5E7086B003000FF7F4730B5164C2A
:1020C0008BB094F81E2D12B3057C8FF03BFED4F834
:1020D000241C1C2300220390A4F5005C68200093BC
:1020E00001902846BCF814C4D4F8285C049121213E
:1020F000D4F8204CADF82420ADF826C00595069400
:10210000CDE9072203AA5CF07DF80BB030BD0BB01F
:10211000BDE830405DF0BEBE086B003070B5174DB5
:10212000D5F82C0C03681B68984704281ADC012892
:1021300022DC002814BF01244124114B114A1E68DF
:10214000706D03681B6A934211D10F4BD5F82C2C8C
:102150009A4205D0736D93F89C300BB144F0800423
:10216000204670BD0A2814BF01241924E5E79847CA
:102170000128EAD1204670BD1924DEE7086B003043
:10218000002B0030791E02083C77003070B5444CBB
:102190008CB00546B4F8BC38DA0703D49B073FD4AB
:1021A0000CB070BD04F6581104F66C1204F51663F9
:1021B00009681B6804911168022206936223059145
:1021C000212101931923009104F66411007C096810
:1021D0008DF8242003AA079104F668110968089174
:1021E00004F674110968CDF8251004F51761096823
:1021F000CDF8291004F6541109680391C2215CF04E
:1022000001F8287C5BF082FF0646287C5CF0BEFF6C
:1022100000F121039E423DD3B4F8BC389B07BFD5E3
:1022200004F60C2104F5226204F6142309681B68E5
:1022300004911168032206936223059121210193E1
:102240001923009104F61821287C09688DF82420B0
:1022500003AA079104F61C210968089104F62821B5
:102260000968CDF8251004F6242104F6082409682D
:10227000CDF8291021680391C2215BF0C3FF287CAF
:102280005BF044FF0446287C5CF080FF00F12103F2
:102290009C4285D2287C0CB0BDE870405BF0CAB887
:1022A000085B003005207047024BD3F82C0C036804
:1022B0001B681847086B003030B50C4627228BB0DE
:1022C0000021E5786846954228BF154614F14AFE7C
:1022D00004F10C0168462A4614F1FAFD1D4B03F681
:1022E0003C42D3F82C1C914201D00BB030BDDDED47
:1022F000057A9FED197AF0EEE77AF4EEC77AF1EEFF
:1023000010FAF2D59DF8262002F041014129ECD1C6
:102310001106EAD402F018011829E6D082F004026E
:10232000079D029CC2F380020398049983F8502C05
:1023300003F65442156003F54462019D156003F6EF
:102340004442146003F6484203F64C43106019609F
:10235000CBE700BF086B0030000000342DE9F041EE
:102360008A7A94B04B7A0C46054643EA0223CA7A2D
:1023700043EA0243272B0CD81C2B14D91D3B0A2BF4
:1023800011D8DFE803F0171010102B1010101042B6
:102390005C00452B00F08880522B04D114B0BDE8BE
:1023A000F041FFF789BF2146284614B0BDE8F0414F
:1023B00063F04AB9CA7800230C310AA8102A28BF52
:1023C0001022CDE90A33CDE90C3314F181FD0AA9BD
:1023D000694802F039FA14B0BDE8F081CA780023E8
:1023E0000C310AA81C2A109328BF1C22CDE90A33FD
:1023F000CDE90C33CDE90E3314F16AFD0AA95E482C
:1024000002F0BCF914B0BDE8F081CA7800230C31A9
:102410000AA8072A0A93CDF82B3028BF072214F107
:1024200057FDBDF92830002BD5D101231A212846AC
:1024300085F8E73114B0BDE8F0415FF085BCCE7897
:10244000262200210AA8964202AF28BF164614F1A0
:1024500089FD04F10C010AA8324614F139FD384611
:102460000CF086F89DF84A30022B61D0032B2FD058
:10247000002B5DD0022306AE8DF81A309922237A04
:102480000021019204278DF819303246E379287C27
:102490008DF8183003238DF81B102F2100975BF067
:1024A000B1FE14B0BDE8F081CA7800230C310AA84F
:1024B0000B2A28BF0B22CDE90A33CDF82F3014F1B7
:1024C00007FD0AA92C4802F011FA14B0BDE8F0810A
:1024D0009FED2A6A06AEDDED106A01239DED0F7AAD
:1024E000DDED0E7ADFED265A27EE067A67EE867A64
:1024F00066EEA56AFDEEE66A0093BDEEC77A304649
:10250000FDEEE77A16EE903A17EE102A17EE901AC3
:102510000CF046F896E80F0087E80F0095F8E731D1
:10252000CBB1BDF84480B8F1000F16D00023A3E76B
:102530009FED126A06AEDDED106A00239DED0F7A65
:10254000DDED0E7ADFED0E5A27EE067A67EE867A1B
:1025500066EEA56ACEE701238EE73946064801F00C
:102560009DFD0028F7D0074A062128465EF008FEA8
:10257000434685F8E7817FE7082B00308096184BAB
:102580000000C84278A8130830B51A4D85B095F8F8
:102590001D3D0BB105B030BDCA780C4601A80C3109
:1025A000092A8DF80C3028BF0922CDE9013314F136
:1025B0008FFC9DF808305A1F012AEBD903F0F7036E
:1025C000122BE7D0A5F58053B3F97A2812B9E27936
:1025D000A3F87A28227AE179074800F0BBF8227A3A
:1025E000E179054800F0FEF8012385F81D3D05B0AE
:1025F00030BD00BF086B0030D46F0030274B70B582
:10260000B3F97A3888B005460E4614461BB192F8E5
:1026100007C063450ED1A27A637A43EA0223E27AC5
:1026200043EA02431D2B0AD0212B20D0D3B12246EE
:102630003146284608B0BDE8704063F055BBE278EB
:10264000002304F10C0101A8102A28BF1022CDE9B3
:102650000133CDE9033314F13BFC01A9104802F02A
:10266000F3F8E4E721462846FFF78EFFDFE7E2783C
:10267000002304F10C0101A81C2A079328BF1C2287
:10268000CDE90133CDE90333CDE9053314F120FC65
:1026900001A9034802F072F8C9E700BF085B0030E7
:1026A000082B003000207047C82070470120704779
:1026B000002070470020704701207047014B93F8BD
:1026C00076087047085B0030D0E90512C36941F411
:1026D000E05142F4E05243F4E053C0E90512C36113
:1026E000704700BF70B54FF4F4700D4616460CF0FD
:1026F000B7FC044628B1324629465DF0B9FE024BCC
:102700002360204670BD00BF50AA130808B590F89A
:1027100084308B4203D3223150F8210008BD55F09C
:10272000D7F817224FF4802155F080F8002008BD1B
:1027300008B590F884308B4203D3223150F8210041
:1027400008BD55F0C5F810224FF4802155F06EF801
:10275000002008BD90F88430002B3FD02DE9F04FC9
:10276000002685B007468846914634464FF4837A62
:1027700016E01B4C01368DF80A8094F99B48CDF881
:1027800004E0CDF800C0ADF80840F4B28DF80B902D
:10279000ADF80CA05BF036FD97F88430A3421AD94F
:1027A00020465BF0B3FC834620465CF0EFFC051D41
:1027B0004FF0060C4FF0940EAB4502AA63464FF063
:1027C00042012046D5D201365AF034FE97F88430C3
:1027D000F4B2A342E4D805B0BDE8F08F704700BF63
:1027E000085B003090F88430002B3FD02DE9F04F8B
:1027F000002685B0074688469146344640F2011AC5
:1028000016E01B4C01368DF80A8094F99B48CDF8F0
:1028100004E0CDF800C0ADF80840F4B28DF80B909C
:10282000ADF80CA05BF0EEFC97F88430A3421AD907
:1028300020465BF06BFC834620465CF0A7FC051D40
:102840004FF0060C4FF0940EAB4502AA63464FF0D2
:1028500042012046D5D201365AF0ECFD97F884307B
:10286000F4B2A342E4D805B0BDE8F08F704700BFD2
:10287000085B0030704700BF10B5002284B044F6FA
:10288000F8439FED117A01920446039200F59A42B3
:102890000344D2ED007A93ED000A67EE877A20EECA
:1028A000070ACDED027A24F09DFE42F2A00001A9B4
:1028B0008DED030A204402F083F904F00FFA04F0CE
:1028C000D1F904B010BD00BF0000C84270B50023AC
:1028D00086B010EE105A10EE904A0193064604930B
:1028E000CDF81330CDE90233A3238DF804309523BE
:1028F0008DF805308FF02EFA0A46CDF8070043F622
:10290000342001A9CDF80B2013223044CDF80F500C
:10291000CDF8134055F060FF06B070BD2DE9F041D1
:102920008AB00446884617460021232201A8109D3C
:102930001E4614F117FBA3238DF8043095238DF860
:10294000053001238DF806308FF004FACDF807002A
:10295000232268682B68CDF81F0043F63420CDF899
:102960000B1001A9CDF81B302044AB68CDF80F80C7
:10297000CDF81370CDF81760CDF8233055F02CFF4B
:102980000AB0BDE8F08100BF00F5804310B50446F1
:10299000D3F82C0C03681B689847014643F6342093
:1029A0001A22C9B2204456F0D7F804F54270BDE8A7
:1029B000104013F0A7BD00BF034643F63420A12208
:1029C0000149184456F0EEBB20D5130870B543F604
:1029D00074050446054404F54054284650F022FE90
:1029E00018B1B4F97438012B4AD0274B27491E6817
:1029F000306C03681B68984767F056FC4FF020FE68
:102A0000B4F974389FED227A0122013B2846A4F8DC
:102A1000742807EE903AF8EEE77AF0EEE77AF4EEF3
:102A2000C77AF1EE10FA4CBF1146002150F04EFD6E
:102A3000306C184903681B6898472846B7EE000AAF
:102A4000154952F0B3FA284650F048FF10B9012357
:102A5000A4F874388FF06AF9044652F07DFB356CA7
:102A60002B681E688FF062F902460C492846121B3B
:102A7000B047B1EE0C0A0A48BDE8704052F0ECBB1A
:102A8000014B1E68D9E700BF002B003098E3130804
:102A900000000034BCE31308987E0030C4E3130840
:102AA000DCE3130800207047002070470069C0F382
:102AB000401070470F2904D82C2303FB01008830F5
:102AC00070470020704700BF01207047704700BF6B
:102AD000002070470020704700207047002070479A
:102AE000002070470020704700207047002070478A
:102AF000704700BF002070470020704700207047DB
:102B00000020704700207047002070470020704769
:102B10000020704700207047704700BF00207047BA
:102B20000020704700207047002070470020704749
:102B3000002070470020704700207047704700BF9A
:102B40001020704700207047704700BF0320704777
:102B500001207047704700BF012070470020704778
:102B6000704700BF00F5804008B5D0F82C0C036812
:102B70001B689847C0B208BD10B4054C11200C600A
:102B80004FF0FF3110705DF8044B1960704700BFC3
:102B9000B8F013080020704700207047704700BF4E
:102BA0004BF000BE21F0DEBF55F096BF07F0A2B992
:102BB00062F004B963F0F6B906F03EBE08F0A8BAB8
:102BC00000F06EBF00F068BF00F086BF01F062BD8C
:102BD00000F052BF00F058BF00F0C4BFF8B53F4945
:102BE00000F580433E4A05460160D3F87006C3F8FD
:102BF000CC2408B10CF044FA3A4B43F220702B601D
:102C000028440BF0F9FB05F5405393F8F02142B945
:102C1000D3F8EC412CB1204620F064F920460CF0AA
:102C200025FA41F6BC7041F64C3441F6343628445E
:102C30002C442E4486F0BEFB14F8043C083C3BB9FF
:102C40002768384627B120F04DF938460CF00EFAC7
:102C5000B442F1D141F6300005F6DC7405F6947704
:102C6000284467F037FD204BC5F8403B14F8043C7E
:102C7000083C3BB92668304626B120F033F930468F
:102C80000CF0F4F9BC42F1D105F6AC4059F0C2F8B1
:102C900005F5496059F0BEF805F6744059F0BAF8E8
:102CA00005F6D83059F0B6F805F6BC3059F0B2F850
:102CB00005F53A6059F0AEF80C4A95F8D431C5F8EC
:102CC000EC2043B9D5F8D0412CB1204620F00AF9C8
:102CD00020460CF0CBF92846F8BD00BF14F21308CB
:102CE00038D3140828B11408085614083C071408EF
:102CF000084B10B544F2E0641B6804445B6D204649
:102D000093F89C107BF018FD2046BDE810407BF046
:102D10004DBC00BF002B0030574B70B5044640F847
:102D2000043B68F0C1FA002504F11000534E08F08E
:102D30007FFE04F1A0000AF0BFFD04F5187052F008
:102D40003DFF04F5427012F0DFFC04F5D26006F09E
:102D500067F904F5FF600FF001F904F5346021F024
:102D600053FC41F2B040204468F0FAF904F5AC504D
:102D700052F000FD41F63000204467F093FC41F62C
:102D80006C00204408F0D0FF41F6281020447BF06E
:102D9000FFFD41F6BC70204486F0F8FA41F6D87089
:102DA000204453F047FA42F22C00204469F0B8FE68
:102DB00004F5005242F23C0342F24C0082F83C50CF
:102DC00023442F4A204413604BF004FB42F2A0003E
:102DD0002946204402F062F842F2A07020447AF0C2
:102DE00007FA42F2AC7020446EF07AF842F2D870E2
:102DF00020447AF087FF42F6E470204481F05CFCC6
:102E000043F2FC00204481F031F843F220102044CA
:102E100083F0C4FE43F29810204485F0D5FA43F2C3
:102E2000FC10204486F03AF843F24420204478F025
:102E3000A5FB43F2D020204401F01EFE43F22C40BB
:102E4000204487F041FE04F55E5071F099FE04F5D0
:102E5000405343F6500083F83858204487F00AFD69
:102E6000336833B92046074950F060FD204634608E
:102E700070BD05488EF032FF28B11408107F003075
:102E8000348E0030F4AF1408C8ED130870B500F5A7
:102E900040551C4B044684B0B5F876281A7066F08D
:102EA00049FC204601F058FD04F5005393F8DC344A
:102EB000DB0711D5144E33685A6D92F89C4014B15B
:102EC00095F83A28C2B185F83A485A6D0F4B92F8F6
:102ED0009C205A7104B070BD68460BF049FB42F269
:102EE000A0006946204402F087FC0028E2D0694631
:102EF000204601F0D3F8DDE78EF024FF3368C5F8F3
:102F00003C08E0E740250030002B0030187E003000
:102F1000FFF7BCBF10B50821044601F0A7FA78B945
:102F20000121204601F0A2FAA0B90421204601F0B7
:102F30009DFAC0B91021204601F098FAF0B910BDF1
:102F400023F058FE20F0CCFF0121204601F08EFA3C
:102F50000028EAD02046FFF78FFC0421204601F02C
:102F600085FA0028E6D043F63420204454F034FE9D
:102F70001021204601F07AFA0028E0D043F63420F0
:102F80002044BDE8104054F0C3BE00BFFFF7C2BFED
:102F9000034610290AD8DFE801F00F13171B1F0999
:102FA000090909092309090909090B0000207047CB
:102FB00044F634401844704744F63840184470478B
:102FC00044F660401844704744F65840184470472F
:102FD00044F65C401844704744F63C40184470473F
:102FE00044F63040184470472DE9F041054643F659
:102FF000740484B043F68466FFF78EFE2C44DFED44
:10300000A63AF7EE004AA54B04F15400B0EE633A3D
:103010009FEDA34AF0EE632A2B60F0EE630A9FED6A
:10302000A12ADFEDA11A05F540579FEDA01A2E4405
:103030009FED9F0A78F08EF8DFED973AF7EE004AA1
:103040009FED974AB0EE633A9FED962AF0EE632A21
:10305000DFED951AF0EE630A9FED941A9FED940A46
:1030600004F5847078F076F8002343F6C40143F643
:103070003420C7F8303A43F6C4342944284455F084
:1030800059FA43F63C302C44284464F0E7FE894B5F
:10309000C7F83C3B884F204665F0E0F844F82C7BAD
:1030A000A642F8D1304644F2EC4466F09BFE44F26E
:1030B000A84005F5804644F2505728442C4459F066
:1030C00017F944F2B8402F44284459F011F900236D
:1030D000A6F8C834794BC6F8CC34204614345FF0D7
:1030E00029FDA742F9D11E22002340F2CC60C6F888
:1030F0007426A6F878360BF0BDFF034644F27C60D8
:10310000C6F8703628448BF063FA44F2C060284455
:103110008BF05EFA6A4B1A68002A00F0B480694BA3
:1031200044F2E06000240027C6F8CC3428447BF049
:103130000BFA654B44F238704021039304AB0295BF
:103140002844009444F6BC4813E90C0007F032FC14
:1031500044F61C40A84428440BF00AFA44F63442D2
:103160004FF07E5106F544632A445848C6F82C2C8B
:10317000574AC6F8300C44F66440C6F8342C554A19
:103180002844C6F8382C544AC6F83C2C1960DF6035
:103190009F605F60514BC6F8583C514BC6F85C3C91
:1031A000504BC6F8603C8EF047FE08F104000BF06F
:1031B000DFF908F114000BF0DBF906F6E8434A49A1
:1031C00044F61C501F605F6028449F60474B1960A5
:1031D0000B7843B1234601339BB203EB430211F852
:1031E0003220002AF7D1424A1380424A1380424BD0
:1031F0001A68002A4CD186F81D2D0122186044F669
:10320000205086F81E2D44F67C5428444FF6FF7754
:1032100087F05CFD394A3A4B44F6B850C6F8202D89
:103220002C44384A2844C6F8943D374BC6F89C2DA8
:10323000C6F8A43DC6F8905DC6F8985DC6F8A05DD6
:103240000BF096F944F6D45028440BF091F944F66B
:10325000F05028440BF08CF92C4B04F19000A6F8A8
:10326000087EC6F8043E0BF083F9294B2046294915
:103270001C6050F05BFB2846A6F8B07DA6F8CC7D1C
:1032800004B0BDE8F08144F2CC422A441A6046E71B
:1032900021488EF023FD00BF0000000014F2130847
:1032A000CDCCCC3D00007A450AD7A33CCDCC4C3DDB
:1032B000CDCC4C3EB0ED130800EE130838D3140803
:1032C0009888003040AB1308D92B0208B8F21308D5
:1032D00054EE130800F31308ECF2130814F3130868
:1032E00068EE13087CEE130870E61308D47E0030F5
:1032F000D07E0030A07E0030747E003014EE1308C3
:10330000952B0208992B02089D2B02080000FFFF55
:10331000DC7D0030E8641408DCED130838B5054C9A
:103320000A46054B01462468256820462C68A047BC
:10333000002038BD002B0030082B003010B5084CA1
:103340008BF01EFC074B024620461A60FFF74CFE2E
:103350002046054A0549BDE810400FF1E9BE00BF0F
:10336000082B0030002B00309C2C0130DD2B020894
:1033700010B52DED068B0C46F0EE40AAB0EE60AA1B
:1033800003F0ACFCD0EDDC9AD0F87403F8EEE99AC7
:103390003AEEE97ABDEEC79A24F0D4F807EE900A27
:1033A000F8EEE78A3AEE688AB0EE480A24F0E2F8CE
:1033B000FDEEC07A5CB117EE903ADFED247A002B77
:1033C000CCBF38EE678A38EE278AFDEEC87AB8EEB1
:1033D000E78A03F083FCDFED1E6AB8EEC97AD0ED10
:1033E000EC5A90EDEF6A2AEEA60AD0EDED7A69EE7E
:1033F000A69A2AEE26AA174B68EEA68A66EE276AD8
:10340000A3F2AC6065EEA77A03F6045180ED000AE2
:1034100003F6085266EE886AA3F5D56467EE887AEB
:10342000A3F5BF60A3F2F453C4ED009AE7EE256A5A
:1034300080ED00AAE6EE477AC3ED008AC1ED006A8E
:10344000C2ED007ABDEC068B10BD00BF00A00C479A
:103450000AD7233C086B003038B52DED028B0D46A2
:10346000F0EE608AB0EE408A144603F037FCD0EDEF
:10347000EF7AD0EDED6A90EDEC7A67EEA67A67EE22
:10348000A87AE7EE087AC5ED007AD0EDEC0AD0ED27
:10349000ED7A90EDEF7A67EEA07A67EEA80AE7EE94
:1034A000480AC4ED000ABDEC028B38BD70B56A4C09
:1034B0006A482DED068BB4F9B438B6EE00AADFEDFC
:1034C000689A5B4208EE103A58F0BEFFB4F9B4288F
:1034D0000346B8EEC88A614807EE902AD3ED008A09
:1034E000F8EEE77A28EE298AD8EE0A8A27EEA98A2A
:1034F00058F0AAFF03465B48B4F9B86893ED009A08
:1035000058F0A2FF0346574898EE0A9AB4F9BA5801
:1035100093ED00AA58F098FF90ED008A03F0DEFBCF
:10352000D0EDED7A9FED507AF0EEE76AF4EEC76ADF
:10353000F1EE10FA11D490EDEC6A07EE106AD0EDBE
:10354000EF5AC6EE276A85EEA76AB8EEC77A97EEFD
:1035500029AA66EEA88AEAEE068A03F0BFFBD0ED40
:10356000ED7A9FED417AF0EEE76AF4EEC76AF1EE8C
:1035700010FA13D490EDEC6A07EE105A90EDEF5A62
:10358000C6EE276ADFED365A85EE276AB8EEC77AAF
:1035900097EE258A26EE899AA8EE069A03F09EFBFE
:1035A000D0F8740323F0CEFF04F6AC042F4B08EEE2
:1035B000100A94ED007AD3ED007A9FED290A77EE98
:1035C000877A27EE800A23F0D5FFB8EEC88A30EE5E
:1035D000480A23F0CFFFB5EEC00AF1EE10FA32DB55
:1035E000DFED237AB0EE407A70EE677AF4EEE87A97
:1035F000F1EE10FA04D5B4EEC97AF1EE10FA03DC5C
:103600000020BDEC068B70BDB5EEC00AF1EE10FADD
:1036100008DD78EEE76A37EE496AF4EEC66AF1EE45
:1036200010FA17D4B5EEC00AF1EE10FAE8D578EE2C
:10363000E78A37EE497AF4EEC78AF1EE10FACCBF8A
:1036400001200020DDE79FED0A7AF0EE407A30EEAF
:10365000077ACBE70120D4E7085B0030B06F003079
:103660000000C842C06F0030000000340078003015
:1036700000A00C4770B53C4C054604F6F842A4F295
:103680005473A4F580562DED028BD3ED007A92EDA4
:10369000000ADFED368A30EE270A20EE280A23F0F2
:1036A00069FFB6F9BA3804F55062B0EE408A01EE0F
:1036B000103AB6F9B83892ED000A0C2000EE903AB4
:1036C000A4F5EA63B8EEC11AD3ED007AF8EEE00A89
:1036D00030EE270A23F0EEFF60EE288A2846FFF737
:1036E000E5FEF0EE480AB0EE680A01462846FFF70C
:1036F0003FFE03F0F3FAD0EDED7A90EDEC6AD0EDF9
:10370000EF6A26EE277AB6F9B63826EEA70A002B1E
:1037100067EE087A20EE080AE6EEE87AA8EE860A56
:10372000B0EE678A0CDD07EE903A04F6FC42F8EE44
:10373000E77A92ED007AB4EEE77AF1EE10FA0BDB5D
:103740000B4800F04DFBB0EE480A0948BDEC028B77
:10375000BDE8704000F032BC94F8BC3C002BEFD0C8
:10376000BDEC028B70BD00BF086B00300000C8428A
:10377000082B003070B5524C054694F8183D13F0F4
:1037800001012DD1A4F580529FED4E7AD806B2F9F1
:10379000882800EE102A04F6F842B8EEC00AD2EDEE
:1037A000007A20EE070A6BD437EE800A82ED000A19
:1037B000DFED457AB4EEE70AF1EE10FA05DD94F894
:1037C000183D43F0100384F8183D2C209FED3E1A5D
:1037D000DFED3E0A23F06EFF04F6F84383ED000AA6
:1037E00094F8183D9E07C3F340012AD4384ADFED10
:1037F000357AB2F98A0802F5E85600EE100A180781
:10380000B8EEC00A20EE270AD6ED007A1ED5B2F92E
:10381000B80837EEC00A00EE900A86ED000AF8EE0E
:10382000E00AB4EEE00AF1EE10FA37D4B2F9BA3891
:1038300001EE103AB8EEC11A3C2023F03BFF86EDB2
:10384000000A2846BDE87040FFF714BFB2F9BA1865
:1038500030EE270A01EE101A86ED000AB8EEC11A02
:10386000B4EEC10AF1EE10FA23DDB2F9B82843F044
:10387000080300EE902A84F8183DF8EEE00ADBE732
:1038800037EEC00AB5EEC00A82ED000AF1EE10FA7A
:103890009BD561F3041384F8183D89E7B2F9BA287F
:1038A00061F3C30301EE102A84F8183DB8EEC11A83
:1038B000C2E7B2F9B83800EE903AF8EEE00ABBE79A
:1038C000086B00300AD7A33C0000B443000000009E
:1038D000085B00300A20704701207047094B024600
:1038E00093F8BC1C61B993F81D1D31B9A3F5805341
:1038F00093F8C038DB0700D470471046FFF73ABF93
:10390000FFF7B8BE086B00300420704701207047F5
:1039100030B504468BB08EF015FA054607AB06AA03
:1039200005A9201D27F054F9244A41F28831136873
:10393000EB1A8B4228D89FED227A2046DDED070A4C
:103940000021DDED067A60EE870A9FED1E0A67EE24
:10395000877A60EE800A27EE800AFFF709FD09AA40
:1039600008A9DDED070A9DED060A2046FFF774FD64
:103970009DED080A144800F033FA9DED090A12483B
:1039800000F01CFB0BB030BD156062F02FFCDFEDCA
:103990000C7A06219DED066A9DED077A26EE276AD0
:1039A0000A4A27EE277AB7EEC66AB7EEC77A8DEDD8
:1039B000026B8DED007B59F021FABCE7C07A003034
:1039C000E02E65420000C842082B0030C4F2130804
:1039D000002070470120704738B5134D134C2868FC
:1039E00003681B68A34217D18830C188472065F05F
:1039F000C7FF472066F0D0F9286803681B68A34218
:103A00000DD100F1B4034820D98865F0B9FF4820F2
:103A1000BDE8384066F0C0B900219847E5E70121CC
:103A200098470346EFE700BFA0880030B52A020898
:103A30000220704701207047FFF79CBE08B54B1E5F
:103A4000DBB2012B0DD873B14820114665F098FF09
:103A5000482066F0A1F966F075FA65F03DFE012098
:103A600008BD002008BD1146472065F089FF4720AA
:103A700066F092F9EFE700BF08B564F0E9FBBDE836
:103A8000084064F031BA00BF034642F2A0000021B2
:103A9000184402F099BB00BF00F5FF600FF04AB870
:103AA00010B504460FF0E6FB90F921305BB190F8B9
:103AB000403343B194F91C382BB1064B1B685B6D46
:103AC00093F89C3003B110BD04F5FF60BDE81040D1
:103AD0000EF0C2BE002B003038B5044600F542702F
:103AE00013F0CAFD1D4A94F8E835106804EB031181
:103AF000D1F89C13884210D094F88E0668B9B02093
:103B000000FB034090F8C903022806D9144D116048
:103B10002A78012A02D9013A2A7038BDFDD104F56C
:103B2000804CDCF8242C2AB9DCF8282C12B90523A7
:103B30002B7038BDB0220CF61C4C02FB034303F57E
:103B400075730FCB8CE80F0044F61C4120462144CE
:103B500000F0A4FA00232B7038BD00BFC47A0030F7
:103B6000D4240030704700BF30B59FED200A83B0E9
:103B700004468DED010A65F0DDFD04F54055472151
:103B8000002066F011F84821012066F00DF8B5F824
:103B9000B418472001EB810101EB8101490089B292
:103BA00066F0C6F8B5F9B838B5F9BA184820C91A98
:103BB00001EB810101EB8101490089B266F0B8F89F
:103BC00066F0C0F965F088FD44F2A8409DED010A59
:103BD000204458F095FB44F2B8409DED010A204482
:103BE00003B0BDE8304058F08BBB00BFCDCCCC3D1E
:103BF0002DE9F041054643F6C807482005F5405336
:103C000005F580482F442DED028BB3F9B828B3F9A0
:103C1000BA3802EB820203EB830302EB820203EB6E
:103C2000830396009C0065F093FF08F60453B0EE02
:103C3000408ADFED240A0021384693ED000A77F030
:103C40007BFB07EE906A38EE008AF8EEE77AF4EE36
:103C5000C87AF1EE10FA29DA07EE904AF8EEE77A20
:103C6000F4EEC87AF1EE10FA26D94820B0EE480AF0
:103C700065F056FF98F8C93444F2B84053B1B0EE3D
:103C8000480A2844DFED0F0ABDEC028BBDE8F04185
:103C900058F050BBB0EE480A284458F0D7FB012337
:103CA00088F8C934BDEC028BBDE8F0813846B0EE2F
:103CB000678A77F0DBFBCFE73846B0EE678A77F0AC
:103CC000D5FBD2E70AD7A33C00F5405244F6045393
:103CD00002F6A801034402F50A6093ED007AD0EDE4
:103CE000007A91ED006AF0EEC76A67EE867AF4EE2C
:103CF000E76AF1EE10FA2ED4B5EEC07AF1EE10FAC2
:103D000024DDB2F9B838DFED1B7A03EB830320EE34
:103D1000270A03EB83039B0007EE903AF8EEE77A5D
:103D2000B4EEE70AF1EE10FA1FDCB2F9BA3803EB91
:103D3000830303EB83039B0007EE903AF8EEE77AE8
:103D4000F4EEC07AF1EE10FA0ADC7047DFED097A82
:103D500020EE270AE9E79FED080A482065F0E0BE5B
:103D60009FED060A482065F0DBBE9FED050A48205E
:103D700065F0D6BE0000C8420000000000A00C465E
:103D800000A00CC610B544F60453044643F6C80020
:103D900000212344DFED110A204404F5405493ED43
:103DA000000A77F0C9FAB4F9B838B4F9BA48322140
:103DB0008020E21A1B1B01FB02F201FB03F301EE60
:103DC000102A00EE903AB8EEC11AF8EEE00A23F09D
:103DD00071FC4820BDE8104065F0A2BE0AD7A33CA4
:103DE00000F5405393F99838012B03D0022B03D0F0
:103DF000FFF7FEBEFFF768BFFFF7C4BFF8B500F5D9
:103E0000405300F5804743F67C160021DFED340A6D
:103E1000054606442DED028BB3F9B438304603EB6A
:103E2000830303EB83035C0007F6085393ED000A5A
:103E300077F082FA9FED2B1ADFED2B0ABF2023F0DB
:103E400039FCB0EE408A472065F082FE9FED251ACE
:103E500030EE080ADFED240AC02023F02BFC634279
:103E600007EE903AF8EEE77AF4EEC07AF1EE10FA47
:103E70002ADAB0EE408A07EE904AF8EEE77AF4EEDE
:103E8000C87AF1EE10FA25D94720B0EE480A65F05D
:103E900047FE97F8C83444F2A84053B1B0EE480A40
:103EA0002844DFED0F0ABDEC028BBDE8F84058F066
:103EB00041BAB0EE480A284458F0C8FA012387F8FE
:103EC000C834BDEC028BF8BD3046B0EE678A77F09F
:103ED000CDFAD0E73046B0EE678A77F0C7FAD3E77D
:103EE0000AD7A33C00A08C4600A08CC644F6085319
:103EF0009FED167A034400F54050D3ED007A00F6AA
:103F00009C0300F6A40067EE877A93ED007A90EDAB
:103F1000006AF0EEE76A27EE067AF4EEC76AF1EE81
:103F200010FA0ED4F5EEC07AF1EE10FA04DD9FED32
:103F3000080A472065F0F4BD9FED060A472065F0AA
:103F4000EFBD9FED050A472065F0EABD0AD7233C87
:103F500000A08C4600A08CC60000000010B544F6FE
:103F60000853044643F67C1000212344DFED120A77
:103F7000204404F5405493ED000A77F0DDF9B4F9DC
:103F8000B4284FF6CE71F12002EB8203B1EE400A65
:103F900012FB01F203EB830300EE902A5B00F8EEC4
:103FA000E00A01EE103AB8EEC11A23F083FB472075
:103FB000BDE8104065F0B4BD0AD7A33C00F54053FE
:103FC00093F99938012B03D0022B03D0FFF716BFCA
:103FD000FFF78CBFFFF7C2BFFEF7D6BC70B5114D1F
:103FE00088B004460521284666F040FA09210646B5
:103FF000284666F03BFA024601212846039204ADAA
:1040000066F034FA03460020039A314600902846B1
:104010000AF0C6FA95E80F0084E80F00012008B006
:1040200070BD00BFC87A003070B50022194E0C4632
:1040300005461146304666F025FA62683046012191
:1040400066F03CFAA2683046052166F037FA09218D
:10405000E268304666F032FA05F540529FED0E7A7E
:10406000012492F9C13843F6C10082F8C148013BEE
:10407000284407EE903AF8EEE77AF0EEE77AF4EEAD
:10408000C77AF1EE10FA4CBF214600214FF01EFA1C
:10409000204670BDC87A00300000003470B5054677
:1040A00042F2A00684B00C462E4468460AF060FA3C
:1040B0006946304602F06EFA20B12146304604F0DF
:1040C000DFFE78B121462846FFF7AEFF844648B1AF
:1040D00044F61C4694E80F002E4486E80F00604624
:1040E00004B070BD4FF0000C604604B070BD00BF5E
:1040F000084B01211B6810B50446586D03681B6806
:10410000984743F6342001212044BDE8104054F084
:1041100043BB00BF002B0030084B00211B6810B5CB
:104120000446586D03681B68984743F63420002105
:104130002044BDE8104054F02FBB00BF002B0030DE
:104140002DE9F04100F5405300F58045044683F821
:104150003828D5F82C3C8B4237D0C5F82C1C0846A3
:104160000B6816465B6898471F4B07461B68586DDF
:104170006FBB43F6342803683946A0441B68984750
:104180003946404654F008FBD5F82C0C05F6F845A6
:1041900003681B689847014632464046C9B254F04E
:1041A000DBFC44F2CC400021204404F500545EF0D6
:1041B000A9FC9FED0E7A04F21443D3ED007AF8EED9
:1041C000E77A67EE877AC5ED007ABDE8F08143F6BD
:1041D000342803680121A0441B6898470121404608
:1041E00054F0DAFAD0E700BF002B00300AD7233CA6
:1041F0002DE9F041044644F2E06082B044F2CC453F
:10420000204404F5D2687AF0ADF904F1100007F00B
:104210003BFC04F1A00009F02DFC42F24C002544C7
:1042200041F6D876204442F2A0074AF09FFA44F2C1
:1042300038700122714B204426449A712744DA7168
:1042400006F06AFC08234046C4F8A43605F086F957
:1042500028465EF0B5FC284660F0B0FD2046FEF72B
:10426000ABFB44F6644020448DF0F4FD0FF002F8FF
:10427000202303630EF0FEFF10F09AFC0223314668
:1042800004F54270C4F87C3311F080FA384601F02E
:1042900009F804F50053002204F5346083F8692519
:1042A000B4F99C1221B9B4F89A12A4F89C1209B27C
:1042B00089B221F0FBFA384601F0E6F801214046C8
:1042C00005F096FC4E4A4F4B43F63420CDE90023CF
:1042D00002AB204413E9060054F052FA00213046A4
:1042E00004F5405652F044F863F0B2FF99222921B8
:1042F00065F088F863F0ACFF63F0D0FE2046FFF76E
:1043000033FC06F68C039FED407AD3ED007AF0EE95
:10431000E76AF4EEC76AF1EE10FA43D806F50963CE
:10432000DFED3A6A93ED007AB0EEC76AB4EEE66A62
:10433000F1EE10FA36D8DFED366A04F5804267EE0A
:10434000A67A27EE267AFDEEE77ABDEEC77A17EE5B
:10435000903A17EE101AC2F8243CC2F8281C13B980
:10436000D2F8283C43B32B4B4FF47A711B68186D7D
:1043700003685B68984796F9BE182046FEF708FE6A
:104380000146B8B31F222046FFF7DAFE06F6940373
:10439000D3ED007AF5EEC07AF1EE10FA16DC02B039
:1043A000BDE8F0811C4A0521284658F027FD04F598
:1043B0008042D2F8243CD2E796F9C138002BD2D003
:1043C00044F61C402044FFF709FECCE78DF0BAFC10
:1043D000034600214720C6F8303A65F009FB00216A
:1043E000482065F005FB65F0ADFD02B0BDE8F04189
:1043F00065F072B944F638412144C3E7187E0030B5
:10440000082B0030D93F02080000B44200003443BA
:104410008096184B002B003020F3130808B50A29AA
:1044200007D8DFE801F00F13171B1F060606060664
:104430000800002008BD44F630410144FFF780FE2B
:10444000012008BD44F638410144F7E744F66041D5
:104450000144F3E744F658410144EFE744F65C4178
:104460000144EBE744F63C410144E7E7034643F6E9
:104470003420184454F02AB90020704700207047B7
:10448000002070470321014865F020BFC87A003042
:10449000F8B544F6584300F5804444F61C4644F60B
:1044A000D0470344D4F82C2C054606449A420744CE
:1044B00003D094F8183DDA073CD5304639460AF067
:1044C00029FAB7EEC00B04F6FC4305F5405683ED20
:1044D000000A96F99A38012B43D0D4F8F43CDFED6A
:1044E0002E6A07EE903AF8EEE77A87EEA67A04F5A0
:1044F000516787ED007AD4F82C0C03681B68984745
:10450000022816D094F8183D9B0712D496F99A38D1
:10451000ABB304F6FC4497ED000AD4ED000A0FF1AA
:104520006FFEDFED1E7A05F59A4520EE270A85ED30
:10453000000AF8BD394630460AF0F8FCB6EE007BBA
:1045400004F6F8439FED126BA0EE067BDFED146AD4
:10455000BDEEC77BB8EEC77A27EE267A83ED007AE8
:10456000ABE7D4F8D43CD4F8202CDFED0B6A9B1ACF
:1045700007EE903AF8EEE77A87EEA67AB7E704F608
:10458000FC4304F60C54D3ED000A94ED000AC6E790
:10459000000000009461B6400000C842E02E654271
:1045A0000AD7233C70B5054605F580442DED028BF6
:1045B0008DF0BCFBD4F8E03C9FED267AF1EE047A56
:1045C000C31A08EE103AB8EE488A28EE078AB4EE0D
:1045D000E78AF1EE10FA05D4002384F8BC3CBDEC68
:1045E000028B70BD04F54C6304F54D6C04F6E84E87
:1045F00004F6EC460FCB8CE80F0096ED001A44F65B
:10460000D0409EED000A28EE011A284428EE000A48
:10461000B7EEC11AB7EEC00A0AF0DCFB04F54F632F
:10462000D4F8D42C93ED007A0123DFED0B6A07EE6A
:10463000902A84F8BC3CF8EEE77A27EE267AE7EE7B
:10464000087AFDEEE77A17EE903AC4F8D43CBDEC58
:10465000028B70BDBD3786350000C84230B585B0CD
:1046600004466D46284609F083FF42F2A000294621
:10467000204401F0C1F850B104F58044002304F651
:104680001C4C84F81E3D95E80F008CE80F0005B027
:1046900030BD00BF70B50446FFF784FF04F58046C7
:1046A0002046FFF7DBFF96F8BC3C13B12046FFF72E
:1046B000EFFE04F5405404F69405D5ED007AF5EECE
:1046C000C07AF1EE10FA27DC284B294A1D68686D84
:1046D00003681B6A934234D190F89C508DB994F9C9
:1046E000BF38012B32D02946472065F049F92946C9
:1046F000482065F045F965F025FCBDE8704064F0A0
:10470000EBBFD6F82C0C03689B68984765F01AFC41
:10471000BDE8704064F0E0BF8DF014FBD4F8303A8F
:10472000DFED147A95ED007AC01A27EE277A07EEAE
:10473000900AF8EE677AF4EEC77AF1EE10FAC3D574
:1047400070BD98470128FBD0686DC5E79FED0A0A48
:10475000472065F0E5F99FED080A482065F0E0F98B
:1047600065F0F0FBBDE8704064F0B6BF002B003090
:10477000791E020800007A440000000070B500F5C0
:1047800080444B682E4E0546C4F8C83C04F6E84CFD
:104790008B6804F6EC40DFED2B7A82B0C4F8CC3C99
:1047A000CA6886FB02E3D217C2EBA302C4F8C42C8A
:1047B0000B6986FB0326DB17C3EBA603C4F8F43CA6
:1047C000B1F9163007EE103AB1F91830B8EEC77AE1
:1047D00006EE903AB1F91430F8EEE66AC7EE275AC1
:1047E00007EE103A04F54F63B8EEC77A86EEA76A73
:1047F000C7EE276ACCED006AC0ED005A83ED006A6F
:104800008DF094FAC4F8E00C8DF09CFA0346022176
:104810002846C4F8E43CFFF729FE08B902B070BD91
:1048200044F6E846D4F8C43CD4F8CC2C28462E44B0
:10483000D4F8C81C0096FEF771F802B070BD00BF36
:10484000676666660000C84210B52DED028B90F8D1
:10485000A1360446DFED237A00F5D26091ED018A9E
:10486000C3EBC30328EE278A00EBC30393ED090AC9
:10487000F0EE480A04F004FCB4EE400AF0EE400A00
:10488000F1EE10FA24D6F0EEC07A9FED177AF4EE2E
:10489000477AF1EE10FA1BDC04F5804303F614515D
:1048A00003F60C52D1ED007A77EE807AC2ED007AF1
:1048B00093F8180D40070BD5F1EE407AC1ED007A60
:1048C0000021116093F8182D6FF3820283F8182DE0
:1048D000B0EE480A2046BDEC028BBDE81040FDF763
:1048E000F5BF00BF0000C842FFFF7F7FB1F9003075
:1048F00047F6FF7C07EE903A00F5804300F59A40BA
:10490000F8EEE77A03F6F842C2ED007AB1F9022038
:1049100007EE902A03F6FC42F8EEE77AC0ED007A43
:1049200000201060B1F9000093F8182DB0EB0C00D6
:1049300018BF012060F3000283F8182DB1F902209E
:1049400093F8181DB2EB0C0218BF012262F341016B
:1049500083F8181D704700BF10B500F58044D4F8E7
:10496000E43C13B9084A137110BD8DF0EBF9D4F88B
:10497000E42C41F28733801A034A98428CBF00230B
:104980000123137110BD00BF187E003044F6F843B8
:1049900070B5034400F5405400F59A400D461646A4
:1049A0002DED028BD3ED008AB7EE008AB4F9BA3848
:1049B000D0ED007AD12001EE103A04F50B6393EDAF
:1049C000000AB8EEC11AB4F9B83830EE270A00EE82
:1049D000903AF8EEE00A22F06DFEB4F9B828B4F986
:1049E000BA3807EE902A9B1AF8EEE77A30EE670A9B
:1049F00007EE903A04F6AC03F8EEE77A30EE000AE0
:104A000080EE277A77EE487AC6ED007A93ED000AB9
:104A100038EE800A22F0D0FDB4F9B43830EE000A46
:104A2000012007EE103AB8EEC77AC0EE077A77EEAB
:104A3000C87AC5ED007ABDEC028B70BD704700BF2F
:104A400000207047704700BF00207047002070476B
:104A5000002070479FED010A704700BF0000000072
:104A60009FED010A704700BF00000000704700BFC3
:104A700000207047704700BF10B504466C30B5F099
:104A80003BFC04F1F000B5F037FC4FF0FF3320465B
:104A9000C4F8503110BD00BF014B1868704700BF0B
:104AA000CC7A003030B599B00024054604A80194B2
:104AB0000294039409F05CFD4FF07E5301A928464F
:104AC0000B940A940994089301F04CFC08B919B0AE
:104AD00030BD04A9284601F011FC0028F7D008A930
:104AE000284600F0DFFF0028F1D02D2200210CA87D
:104AF00012F138FA95224223A3218DF831208DF846
:104B000032308DF830108DF025F99FED2A6A9DED39
:104B1000017ADDED027A27EE067ADFED276A67EE8D
:104B2000867A9DED030ACDF8330027EE267ACDF87C
:104B3000371067EEA67A20EE060ABDEEC77AFDEEC4
:104B4000E77A20EE260A17EE103AADF83B3017EE62
:104B5000903AADF83D3022F045FDDDED057ABCEE32
:104B6000C00A9FED167AF8EEE77A069A079B089935
:104B700067EE877ACDF84520CDF8493010EE102A3F
:104B8000099BADF83F20CDF84D1017EE901A0A9A08
:104B9000CDF851300B9BCDF84110CDF85520CDF814
:104BA000593054F01DFE2D220CA953F015FE19B0FA
:104BB00030BD00BFE02E65420000C8420AD7233C4A
:104BC00030B50023A3220D4604462DED028B89B09B
:104BD0009FED328ACDE90133CDE90333CDE90533C9
:104BE000079344238DF8042095228DF806308DF824
:104BF00005208DF0AFF895ED017AD5ED007ABDEE88
:104C0000C77AD4F86C33FDEEE77A95ED020AADF879
:104C1000113017EE102AD4F87033CDF80B10ADF820
:104C2000132017EE902ACDF80700ADF80F20ADF84D
:104C3000153022F0D7FCBCEEC00AD4F8740310EE95
:104C4000103AADF8173022F0E3FC03462046ADF8E9
:104C5000193000F047FC20EE080A2046BCEEC00ADE
:104C600010EE103AADF81B3000F042FC20EE080ABE
:104C70002046BCEEC00A10EE103AADF81D3000F030
:104C8000CBFC8DF81F0054F0ABFD1C2201A953F0A2
:104C9000A3FD09B0BDEC028B30BD00BF0000C842CF
:104CA00030B5002387B01446A32200930D46059328
:104CB0008DF800209522CDE90133CDE9033345235A
:104CC0008DF801208DF802308DF044F8E2686368B9
:104CD0008DF80B50A568CDF807100593CDF80300AB
:104CE000CDE9035254F07CFD1822694653F074FD5F
:104CF00007B030BD10B58EB0044602A809F038FCEC
:104D000002A9204600F078FD08B90EB010BD01F0F0
:104D1000E5FF694601F05EFD1F22002106A812F1A1
:104D200021F995224623A3218DF819208DF81A30F8
:104D30008DF818108DF00EF8DDED037A03469DED29
:104D4000007A8C46F8EEE77ADFED186AB1EE477A22
:104D5000CDF81B300599204667EEA67A049A17EE27
:104D6000103ACDF8271001A9CDF81FC0CDF82F308B
:104D700017EE903ACDF82320CDF82B3001F0A8FCA7
:104D800078B1DDED017AF1EE677A17EE903ACDF861
:104D9000333054F025FD1F2206A953F01DFD0EB03F
:104DA00010BD54F01DFDDFED027AEEE70AD7233C7B
:104DB0005241C07F704700BF0020704770B54FF070
:104DC0007E539AB0002504460D9310950F950E95CD
:104DD00082F032F80DA981F059FF00285CD004F56B
:104DE00073760DA8314625F01FFA04F5926231461C
:104DF000684623F08FF8EC46B646BCE80F00AEE8F4
:104E00000F00BCE80F00AEE80F00DCF8003004F53E
:104E1000597204F558713046CEF8003004F55A73D3
:104E200023F01EFA204602F077FA204602F058FAE4
:104E3000C4F8F853C4F8F453C4F8F05381F0FCFFFD
:104E400081F0BAFF04F5806384EDFF0AC3ED000A28
:104E500004F2044383ED001A81F0EEFF81F0C6FFF7
:104E600004F26C42314611A88DED0A0ACDED0B0A11
:104E70008DED0C1A23F04EF80AA911A822F0CCFFF0
:104E800004F5816383ED000A04F20C4304F58264A7
:104E9000C3ED000A84ED001A1AB070BD2DE9F04F81
:104EA00004460D46DFF8F8B304F26C4604F58C6A4C
:104EB00004F5926904F5A96704F20C582DED028BF4
:104EC00091B0F7EE008A2BF0A9FA04F5B8702CF037
:104ED00033F94FF0000304F560709FEDEE8A84F81B
:104EE0007C3389F075FB04F58061C4EDEC8A04F530
:104EF0008162C4EDED8A04F21443C4EDEE8A04F23B
:104F00002C4084EDF38A84EDF48A84EDF58A84EDF7
:104F1000F68A84EDF78A84EDF88A84EDF98A84EDC7
:104F2000FA8A84EDFB8A84EDFC8A84EDFD8A84EDA7
:104F3000FE8A84EDFF8A81ED008A04F2044181ED4E
:104F4000008A82ED008A82ED018A82ED028A83ED79
:104F5000008A83ED018A83ED028A4FF47A7384F824
:104F6000285404F2F445A4F8203409F001FB03238B
:104F700004F5A0600297C4F8403404F2544304F5E9
:104F8000AC67019083ED008A04F59D6183ED018A91
:104F900004F5A36E83ED028A04F2245C009304F509
:104FA0008F638AED008A04F5A6608AED018A2422C7
:104FB0008AED028A86ED008A86ED018A86ED028AF4
:104FC00083ED008A83ED018A83ED028A04F2844333
:104FD00004974FF07C5783ED008A83ED018A83EDBF
:104FE000028A04F29C4389ED008A89ED018A89EDE9
:104FF000028A83ED008A83ED018A83ED028A04F53B
:10500000956383ED008A83ED018A83ED028A04F2C1
:105010005453C4F8CCB404F5677B039304F26C5387
:10502000059304F27C53C4F8D0B404F5687BC4F84B
:10503000D4B404F5697BC4F8D8B404F56A7BC4F829
:10504000DCB404F2AD3BC4F8E0B404F56B7BC4F807
:10505000E4B481ED008A81ED018A81ED028A019933
:1050600085ED008A85ED018A85ED028A81ED008A51
:1050700081ED018A81ED028A029988ED008A88ED2E
:10508000018A88ED028A04F2CC488EED008A8EED0A
:10509000018A8EED028A8CED008A8CED018A8CEDFE
:1050A000028A80ED008A80ED018A80ED028A04F296
:1050B0008C5081ED008A81ED018A81ED028A03998D
:1050C00081ED008A81ED018A81ED028A049981EDEA
:1050D000008A81ED018A81ED028A059981ED008ABD
:1050E00081ED018A81ED028A002183ED008A83ED42
:1050F000018A83ED028A11F135FFC8ED3B8AC8EDC4
:105100003C8A2422002104F5B96011F12BFF04F23E
:10511000EC5304F22C6104F5C76283ED008A04F5B8
:10512000C16083ED018A83ED028A04F5CA63C0ED94
:10513000008A80ED018A04F5CD6081ED008A81ED61
:10514000018A81ED028A82ED008A82ED018A82ED78
:10515000028A83ED008A83ED018A83ED028AC8F812
:10516000907104F5CF6809F003FA04F2BC6788ED8A
:10517000008A04F2A46E88ED018A04F5D06804F573
:10518000D66C04F5DC6288ED008A04F5D96088ED00
:10519000018A04F2D46104F2EC6304F5D16888ED6D
:1051A000008A88ED018AC5ED088AC5ED048AC5ED3F
:1051B000008A85ED028A85ED018A85ED058A85EDF7
:1051C000038A85ED078A85ED068A04F58D658EEDE7
:1051D000008A8EED018A8EED028A8CED008A8CEDBC
:1051E000018A8CED028A87ED008A87ED018A87EDBE
:1051F000028A80ED008A80ED018A80ED028A2046D5
:1052000081ED008A81ED018A81ED028A82ED008ABA
:1052100082ED018A82ED028A83ED008A83ED018AA4
:1052200083ED028A1C4B1D491C604EF07FFB009AE7
:1052300004F26443C4EDFB8AC4EDF78AC4EDF38A3B
:1052400084EDF58A84EDF48A84EDF88A84EDF68A9B
:1052500084EDFA8A84EDF98A07CA8AE807003046A5
:1052600095ED001AD3ED000A4D469AED000A22F0A2
:1052700097FF314606AE06A822F0BAFE0FCE0FC544
:105280000FCE0FC5204633682B6011B0BDEC028BEA
:10529000BDE8F08F00000000D07A003048F4130819
:1052A0007CF5130810B590F99A3388B0012B44D0DF
:1052B000044600F2CC40C4F8503401F05BFD6FF0BE
:1052C00049FF94F99933C4F8F806642B01D008B06B
:1052D00010BD6523002104F2993084F899334EF013
:1052E000F5F804A920464EF0BDF80028EFD00023C1
:1052F00004210F228DF8181005920393CDE9013394
:10530000694604A84EF0FCFE059B28B108AA009946
:1053100002EB830242F8581C0133112B0593EFD99D
:1053200085F0C2FB9DED031ADDED020A65219DEDBE
:10533000010A85F025FB08B010BD014806F080FC8D
:1053400074F3130870B500F2544600F58C658CB008
:1053500004463146284626F085FB38BB04F26443F8
:1053600096E8070085E8070004F26C4104F58D62B9
:10537000D3ED000A084692ED001A95ED000A01915E
:1053800022F00EFF019902A822F032FE0DF1080E64
:1053900004F5926CBEE80F00ACE80F00BEE80F0009
:1053A000ACE80F00DEF80030CCF800300CB070BD77
:1053B00000F57F70704700BF00F57370704700BF45
:1053C00000F57C70704700BF10B5044682B040F213
:1053D000231204F5607101A81DF0F0FB04F2CC402B
:1053E00002F03CF820462BF01FF904F5B8702CF0C1
:1053F00063F801A81DF00EFC02B010BD2DE9F04FBE
:105400000B6883B001F10C040546C0F8603301F16C
:10541000540C4B6801F1300B01F13C0900F57F7A27
:10542000C0F8643300F57C788B6800F5816700F282
:10543000144600F5737EC0F8683301F14803019308
:105440000FCCAEE80F000FCCAEE80F002368CEF80B
:1054500000309BE807008AE8070099E80700019BF5
:1054600088E8070093E8070087E807009CE8070042
:1054700086E80700284601F04FFF284603B0BDE844
:10548000F04F01F02DBF00BF10B5044682B040F2CE
:10549000B22204F5607101A81DF090FB002104F216
:1054A000CC4002F07DFA94F8C8333BB994F8C93384
:1054B0006BB901A81DF0AEFB02B010BD20462BF069
:1054C000D7FC94F8C93384F8C803002BF1D004F555
:1054D000B8702CF087FD84F8C90301A81DF09AFB71
:1054E00002B010BD00F2CC4090ED3B0A704700BF07
:1054F00000F2CC4090ED3C0A704700BF10B590F927
:105500009A330446032B08DC012B18DC3BB990F8D6
:105510002834DB0703D4012010BD0B2B16D094F8E0
:10552000C8030028F8D08CF00DFCD4F8242444F6ED
:105530002063801A984294BF0020012010BD032BE5
:10554000EDD190F8C9030028EDD110BD81F074FCB5
:10555000BDE8104081F094BB10B590F99A330C4629
:10556000032B09DC012B17DC43B990F8283413F026
:10557000010303D1184610BD0B2B05D021462BF09B
:105580003FF90123184610BD81F056FC214681F0F9
:105590000BFC0123184610BD032BEFD100F5B870AA
:1055A0002CF06CF90123184610BD00BF30B583B054
:1055B0000546FFF771FA28B190F84E110446FFF73F
:1055C00043FA18B90024204603B030BD94F84E11B8
:1055D0002046FFF73DFA04460028F3D095F8C93479
:1055E000002BF0D00B4A1268526D92F89C401CB907
:1055F0001C46204603B030BD01A92846FFF7ACFF8A
:105600000028E0D09DF80640C4F3400484F0010473
:10561000E4B2D8E7002B003030B590F99A3385B06A
:105620000446032B0BDC012B00F38A804BB990F866
:105630002834D9076ED40024204605B030BD0B2B8A
:105640001BD094F8C833002BF5D094F82834DA072F
:1056500064D420462AF080FF0028ECD094F87C33F4
:1056600003F0FD03012B69D103A920462BF0C8F8F4
:1056700020462BF095FB02240AE090F87C5305F0BD
:10568000FD05012D42D103A91C46FFF765FF284601
:10569000584B1D686B6D93F89C30002B71D19DF8B1
:1056A0000C30D807C7D55D07C5D59806C3D599076F
:1056B00003D5DA06C0D41B07BED40DF0DBFD0DF018
:1056C00043FA0028B7D112F0FFF890F8863390F82B
:1056D000E022002BAFD1B02505FB020090F8C130CD
:1056E000022BA8D912F0F0F890F8E032F0EE007A30
:1056F00005FB030090ED377AB4EEE77AF1EE10FA8D
:1057000099D59DF80D30DB0996D194E71C462046CB
:1057100005B030BD90F8C833002B8CD003A92046CB
:1057200001912BF061F8BDF80C30002B83D194F877
:105730007C33019903F0FD03012B96D002247BE713
:10574000032B7FF47EAF94F8C933002B3FF473AF83
:1057500094F8283404F5B875DB0720D503A928464A
:1057600001912CF07FF8BDF80C30002B7FF463AF73
:1057700094F87C33019903F0FD03012B1CD0032422
:105780005AE79DF80D30990603D59DF80C30DA06DE
:1057900002D4C8B99DF80C30DA0982D04BE728460C
:1057A0002BF000FE00283FF446AF94F87C3303F062
:1057B000FD03012BE3D103A9284603242CF05EF856
:1057C00028462BF091FF63E712F07EF890F88633BD
:1057D00090F8E0223BB9B02303FB020090F8C130FF
:1057E000022B3FF628AF6B6D93F89C30002BD1D184
:1057F00055E700BF002B003038B504460D46FFF7D3
:105800000BFF0B280CD8DFE800F0110B061F0B0B69
:105810000B0B0B0B0B18294620462AF05BFFD0B967
:1058200094F82834DB0701D5002038BD294604F25E
:10583000CC40BDE8384001F087BE81F0FDFA294632
:10584000BDE8384081F056BA294604F5B8702BF00F
:105850008DFE0028E4D0012038BD00BF38B50446D5
:105860000D46FFF7D9FE022803D0032807D00020F9
:1058700038BD29462046BDE838402AF0B1BE294649
:1058800004F5B870BDE838402BF0D0BD70B582B0DB
:1058900004460E4640F2255200F5607101A81DF045
:1058A0008DF9314620462AF02DFF3146054604F594
:1058B000B8702BF085FE034620461C46FFF7ACFE71
:1058C000022803D003280CBF2546002501A81DF09F
:1058D000A1F9284602B070BD08B5FFF79DFE00385B
:1058E00018BF012008BD00BF10B582B00446019169
:1058F000FFF792FE032801990AD00B2815D0022841
:105900000DD004F2CC4002B0BDE8104001F0F8BD6B
:1059100004F5B8702BF080FD012002B010BD2046C8
:105920002AF054FE012002B010BD019181F084FAEA
:10593000019902B0BDE8104081F00ABA38B50546B9
:105940000C46FFF769FE0B2807D8DFE800F01E06BB
:10595000170F0606060606060608002038BD81F069
:105960006BFA2146BDE8384081F00ABA05F5B870F7
:105970002BF068FD012084ED000A38BD28462AF08E
:105980003BFE012084ED000A38BD214605F2CC40E3
:10599000BDE8384001F09EBD38B504460D46FFF71E
:1059A0003BFE022803D0032807D0002038BD29463B
:1059B0002046BDE838402AF0DFBE294604F5B8701D
:1059C000BDE838402BF03CBE10B590F99A33044640
:1059D000032B0CDC012B24DC5BB990F82834DB07AB
:1059E00007D400F2CC40BDE8104001F0B3BE0B2B51
:1059F00004D094F8C8333BB9002010BD81F01CFAE4
:105A0000BDE8104081F036B920462AF0A5FD0028F7
:105A1000F2D094F87C3303F0FD03012B1CD001205D
:105A200010BD032BE5D194F8C933002BE4D004F565
:105A3000B8702BF0B7FC0028DED094F87C3303F06C
:105A4000FD03012BEBD12046FFF7E6FDA0F103009B
:105A5000B0FA80F0400910BD2046FFF7DDFDA0F14F
:105A60000200B0FA80F0400910BD00BF38B505460D
:105A70000C46FFF7D1FD03280BDC01280BDC70B9C5
:105A800095F99A33032B07D0022B05D00B2B03D0AB
:105A900038BD0B2803D100230120236038BD00202E
:105AA00038BD00BF70B584B00D4606466946FFF7A5
:105AB000DDFF88B1009B04460B2B19D8DFE803F00B
:105AC000061810321818181818181829294606F23E
:105AD000CC4001F02FFD58B90024204604B070BD21
