:020000040802F0
:1000000000060030DD0D020871EF0A0871030208D6
:10001000EDEE0A08E5EE0A08E9EE0A08DF0D02082F
:10002000DF0D0208DF0D0208DF0D0208997C1208BF
:10003000DF0D0208DF0D0208DF0D0208DF0D0208E8
:10004000DF0D0208DF0D0208DF0D0208DF0D0208D8
:10005000DF0D0208DF0D0208A5FE1208D1FE12080E
:10006000FDFE120829FF120855FF1208498B1208DD
:10007000718B12089D8B1208C98B1208F58B120820
:100080001D8C1208498C120855871208A5B40A085D
:10009000F1B50A0879B50A08C5B60A0881FF120841
:1000A000DF0D0208D1001308DF0D0208E500130878
:1000B000F9001308DF0D02080D0113087D941208E2
:1000C0003195120819961208CD96120805A5120846
:1000D00019A51208DF0D0208590013086D00130856
:1000E000E5FF1208DF0D0208DF0D0208DF0D020830
:1000F000DF0D0208DF0D0208DF0D0208758C120803
:10010000DF0D02089D9D120821011308DF0D020872
:1001100081001308DF0D0208DF0D0208DF0D020861
:10012000A18C1208C98C1208F58C1208218D1208B6
:100130004D8D1208DF0D0208DF0D0208DF0D0208E9
:10014000DF0D0208DF0D0208DF0D0208DF0D0208D7
:10015000758D1208A18D1208CD8D12089500130817
:10016000DF0D0208DF0D0208DF0D0208DF0D0208B7
:10017000DF0D0208F1FA1208DF0D0208DF0D020898
:10018000DF0D0208DF0D0208A9001308BD001308E7
:100190002DA51208DF0D0208DF0D0208DF0D020891
:1001A000DF0D0208DF0D0208DF0D0208DF0D020877
:1001B000DF0D0208DF0D0208DF0D0208DF0D020867
:1001C000DF0D0208DF0D0208DF0D0208DF0D020857
:1001D000DF0D0208DDFA1208DF0D0208DF0D02084C
:1001E000DF0D0208DF0D0208DF0D0208DF0D020837
:1001F000DF0D0208DF0D0208DF0D0208DF0D020827
:10020000DF0D0208DF0D0208DF0D0208DF0D020816
:10021000DF0D0208DF0D0208DF0D0208DF0D020806
:10022000DF0D0208DF0D0208DF0D0208DF0D0208F6
:10023000DF0D0208DF0D0208DF0D020875871208C6
:10024000DF0D0208F9881208218912084D89120869
:1002500079891208A5891208D1891208FD89120826
:10026000298A1208DF0D0208DF0D0208DF0D0208DF
:10027000DF0D0208DF0D0208DF0D0208DF0D0208A6
:10028000DF0D0208DF0D0208DF0D0208DF0D020896
:10029000DF0D0208DF0D0208DF0D0208DF0D020886
:1002A000A532020891430208F5B0020841BD0208D8
:1002B00025EC0208C1F8020809590308AD820308B9
:1002C0000901040871E70408952107089D510708F2
:1002D00001560708356F070889D807081DE1070888
:1002E000B9E40708ED6C0808AD8F0808854B0908CC
:1002F000C568090891770908119F0A083DB70A08DF
:1003000001BA0A0821BF0A08F5E80A08B5E70C088F
:1003100055090D08790E0D081D100D0851200D0806
:1003200061330D0899330D08B54F0D0875A30D08FD
:10033000A5E80D0861160E08851C0E08E5600E087C
:100340009DAB0E0889321008613310081938100867
:10035000CD3A10088D4210086568100829FE100873
:10036000B90A1108C5461108A15011087D9B110852
:10037000EFF30383EFF30982EFF30881DFF814D082
:100380002DE9FE4F684601F003F8BDE8FE4F8D46AB
:1003900070470000542A0030F1EE101AA0EC200A39
:1003A00001607047A0EC108A704700BF81F00041E7
:1003B00002E000BF83F0004330B54FEA41044FEA4A
:1003C000430594EA050F08BF90EA020F1FBF54EAE5
:1003D000000C55EA020C7FEA645C7FEA655C00F081
:1003E000E2804FEA5454D4EB5555B8BF6D420CDD52
:1003F0002C4480EA020281EA030382EA000083EAD5
:10040000010180EA020281EA0303362D88BF30BD74
:1004100011F0004F4FEA01314FF4801C4CEA1131CA
:1004200002D0404261EB410113F0004F4FEA033329
:100430004CEA133302D0524263EB430394EA050FB4
:1004400000F0A780A4F10104D5F1200E0DDB02FA23
:100450000EFC22FA05F2801841F1000103FA0EF2B7
:10046000801843FA05F359410EE0A5F120050EF17D
:10047000200E012A03FA0EFC28BF4CF0020C43FAAE
:1004800005F3C01851EBE37101F0004507D54FF0BB
:10049000000EDCF1000C7EEB00006EEB0101B1F50B
:1004A000801F1BD3B1F5001F0CD349085FEA300051
:1004B0004FEA3C0C04F101044FEA445212F5800F5C
:1004C00080F09A80BCF1004F08BF5FEA500C50F1F9
:1004D000000041EB045141EA050130BD5FEA4C0CDC
:1004E000404141EB0101013C28BFB1F5801FE9D239
:1004F00091F0000F04BF01460020B1FA81F308BF5C
:100500002033A3F10B03B3F120020CDA0C3208DD27
:1005100002F1140CC2F10C0201FA0CF021FA02F102
:100520000CE002F11402D8BFC2F1200C01FA02F172
:1005300020FA0CFCDCBF41EA0C019040E41AA2BF97
:1005400001EB0451294330BD6FEA04041F3C1CDA5F
:100550000C340EDC04F11404C4F1200220FA04F07F
:1005600001FA02F340EA030021FA04F345EA030129
:1005700030BDC4F10C04C4F1200220FA02F001FAEB
:1005800004F340EA0300294630BD21FA04F029466D
:1005900030BD94F0000F83F4801306BF81F4801106
:1005A0000134013D4EE77FEA645C18BF7FEA655C79
:1005B00029D094EA050F08BF90EA020F05D054EA4B
:1005C000000C04BF1946104630BD91EA030F1EBF50
:1005D0000021002030BD5FEA545C05D14000494154
:1005E00028BF41F0004130BD14F580043CBF01F547
:1005F000801130BD01F0004545F0FE4141F470012D
:100600004FF0000030BD7FEA645C1ABF1946104607
:100610007FEA655C1CBF0B46024650EA013406BF08
:1006200052EA033591EA030F41F4002130BD00BFC7
:1006300090F0000F04BF0021704730B54FF4806484
:1006400004F132044FF000054FF0000150E700BF05
:1006500090F0000F04BF0021704730B54FF4806464
:1006600004F1320410F0004548BF40424FF0000151
:100670003EE700BF42004FEAE2014FEA31014FEA94
:1006800002701FBF12F07F4393F07F4F81F06051E3
:10069000704732F07F4208BF704793F07F4F04BF2E
:1006A00041F40021704730B54FF4607401F000450B
:1006B00021F000411CE700BF50EA010208BF70476B
:1006C00030B54FF000050AE050EA010208BF70475C
:1006D00030B511F0004502D5404261EB41014FF4C5
:1006E000806404F132045FEA915C3FF4D8AE4FF0CD
:1006F00003025FEADC0C18BF03325FEADC0C18BFB0
:10070000033202EBDC02C2F1200300FA03FC20FA00
:1007100002F001FA03FE40EA0E0021FA02F114444D
:10072000BDE600BF80F0004002E000BF81F0004164
:1007300042001FBF5FEA410392EA030F7FEA226C87
:100740007FEA236C6AD04FEA1262D2EB1363C1BF17
:10075000D218414048404140B8BF5B42192B88BF86
:10076000704710F0004F40F4000020F07F4018BFA9
:10077000404211F0004F41F4000121F07F4118BFC9
:10078000494292EA030F3FD0A2F1010241FA03FC71
:1007900010EB0C00C3F1200301FA03F100F0004359
:1007A00002D5494260EB4000B0F5000F13D3B0F121
:1007B000807F06D340084FEA310102F10102FE2A90
:1007C00051D2B1F1004F40EBC25008BF20F0010000
:1007D00040EA03007047490040EB0000013A28BF9F
:1007E000B0F5000FEDD2B0FA80FCACF1080CB2EB22
:1007F0000C0200FA0CF0AABF00EBC25052421843A0
:10080000BCBFD0401843704792F0000F81F4000144
:1008100006BF80F400000132013BB5E74FEA410317
:100820007FEA226C18BF7FEA236C21D092EA030F83
:1008300004D092F0000F08BF0846704790EA010FFD
:100840001CBF0020704712F07F4F04D1400028BF2A
:1008500040F00040704712F100723CBF00F500000C
:10086000704700F0004343F0FE4040F40000704742
:100870007FEA226216BF08467FEA236301464202EE
:1008800006BF5FEA412390EA010F40F48000704701
:100890004FF0000304E000BF10F0004348BF4042A7
:1008A0005FEA000C08BF704743F0964301464FF0E3
:1008B00000001CE050EA010208BF70474FF000033F
:1008C0000AE000BF50EA010208BF704711F0004380
:1008D00002D5404261EB41015FEA010C02BF844650
:1008E0000146002043F0B64308BFA3F18053A3F5AF
:1008F0000003BCFA8CF2083AA3EBC25310DB01FAF6
:1009000002FC634400FA02FCC2F12002BCF1004F79
:1009100020FA02F243EB020008BF20F0010070470A
:1009200002F1200201FA02FCC2F1200250EA4C005E
:1009300021FA02F243EB020008BF20EADC707047A4
:100940007BB972B90029BEBF00204FF0004106E01C
:1009500008BF00281CBF6FF000414FF0FF3000F0CF
:100960003BBAADF1080C6DE904CE002909DB002B80
:100970001ADB00F0C9F8DDF804E0DDE9022304B079
:100980007047404261EB4101002B1BDB00F0BCF8DB
:10099000DDF804E0DDE9022304B0404261EB4101EF
:1009A000524263EB43037047524263EB430300F050
:1009B000ABF8DDF804E0DDE9022304B0404261EB6E
:1009C00041017047524263EB430300F09DF8DDF8AC
:1009D00004E0DDE9022304B0524263EB43037047B5
:1009E00053B94AB9002908BF00281CBF4FF0FF3196
:1009F0004FF0FF3000F0F0B9ADF1080C6DE904CE16
:100A000000F082F8DDF804E0DDE9022304B070476D
:100A1000430803F05533C01A830803F0333300F062
:100A20003330184400EB101000F00F3000EB0020C2
:100A300000EB0040000E704780EA104080EA102072
:100A400080EA101046F6961300F00F0043FA00F00B
:100A500000F00100704700BF08B502460B4643ECAA
:100A6000172BB5EEC07BF1EE10FA03D4BDE80840B9
:100A700000F02AB8B1EE477B51EC170B00F024F8D8
:100A8000404261EB410108BD9FED0B6B07EE900A00
:100A90009FED0B5BB7EEE77A27EE066BBCEEC66BFD
:100AA000B8EE464BA4EE457BFCEEC77B16EE101A63
:100AB00017EE900A704700BF000000000000F03DF4
:100AC000000000000000F0419FED0B6B41EC170BA4
:100AD0009FED0B5B27EE066BBCEEC66BB8EE464B8C
:100AE000A4EE457BFCEEC77B16EE101A17EE900ABB
:100AF000704700BFAFF30080000000000000F03D31
:100B0000000000000000F0412DE9F047089D044678
:100B10008E46002B4DD18A42944669D9B2FA82F2B0
:100B200052B101FA02F3C2F1200120FA01F10CFAEC
:100B300002FC41EA030E94404FEA1C48210CBEFB24
:100B4000F8F61FFA8CF708FB16E341EA034306FBAD
:100B500007F199420AD91CEB030306F1FF3080F03C
:100B60001F81994240F21C81023E63445B1AA4B289
:100B7000B3FBF8F008FB103344EA034400FB07F72B
:100B8000A7420AD91CEB040400F1FF3380F00A816C
:100B9000A74240F207816444023840EA0640E41B61
:100BA00000261DB1D4400023C5E900433146BDE80D
:100BB000F0878B4209D9002D00F0EF800026C5E9AF
:100BC000000130463146BDE8F087B3FA83F6002EC7
:100BD0004AD18B4202D3824200F2F980841A61EB3F
:100BE000030301209E46002DE0D0C5E9004EDDE75D
:100BF00002B9FFDEB2FA82F2002A40F09280A1EB45
:100C00000C014FEA1C471FFA8CFE0126200CB1FB99
:100C1000F7F307FB131140EA01410EFB03F0884292
:100C200008D91CEB010103F1FF3802D2884200F21F
:100C3000CB804346091AA4B2B1FBF7F007FB1011B1
:100C400044EA01440EFB00FEA64508D91CEB04044F
:100C500000F1FF3102D2A64500F2BB800846A4EBAA
:100C60000E0440EA03409CE7C6F12007B34022FA95
:100C700007FC4CEA030C20FA07F401FA06F31C43C4
:100C8000F9404FEA1C4900FA06F3B1FBF9F8200CD1
:100C90001FFA8CFE09FB181140EA014108FB0EF017
:100CA000884202FA06F20BD91CEB010108F1FF3A67
:100CB00080F08880884240F28580A8F10208614473
:100CC000091AA4B2B1FBF9F009FB101144EA014181
:100CD00000FB0EFE8E4508D91CEB010100F1FF342C
:100CE0006CD28E456AD90238614440EA0840A0FBC4
:100CF0000294A1EB0E01A142C846A64656D353D09A
:100D00005DB1B3EB080261EB0E0101FA07F722FABD
:100D100006F3F1401F43C5E9007100263146BDE8E6
:100D2000F087C2F12003D8400CFA02FC21FA03F349
:100D3000914001434FEA1C471FFA8CFEB3FBF7F0CA
:100D400007FB10360B0C43EA064300FB0EF69E42EF
:100D500004FA02F408D91CEB030300F1FF382FD288
:100D60009E422DD9023863449B1B89B2B3FBF7F630
:100D700007FB163341EA034106FB0EF38B4208D909
:100D80001CEB010106F1FF3816D28B4214D9023E4A
:100D90006144C91A46EA004638E72E46284605E768
:100DA0000646E3E61846F8E64B45A9D2B9EB020839
:100DB00064EB0C0E0138A3E74646EAE7204694E7C9
:100DC0004046D1E7D0467BE7023B614432E73046FC
:100DD00009E76444023842E7704700BF02E000F0D0
:100DE00000F8FEE772B63A4880F30888394880F385
:100DF000098839484EF60851CEF20001086040F2E9
:100E00000000CCF200004EF63471CEF20001086012
:100E1000BFF34F8FBFF36F8F40F20000C0F2F000BE
:100E20004EF68851CEF200010860BFF34F8FBFF33A
:100E30006F8F4FF00000E1EE100A4EF63C71CEF2DB
:100E400000010860062080F31488BFF36F8F0EF155
:100E5000CDF80EF161F80CF125FE4FF055301F4929
:100E60001B4A91423CBF41F8040BFAE71C49194A5E
:100E700091423CBF41F8040BFAE71A491A4A1B4B4E
:100E80009A423EBF51F8040B42F8040BF8E70020E9
:100E90001749184A91423CBF41F8040BFAE70EF19A
:100EA0007DF80CF137FF144C144DAC4203DA54F8C2
:100EB000041B8847F9E702F0E5F9114C114DAC42EB
:100EC00003DA54F8041B8847F9E70EF165B800000F
:100ED0000006003000220030000002080000003050
:100EE0000006003080AC1608002200305C2800307C
:100EF0006028003080E70130A00202087003020879
:100F000070030208700302082DE9F04F2DED108ADE
:100F1000C1F80CD0D0F80CD0BDEC108ABDE8F08F31
:100F2000002383F311882846A04700200CF1A2FB80
:100F3000FEE70CF119FA00DFFEE7000070B54FF094
:100F4000FF0C4CF4E06C1CEA11541DBF1CEA135555
:100F500094EA0C0F95EA0C0F00F0DEF82C4481EABD
:100F6000030621EA4C5123EA4C5350EA013518BFDD
:100F700052EA033541F4801143F4801338D0A0FBCA
:100F800002CE4FF00005E1FB02E506F00042E0FB77
:100F900003E54FF00006E1FB03569CF0000F18BF7D
:100FA0004EF0010EA4F1FF04B6F5007F64F5407425
:100FB00004D25FEA4E0E6D4146EB060642EAC621B8
:100FC00041EA55514FEAC52040EA5E504FEACE2E25
:100FD000B4F1FD0C88BFBCF5E06F1ED8BEF1004F28
:100FE00008BF5FEA500E50F1000041EB045170BDA4
:100FF00006F0004646EA010140EA020081EA0301E8
:10100000B4EB5C04C2BFD4EB0C0541EA045170BDE3
:1010100041F480114FF0000E013C00F3AB8014F15D
:10102000360FDEBF002001F0004170BDC4F10004A6
:10103000203C35DA0C341BDC04F11404C4F1200527
:1010400000FA05F320FA04F001FA05F240EA020082
:1010500001F0004221F0004110EBD37021FA04F6B8
:1010600042EB06015EEA430E08BF20EAD37070BD72
:10107000C4F10C04C4F1200500FA04F320FA05F0D1
:1010800001FA04F240EA020001F0004110EBD370D3
:1010900041F100015EEA430E08BF20EAD37070BD43
:1010A000C4F1200500FA05F24EEA020E20FA04F31C
:1010B00001FA05F243EA020321FA04F001F00041CB
:1010C00021FA04F220EA020000EBD3705EEA430E3C
:1010D00008BF20EAD37070BD94F0000F0FD101F06B
:1010E0000046400041EB010111F4801F08BF013CA4
:1010F000F7D041EA060195F0000F18BF704703F0E2
:101100000046520043EB030313F4801F08BF013D68
:10111000F7D043EA0603704794EA0C0F0CEA135524
:1011200018BF95EA0C0F0CD050EA410618BF52EADE
:101130004306D1D181EA030101F000414FF00000E4
:1011400070BD50EA410606BF1046194652EA4306F2
:1011500019D094EA0C0F02D150EA013613D195EA66
:101160000C0F05D152EA03361CBF104619460AD1AE
:1011700081EA030101F0004141F0FE4141F47001B8
:101180004FF0000070BD41F0FE4141F4780170BDA8
:101190004FEA410212F5001215D211D56FF478739F
:1011A000B3EB625212D94FEAC12343F0004343EA42
:1011B000505311F0004F23FA02F018BF404270471D
:1011C0004FF00000704750EA013005D111F00040A7
:1011D00008BF6FF0004070474FF00000704700BF3D
:1011E0004FEA4102B2F1E04324BFB3F5001CDCF149
:1011F000FE5C0DD901F0004C4FEAC0024CEA507081
:10120000B2F1004F40EB830008BF20F001007047AF
:1012100011F0804F21D113F13872BCBF01F00040B2
:10122000704741F480114FEA5252C2F11802C2F1E4
:10123000200C10FA0CF320FA02F018BF40F0010065
:101240004FEAC1234FEAD32303FA0CFC40EA0C0017
:1012500023FA02F34FEA4303CCE77FEA625307D154
:1012600050EA01331EBF4FF0FE4040F4400070478B
:1012700001F0004040F0FE4040F40000704700BF25
:1012800001F0FF01102A2BDB10F0070F08D010F837
:10129000013B013A8B422DD010F0070F42B3F6D13B
:1012A000F0B441EA012141EA014122F007047FF054
:1012B00000070023F0E80256083C85EA010586EAAB
:1012C000010685FA47F5A3FA87F586FA47F6A5FAE7
:1012D00087F68EB9EED1F0BC01F0FF0102F00702F3
:1012E00032B110F8013B013A83EA010313B1F8D19E
:1012F0000020704701387047002D06BF354603387F
:10130000073815F0010F07D1013015F4807F02BFB7
:10131000013015F4C03F0130F0BC0138704700BF08
:10132000EC46A0E8F05F4FF000007047B0E8F05FD7
:10133000E546080008BF0120704700BF10F8012BE8
:1013400011F8013B012A28BF9A42F7D0D01A704702
:10135000034613F8012B002AFBD1181A01387047F5
:10136000A8B110B504460AE000F08CFA14F8041C89
:1013700054E903031B1AB3FBF1F200F083FA204691
:1013800054F80C3B082201210133EDD110BD704708
:101390002DE9F04F0023A7B00293C36A009013F029
:1013A000040FD0E9002118BF0A46D9064FF0E0210A
:1013B000D3694CBF02F1200002F168000192DB0901
:1013C00003F0040303430393D1F8883D03F4A0031F
:1013D000B3F5A00F01D10123029393694FF00409E3
:1013E0004F4D4FF001081B884E4C03F47F43A3F58B
:1013F0003E43B3FA83F35B09049329E000F040F91C
:10140000FFF7AEFF4FF0E023D3F8003D03F4702365
:10141000B3F5402F0ED0444A4FF0FF3305A88DF8A6
:101420001C90059214328DF828800692CDE908337D
:10143000FFF796FF2B68A34206D03C4B0422012104
:1014400005A8059300F01EFA00F066FB00285ED1A7
:1014500003A82C6000F002FC04220121344800F0B3
:1014600011FA0422012102A800F00CFA1022012135
:10147000019800F007FA0098202201210C3000F0BA
:1014800001FA019804220121103000F0FBF9042236
:10149000012103A800F0F6F901980C220121143073
:1014A00000F0F0F90C220121009800F0EBF9029B0A
:1014B000DA07A3D5009BDB6ADB0622D415A80DF161
:1014C000140AFEF76FFFDDF804E0D4460EF12006A3
:1014D0000EF1600B3068103656F80C1C674656F853
:1014E000082C0CF1100C56F8043C5E450FC7F1D1E6
:1014F000DEF86030259384225046012100F0C2F9C5
:101500007CE70DF1140A5046FEF746FFF3E7049B13
:101510001BB1019A93690233936127B0BDE8F08F44
:1015200060280030ED55CEAC28ED00E0ACCE55ED96
:101530007C7F130838B526206D2509F16BFF144B0D
:10154000144A4FF0FF34D3F890100D2041F40031CD
:10155000C3F89010D3F8901021F40031C3F8901024
:10156000D3F89010D3F8E81041F40031C3F8E81034
:10157000D3F8101141F40031C3F810110121D3F850
:101580001031054BD56014621060197038BD00BF72
:1015900000440258004400408C2A0030002953D0F7
:1015A0002DE9F84F074689460026284DDFF8A4802C
:1015B000274C17F801AB2B784FEA1A1218F802B033
:1015C000002B3CD0C4F828B0E369580604D40DF1D0
:1015D00069FCE3695906FAD50AF00F0A2B7818F866
:1015E0000AA04BB3C4F828A0E3695A0604D40DF14D
:1015F00059FCE3695B06FAD50136B14522D03107C3
:10160000D7D12B784FF00D0BDFF84CA08BB1C4F87D
:1016100028B0E3695A0604D40DF144FCE3695B0683
:10162000FAD51AF801BFBBF1000FC2D02B78002BFE
:10163000EDD1FFF77FFFEAE7FFF77CFFD2E7FFF787
:1016400079FFBFE7BDE8F88F704700BF8C2A0030F4
:101650000044004004801308D8581408014B18684F
:10166000704700BFFCFF1F08014B0248C01A7047BB
:10167000E0B216080000200800487047E0B21608E3
:10168000724943F69822724B09682DE9F04F0A44DB
:101690001B7883B002EB03090BF116FD002800F064
:1016A0009B806C4F04466C4B0225DFF8D4810126E9
:1016B000FF1ADFF8C8A12EE0184601910DF140F89D
:1016C0000199A8BBE069AB460BF101030BEB4B0E94
:1016D00004F138058944DBB201440AEB8E0CB945AC
:1016E00003EB43034AF82E40CCF804500BF10205FB
:1016F0008CF808600AEB830CEDB24AF823008CF8F2
:101700000860CCF804104FD220460BF1EDFC0446E3
:10171000E8B13A2D1BD8E069404505D0211AA369EC
:10172000002BC9D1AB46CFE74C4BA3EB0801F6E742
:1017300005EB450C01350AEB8C005FFA85FB067260
:10174000A3694AF82C300D334360E069BCE7B7EB7E
:10175000090129D40BF1030B414E42482B465FFA95
:101760008BF5341A8C424CDC04EB090203EB430387
:10177000BF1A4AF8230001220AEB8303002F1A72D2
:101780003A465E6010DB3848384BC11A914205EB8F
:10179000450249DD01354AF822301F440AEB820335
:1017A000EDB201225F601A723B2D1ED94FF0FF335C
:1017B0000122CAF8C4328AF8CC22CAF8C8322C4BAB
:1017C0001B782BB12B4A2C4B12681B68CAE90023EB
:1017D0002A4803B0BDE8F08F1E4F1F4BFF1AB7EB2E
:1017E00009012BD50225DFF894A005EB45054FF044
:1017F000FF3201210AEB85034AF8252019725A604D
:10180000DDE703EB4303014401224AF823000AEB1E
:101810008303154859601A720022144B1746C11AE7
:10182000914205EB4502B5DC4AF8223001350AEB5E
:1018300082030122EDB258601A72B5E7084E032503
:1018400008480223DFF834A0341A8BE77C2A0030E2
:10185000542A003000002008E0B2160800220030B0
:1018600080E70130602800300000043080E701305C
:1018700000220030802A0030782A00300422003014
:10188000000600309A4B1B782DE9F04F824685B058
:101890000E4693462BB9974B1B782BBB05B0BDE882
:1018A000F08F022900F0EE80042900F0B5800129B4
:1018B00000F0AE80904D2B780D27DFF858828F4CCA
:1018C0007BB1A762E3695A0604D40DF1EBFAE36930
:1018D0005B06FAD518F8017F002FDCD02B78002B9F
:1018E000EFD1FFF727FEECE7854B4FF00009854A63
:1018F0009B1A0093CB45D1D0834F844C3868257810
:10190000031D009A2B44934279D2202D51D0022EF0
:1019100024D0042E0DD0012EECD12378DFF8F081F5
:101920005A1C22701AF8092009F1010908F803204D
:10193000E0E7DFF8DC810025434620789AF80010C4
:10194000421CE9400835D2B208F80010202A227063
:1019500018D0202DF1D109F10109CBE725789AF8AB
:101960000030DFF8AC8108F805300135EDB2202DEC
:10197000257030D06B1C09F101092370002308F891
:101980000530B7E738685F490192084419460CF101
:10199000A5FC39684FF00003019A203123705C4B9D
:1019A00039600021184612F16DFE0DF17BFA584B9B
:1019B000CFE7544B2A46564918440CF18FFC3B683C
:1019C00000212A462033524821703B6012F15AFE12
:1019D0000DF168FA9BE74B4B2A463868414618449C
:1019E0000CF17CFC3B6800212A46203340462170E4
:1019F0003B6012F147FE0DF155FA2578BAE7444AEB
:101A00004FF0FF312023D161237005B0BDE8F08F86
:101A10001146FFF7C3FD4DE7002A3FF44BAF0246E6
:101A20000027354D0DF10C0852F8043B334C009261
:101A300003930191013704214046FFF7AFFDBB45F9
:101A40001ED0009ABE0752F8043B00920393F1D1D6
:101A50002A780D26DFF8BC907AB1A662E3695806B1
:101A600004D40DF11FFAE3695906FAD519F8016F8C
:101A7000002EDFD02A78002AEFD1FFF75BFDECE7DC
:101A8000019E18E7002A3FF415AF024600271A4DC1
:101A90000DF10C0832F8023B184C0092ADF80C30F6
:101AA0000191013702214046FFF778FDBB45E7D0A1
:101AB000009A790732F8023B0092ADF80C30F0D171
:101AC0002A780D26DFF84C907AB1A662E3695A06AF
:101AD00004D40DF1E7F9E3695B06FAD519F8016F53
:101AE000002EDED02A78002AEFD1FFF723FDECE7A5
:101AF000552A0030002200308C2A0030004400407B
:101B000000002008E0B216087C2A0030542A003079
:101B1000582A0030D8581408F8B5324B1A782AB928
:101B2000314A1078F0B901221A70F8BD2F4E0D25F8
:101B30002F4F304C3B7893B1A562E3695A0604D429
:101B40000DF1B0F9E3695B06FAD516F8015F002DD7
:101B5000F0D1294B5868003818BF0120F8BDFFF7B5
:101B6000E9FCE9E7254D264E2B68264C26481A1D30
:101B70003178241A0A44A24206D239BB9C421CD8AE
:101B800000200CF155FCE4E7204A4FF0FF31D16111
:101B900020223270184420221C490CF19FFB2A6835
:101BA0003378002119481344202231702B6012F140
:101BB00069FD0DF177F92B68E0E7144920221448FC
:101BC000CB610CF18BFB0DF16DF9D9E703F120022C
:101BD0009442DFD81F29DDD80C4AD361202232700D
:101BE000D8E700BF552A003000220030807F13085C
:101BF0008C2A003000440040842A00307C2A0030C7
:101C0000542A003000002008E0B21608582A00309C
:101C1000E0FF1F080E4B1B7810B5B3B16421002004
:101C20000C4A0D4CD3699B06FCD5536ADBB28B4240
:101C30004FF0640101D00020F4E70130C0B20E285B
:101C400001D0015DEEE7002010BDFFF773FCE5E772
:101C50008C2A003000440040907F13082DE9F041A9
:101C600002680646EFF30581D9205369C9B28DF0A9
:101C70003FF9674B1B782BB9664C2378002B37D183
:101C8000BDE8F081644B0D27DFF8B081634D644CF3
:101C900096E8030083E803002B7833B3A762E36977
:101CA0005F0604D40DF1FEF8E3695806FAD518F87A
:101CB000017F002FF0D173680BB32B784227DFF838
:101CC0008081574C73B1A762E369590604D40DF1C2
:101CD000E9F8E3695A06FAD518F8017F1FB32B78A3
:101CE000002BF0D1FFF726FCEDE7FFF723FCD5E74B
:101CF0003568002D47D100232370BDE8F081DFF85F
:101D000044814327464C2B78002B6AD0A762E369B5
:101D10005B0604D40DF1C6F8E3695F06FAD518F83E
:101D2000017F002FEFD1DFF8208120273C4C2B785A
:101D3000002B53D0A762E369580604D40DF1B2F822
:101D4000E3695906FAD518F8017F002FEFD1FFF7A4
:101D500061FF2B78DFF8F4800D27314C83B1A76247
:101D6000E3695A0604D40DF19DF8E3695B06FAD5E0
:101D700018F8017F002F3FF47FAF2B78002BEED1B6
:101D8000FFF7D8FBEBE728460CF1DAFC0028B2D0CD
:101D900028460CF1FDFC00F21450854231D3214B52
:101DA000A5F214521A6028460CF108FD05F5E0531F
:101DB000834220D81C4A136000231C481C4A03603D
:101DC0001C481D49801A0B7002D10DE083420BD2D2
:101DD00052F8041B04330131F8D08CE7FFF7AAFB5B
:101DE000A8E7FFF7A7FB91E70DF15CF80120BDE83C
:101DF000F0410CF11DBB28460CF1E0FC0A4B1860C9
:101E0000DAE728460CF1C4FC064B1860CBE700BFAC
:101E1000552A003000220030842A00308C2A0030FD
:101E200000440040802A0030782A00307C2A0030AC
:101E3000E0B2160800002008542A0030A07F1308E2
:101E4000A87F1308FC7F1308B47F1308D858140820
:101E50000020704700207047704700BF704700BFE8
:101E6000704700BF704700BF0020704700207047D8
:101E70000020704701207047704700BF0020704766
:101E800000207047002070470020704700207047F6
:101E90000020704700207047704700BF0020704747
:101EA00000207047044B03F1F402D3F8EC00904299
:101EB00014BF042002207047986A00300020704749
:101EC000014B93F8EC0E7047984A0030704700BF02
:101ED00008B55CF0ADFE30B9034A92F8D43143F056
:101EE000040382F8D43108BD986A003038B5F7EEA3
:101EF000000A91ED000A0D4625F0BEFA90B9D5ED25
:101F0000007A9FED0B7AF0EEE77AF4EEC77AF1EE05
:101F100010FA01D4032038BD0446064802F092F8B6
:101F2000204638BD034802F079F8002038BD00BFD4
:101F300000000034982A0030014802F045B800BF84
:101F4000982A003008B516F0ABF90146B0220548D2
:101F500091F8E03202FB0311BDE80840CC3102F0F9
:101F600033B800BF982A003010B504460DF0B8FC15
:101F7000204610BD30B50C4683B01B4A06210546ED
:101F80005EF054FAA38BB72B09D0B3F5967F23D01C
:101F90002146284603B0BDE8304062F035B81E2225
:101FA0001249134802F062F8D4ED017A94ED007AF8
:101FB000FCEEE77A0D48BCEEC77A17EE903A8DED4D
:101FC000017A9AB29DF8041001F0DCFC002814BFDD
:101FD0000020042003B030BD02220649044802F06C
:101FE00045F8002003B030BD18801308B46B0030F2
:101FF000982A0030886B0030204B9FED216AA3F5B2
:10200000005210B593ED6E7A8AB0D3ED6D7A92F9E5
:102010000E2FB4EEC67AD3ED726AFDEEE77A002A8F
:10202000D3ED735A007C46FEA56AF1EE10FA17EE66
:10203000902AD3F8BC3111B21CD5BCEEC77A17EE8A
:10204000102A1FFA82FC00220493B7241A23039259
:102050000692079203AAADF82010ADF822103E2197
:10206000CDED056AADF824C0CDE900345BF04CFA43
:102070000AB010BD4FF6FF7CE5E700BF986A00305C
:1020800000FF7F4730B5164C8BB094F8DA2112B3BD
:10209000057C8CF0A5FFD4F8E4101C2300220390EB
:1020A000A4F5005C6820009301902846BCF8E4C3C6
:1020B000D4F8E85004912121D4F8E040ADF8242070
:1020C000ADF826C005950694CDE9072203AA5BF07A
:1020D0001BFA0BB030BD0BB0BDE830405DF076B8F8
:1020E000986A003070B5174DD5F8EC0003681B688E
:1020F000984704281ADC012822DC002814BF012498
:102100004124114B114A1E68706D03681B6A93428B
:1021100011D10F4BD5F8EC209A4205D0736D93F88E
:102120009C300BB144F08004204670BD0A2814BFD7
:1021300001241924E5E798470128EAD1204670BD1B
:102140001924DEE7986A0030902A0030511E0208F8
:102150008C6B003070B5414D8CB00446B5F8303F03
:10216000DA0703D49B073FD40CB070BD05F57D6141
:1021700005F6E47205F6D87309681B6804911168C6
:1021800002220693622305912121019319230091D4
:1021900005F6DC71007C09688DF8242003AA0791FC
:1021A00005F57E610968089105F6EC710968CDF8BE
:1021B000251005F6E8710968CDF8291005F6CC71EF
:1021C00009680391C2215BF09FF9207C5BF034F930
:1021D0000646207C5CF04EF900F121039E4236D386
:1021E000B5F8303F9B07BFD51D4962222125D1F8A4
:1021F00088300493D1F89C300192D1F8A000D1F836
:10220000A420CDF829000095D1F890000593032370
:102210000690D1F89400CDF8252003AA0790D1F8B4
:102220009800D1F884108DF8243019230890039178
:10223000C221207C5BF068F9207C5BF0FDF805464C
:10224000207C5CF017F900F121039D428CD2207CA8
:102250000CB0BDE870405AF083BA00BF984A003015
:10226000985A003005207047024BD3F8EC00036801
:102270001B681847986A003030B50C4627228BB08F
:102280000021E5786846954228BF154612F1FAF913
:1022900004F10C0168462A4612F1AAF91A4B03F11F
:1022A000FC02D3F8EC10914201D00BB030BDDDED53
:1022B000057A9FED167AF0EEE77AF4EEC77AF1EE42
:1022C00010FAF2D59DF8262002F041014129ECD107
:1022D0001106EAD402F018011829E6D0029982F01A
:1022E0000402049CC3F80411C2F38002039901980C
:1022F000C3F808110799C3F80C41C3F80001C3F8EB
:10230000141183F81021D0E7986A003000000034DF
:102310002DE9F0418A7A94B04B7A0C46054643EA9F
:102320000223CA7A43EA0243272B0CD81C2B14D968
:102330001D3B0A2B11D8DFE803F0171010102B10EB
:10234000101010425C00452B00F08880522B04D105
:1023500014B0BDE8F041FFF78FBF2146284614B006
:10236000BDE8F04162F0D6BBCA7800230C310AA860
:10237000102A28BF1022CDE90A33CDE90C3312F11F
:1023800037F90AA9694802F0CDF914B0BDE8F08127
:10239000CA7800230C310AA81C2A109328BF1C22DB
:1023A000CDE90A33CDE90C33CDE90E3312F120F932
:1023B0000AA95E4802F058F914B0BDE8F081CA7865
:1023C00000230C310AA8072A0A93CDF82B3028BF26
:1023D000072212F10DF9BDF92830002BD5D10123C8
:1023E0001A21284685F8D73114B0BDE8F0415EF0D7
:1023F000C1BDCE78262200210AA8964202AF28BF8E
:10240000164612F13FF904F10C010AA8324612F106
:10241000EFF838460CF0E6FC9DF84A30022B61D00C
:10242000032B2FD0002B5DD0022306AE8DF81A307F
:102430009922237A0021019204278DF8193032461F
:10244000E379287C8DF8183003238DF81B102F2199
:1024500000975BF059F814B0BDE8F081CA7800230A
:102460000C310AA80B2A28BF0B22CDE90A33CDF87C
:102470002F3012F1BDF80AA92C4802F09FF914B0D0
:10248000BDE8F0819FED2A6A06AEDDED106A0123FA
:102490009DED0F7ADDED0E7ADFED265A27EE067AF6
:1024A00067EE867A66EEA56AFDEEE66A0093BDEEFB
:1024B000C77A3046FDEEE77A16EE903A17EE102A0C
:1024C00017EE901A0CF0A6FC96E80F0087E80F00B4
:1024D00095F8D731CBB1BDF84480B8F1000F16D0D4
:1024E0000023A3E79FED126A06AEDDED106A00231C
:1024F0009DED0F7ADDED0E7ADFED0E5A27EE067AAE
:1025000067EE867A66EEA56ACEE701238EE7394646
:10251000064801F059FD0028F7D0074A0621284651
:102520005DF084FF434685F8D7817FE7982A003025
:102530008096184B0000C8422C80130830B51A4D05
:1025400085B095F8D9310BB105B030BDCA780C46CD
:1025500001A80C31092A8DF80C3028BF0922CDE9D9
:10256000013312F145F89DF808305A1F012AEBD9C2
:1025700003F0F703122BE7D0A5F50053B3F9EE2EC5
:1025800012B9E279A3F8EE2E227AE179074800F039
:10259000BBF8227AE179054800F0FEF8012385F8BE
:1025A000D93105B030BD00BF986A003028640030D2
:1025B000274B70B5B3F9EE3E88B005460E4614467B
:1025C0001BB192F807C063450ED1A27A637A43EA41
:1025D0000223E27A43EA02431D2B0AD0212B20D0AA
:1025E000D3B122463146284608B0BDE8704062F0BB
:1025F000DFBDE278002304F10C0101A8102A28BFF6
:102600001022CDE90133CDE9033311F1F1FF01A926
:10261000104802F087F8E4E721462846FFF78EFFCE
:10262000DFE7E278002304F10C0101A81C2A0793DC
:1026300028BF1C22CDE90133CDE90333CDE90533B1
:1026400011F1D6FF01A9034802F00EF8C9E700BF57
:10265000984A0030982A003000207047C820704700
:10266000012070470020704700207047012070470C
:10267000014B93F8EA0E7047984A0030D0E90512F2
:10268000C36941F4E05142F4E05243F4E053C0E93D
:102690000512C361704700BF10B582B04FF4EC70F3
:1026A000CDE900210DF016F90446DDE900215DF0C9
:1026B000E3F8024B2046236002B010BD04821308E9
:1026C00008B590F884308B4203D3223150F82100B2
:1026D00008BD54F07DFD17224FF4802154F026FDF3
:1026E000002008BD08B590F884308B4203D3223116
:1026F00050F8210008BD54F06BFD10224FF48021EA
:1027000054F014FD002008BD90F88430002B3FD019
:102710002DE9F04F002685B007468846914634469D
:102720004FF4837A16E01B4C01368DF80A8094F939
:102730000F4FCDF804E0CDF800C0ADF80840F4B27A
:102740008DF80B90ADF80CA05AF0DEFE97F88430AF
:10275000A3421AD920465AF06FFE834620465BF00A
:1027600089FE051D4FF0060C4FF0940EAB4502AAF2
:1027700063464FF042012046D5D2013659F0F0FFB2
:1027800097F88430F4B2A342E4D805B0BDE8F08FE6
:10279000704700BF984A003090F88430002B3FD03B
:1027A0002DE9F04F002685B007468846914634460D
:1027B00040F2011A16E01B4C01368DF80A8094F99C
:1027C0000F4FCDF804E0CDF800C0ADF80840F4B2EA
:1027D0008DF80B90ADF80CA05AF096FE97F8843067
:1027E000A3421AD920465AF027FE834620465BF0C2
:1027F00041FE051D4FF0060C4FF0940EAB4502AAAA
:1028000063464FF042012046D5D2013659F0A8FF69
:1028100097F88430F4B2A342E4D805B0BDE8F08F55
:10282000704700BF984A0030704700BF10B50023C2
:1028300084B09FED107A04460193039300F5804322
:10284000D3ED6F7A93ED6D0A67EE877A20EE070A73
:10285000CDED027A24F058FF42F2780001A98DED07
:10286000030A204402F0FCF804F004FC04F0C0FB6E
:1028700004B010BD0000C84270B5002386B010EE51
:10288000105A10EE904A019306460493CDF8133087
:10289000CDE90233A3238DF8043095238DF805305C
:1028A0008CF0A6FB0A46CDF8070043F2B00001A960
:1028B000CDF80B2013223044CDF80F50CDF8134043
:1028C00055F070FD06B070BD2DE9F0418AB00446A8
:1028D000884617460021232201A8109D1E4611F1AB
:1028E000D1FEA3238DF8043095238DF80530012304
:1028F0008DF806308CF07CFBCDF807002322686849
:102900002B68CDF81F0043F2B000CDF80B1001A9E1
:10291000CDF81B302044AB68CDF80F80CDF8137094
:10292000CDF81760CDF8233055F03CFD0AB0BDE876
:10293000F08100BF00F5804310B50446D3F8EC00E9
:1029400003681B689847014643F2B0001A22C9B2D7
:10295000204455F0E9FE04F54270BDE8104014F043
:10296000BDBA00BF034643F2B0009B2201491844A0
:1029700056F012BA10AB130870B542F6E86504467B
:10298000054404F50054284650F078FC18B1B4F919
:10299000E83E012B3DD0204B20491E68306C036877
:1029A0001B68984766F048FB4FF076FCB4F9E83EA8
:1029B0009FED1B7A0122013B2846A4F8E82E07EE82
:1029C000903AF8EEE77AF0EEE77AF4EEC77AF1EEB5
:1029D00010FA4CBF1146002150F0A4FB306C114995
:1029E00003681B6898478CF0EFFA044651F06CFDC1
:1029F000356C2B681E688CF0E7FA02460A492846B7
:102A0000121BB047B1EE0C0A0848BDE8704052F006
:102A1000BFB8014B1E68E6E7902A003000B91308E2
:102A20000000003424B913082CB9130844B9130862
:102A300000207047002070470069C0F340107047C5
:102A40000F2904D82C2303FB01001C307047002001
:102A5000704700BF01207047704700BF00207047DB
:102A6000002070470020704700207047002070470A
:102A7000002070470020704700207047704700BF5B
:102A800000207047002070470020704700207047EA
:102A900000207047002070470020704700207047DA
:102AA00000207047704700BF00207047002070472B
:102AB00000207047002070470020704700207047BA
:102AC000704700BF1020704700207047704700BF5C
:102AD0000320704701207047704700BF01207047F6
:102AE00000207047704700BF00F5804008B5D0F85F
:102AF000EC0003681B689847C0B208BD10B4054CD1
:102B000012200C604FF0FF3110705DF8044B19601B
:102B1000704700BF30C613080368D3F890301847D9
:102B20000020704700207047704700BF0DF06EBA5C
:102B30004BF064BC22F050B855F0B6BD07F0C8BEEB
:102B400061F0FCB862F088BC07F01CBC08F08EBFD6
:102B500000F04ABF00F044BF00F062BF01F00EBDBC
:102B600000F02EBF00F034BF00F0A0BFF8B53C4924
:102B700000F540533B4A05460160D3F8340BC3F8D7
:102B8000902908B10CF0B6FE374A05F500532A60CB
:102B900093F8182D42B9D3F8144D2CB1204620F0EB
:102BA00003FA20460CF09CFE41F6343441F61C3604
:102BB00005F5FD502C442E4484F00CFA14F8043C26
:102BC000083C3BB92768384627B120F0EDF9384674
:102BD0000CF086FEB442F1D141F6180005F6C4743B
:102BE00005F67C77284466F057FC204BC5F8403B3F
:102BF00014F8043C083C3BB92668304626B120F066
:102C0000D3F930460CF06CFEBC42F1D105F6984089
:102C100058F08CFB05F67C4058F088FB05F54660C3
:102C200058F084FB05F6CC3058F080FB05F53B608E
:102C300058F07CFB05F6943058F078FB0C4A95F878
:102C4000CC31C5F8E42043B9D5F8C8412CB12046B1
:102C500020F0AAF920460CF043FE2846F8BD00BF3C
:102C6000A0C7130828A4140830831408D029140816
:102C7000CCDC1308084B10B543F6A0341B680444A1
:102C80005B6D204693F89C1079F018FC2046BDE857
:102C9000104079F04DBB00BF902A003070B542F271
:102CA000780600F5005584B004460644304604F02A
:102CB000A3FA194BB5F8EA2E1A7065F0DFFB20462F
:102CC00001F0ACFD95F80035DB0711D5134E3368E4
:102CD0005A6D92F89C4014B195F8D12EB2B185F896
:102CE000D14E5A6D0E4B92F89C205A7104B070BDB3
:102CF00068460CF077F86946304602F0B3FC0028CD
:102D0000E4D06946204601F05FF9DFE78CF068F90E
:102D10003368C5F8D40EE2E740250030902A003031
:102D200060720030FFF7BABF10B50821044601F009
:102D300023FB78B90121204601F01EFBA0B9042134
:102D4000204601F019FBC0B91021204601F014FB08
:102D5000F0B910BD23F0E2FF21F024F90121204653
:102D600001F00AFB0028EAD02046FFF75FFD0421AE
:102D7000204601F001FB0028E6D043F2B0002044D9
:102D800054F0A0FB1021204601F0F6FA0028E0D014
:102D900043F2B0002044BDE8104054F02FBC00BF07
:102DA000FFF7C2BF034610290AD8DFE801F00F136E
:102DB000171B1F09090909092309090909090B003A
:102DC0000020704744F2F4001844704744F2F800C1
:102DD0001844704744F220101844704744F2181009
:102DE0001844704744F21C101844704744F2FC0029
:102DF0001844704744F2F00018447047E04B2DE946
:102E0000F041054686B040F8043B002466F08AFE97
:102E100005F1100009F0BCFA05F1A0000BF0CAF9A9
:102E2000D84B049505F51670059306AB05F50058CB
:102E3000D54F13E9060052F01DFC05F5427013F062
:102E4000B7F905F5D26006F07FFB05F2E4700FF0EC
:102E5000BBFC05F5346021F017FC41F29840284492
:102E600066F0BCFD41F26850284452F0E1F941F6A9
:102E70001800284466F0F8FA41F65400284409F096
:102E8000FFFB41F61010284479F040FC05F5FD5099
:102E900084F08CF841F6B870284452F07BFF42F27F
:102EA0000C00284468F040FA42F2140342F2240075
:102EB000B64A2B4488F81440284413604BF0D4F8E9
:102EC00042F278002146284401F04EFF42F6080005
:102ED000284478F02FF842F6140028446CF0D0FE15
:102EE00005F5215078F0C8FD42F6143028447FF0F3
:102EF00035FD42F62C4028447EF01EFD42F64C4043
:102F0000284481F069FF42F6C440284483F06CFBFA
:102F100042F62450284476F0F1FF42F688502844C7
:102F200001F0FAFC3E6888F8D04E002E40F0978100
:102F300042F6E8649649284605F5405850F022FBD1
:102F40002C44DFED944AB7EE005A934B04F1540041
:102F5000F0EE643A9FED914A2B60B0EE643AF0EEE9
:102F6000642A9FED8F2AF0EE640ADFED8E1A9FED42
:102F70008E1A9FED8E0A3D6076F0F0FDDFED854AFA
:102F8000B7EE005A9FED854A04F58670F0EE643A7C
:102F90009FED832AB0EE643ADFED821AF0EE642AE8
:102FA0009FED811AF0EE640A9FED800A76F0D6FD5F
:102FB00042F6387143F2B000C8F8AC60294443F2DD
:102FC000D014284443F2904655F09AF843F2B410D6
:102FD0002C442E442844764F63F050FF754BC8F8BC
:102FE000B431204664F09EF844F82C7BA642F8D118
:102FF000304643F6B01465F0EDFD43F66C1043F631
:1030000014262C44284458F09BFB43F67C102E4495
:10301000284458F095FB0023A8F88C39664BC8F873
:103020009039204614345EF017FEA642F9D11E22D4
:10303000002340F2CC60C8F8382BA8F83C3B0CF0D9
:1030400053FC034605F56D50C8F8343B88F020FC6E
:1030500043F68430284488F01BFC584B1A68002A39
:1030600000F0F880564B43F6A030002405F580466A
:10307000C8F89039284479F029F9524A02AB43F64E
:10308000F83040210094284444F278180027A844DE
:10309000CDE902520CCB08F053F944F2DC0028448D
:1030A0000BF0A0FE44F2F40347494FF07E522B444C
:1030B00044F22410C6F8F010C6F8EC302844434B14
:1030C000C6F80021C6F8F430414BC6F80C71C6F8BA
:1030D000F830404BC6F80871C6F8FC303E4BC6F8D5
:1030E0000471C6F818313D4BC6F81C313C4BC6F88C
:1030F00020318BF0EDFF08F104000BF073FE08F1B6
:1031000014000BF06FFE3749374B44F2D810C6F865
:10311000A471C6F8A8712844C6F8AC7119600B7880
:1031200043B1234601339BB203EB430211F8322033
:10313000002AF7D12D4A13802D4A13802D4B1A688F
:10314000002A40F08F8086F8D9210122186044F2CD
:10315000DC1086F8DA2144F23C2428444FF6FF774D
:1031600085F048F9244A254B44F27820C6F8DC2142
:103170002C44234A2844C6F85052C6E9953541E00C
:1031800030831408192B02084C730030388100304A
:103190004C82140800000000A0C71308CDCCCC3D21
:1031A00000007A450AD7A33CCDCC4C3DCDCC4C3E5B
:1031B00068C3130818C3130828A41408487C0030F7
:1031C000F4821308692B020840C81308B8C3130817
:1031D00088C8130874C813089CC81308CCC3130804
:1031E000E0C31308D8BB1308107300300C73003011
:1031F000E4720030BC7200307CC31308212B02083B
:10320000252B0208194BC6E99725C6F864320BF046
:10321000E9FD44F2942028440BF0E4FD44F2B02090
:1032200028440BF0DFFD124B04F19000A6F8C872A1
:10323000C6F8C4320BF0D6FD0E4B20460E491C607A
:1032400050F0A0F92846A6F87072A6F88C7206B065
:10325000BDE8F08143F690122A441A6002E707485D
:103260008BF08AFE06488BF087FE00BF292B0208F0
:103270000000FFFF247200309038140830C3130898
:1032800044C3130838B5054C0A46054B014624686B
:10329000256820462C68A047002038BD902A0030C1
:1032A000982A003010B5084C88F0BEFD074B024646
:1032B00020461A60FFF7A2FD2046054A0549BDE8F1
:1032C00010400DF1B1BA00BF982A0030902A0030AA
:1032D000FC1E01306D2B020810B52DED068B0C463F
:1032E000B0EE40AAF0EE60AA03F0C4FED0EDDA9A88
:1032F000D0F86C03F8EEE99A3AEE697AFDEEC78AE7
:1033000024F0B2F907EE900AB8EEE79A3AEEC98ACD
:10331000B0EE480A24F0C0F9FDEEC07A5CB117EEB9
:10332000903ADFED227A002BCCBF38EE678A38EE78
:10333000278AFDEEC87AB8EEE78A03F09BFEDFED40
:103340001C6AB8EEE87AD0EDF65A90EDF96A2AEEEA
:1033500026AAD0EDF77A69EEA69A6AEEA6AA154BD0
:1033600029EE269A66EE276AA3F5005265EEA77A43
:10337000A3F5805102F6CC7002F57D6266EE886A94
:10338000C1ED21AA67EE887A80ED00AAC2ED009A0D
:10339000E7EE256A81ED229AE6EE477AC3ED706A80
:1033A000C3ED717ABDEC068B10BD00BF00A00C47C9
:1033B0000AD7233C986A003038B52DED028B0D46B4
:1033C000F0EE608AB0EE408A144603F053FED0ED72
:1033D000F97AD0EDF76A90EDF67A67EEA67A67EEA5
:1033E000A87AE7EE087AC5ED007AD0EDF60AD0EDBE
:1033F000F77A90EDF97A67EEA07A67EEA80AE7EE21
:10340000480AC4ED000ABDEC028B38BD70B56A4CA9
:103410006A482DED068BB4F9283FB6EE00AADFED21
:10342000689A5B4208EE103A58F00EFAB4F9282F69
:103430000346B8EEC88A614807EE902AD3ED008AA9
:10344000F8EEE77A28EE298AD8EE0A8A27EEA98ACA
:1034500058F0FAF903465B48B4F92C6F93ED009AE3
:1034600058F0F2F90346574898EE0A9AB4F92E5FDD
:1034700093ED00AA58F0E8F990ED008A03F0FAFD08
:10348000D0EDF77A9FED507AF0EEE76AF4EEC76A76
:10349000F1EE10FA11D490EDF66A07EE106AD0ED55
:1034A000F95AC6EE276A85EEA76AB8EEC77A97EE94
:1034B00029AA66EEA88AEAEE068A03F0DBFDD0EDC3
:1034C000F77A9FED417AF0EEE76AF4EEC76AF1EE23
:1034D00010FA13D490EDF66A07EE105A90EDF95AEF
:1034E000C6EE276ADFED365A85EE276AB8EEC77A50
:1034F00097EE258A26EE899AA8EE069A03F0BAFD81
:10350000D0F86C0324F0B0F804F572642F4B08EE89
:10351000100A94ED007AD3ED6D7A9FED290A77EECB
:10352000877A27EE800A24F0B7F8B8EEC88A30EE22
:10353000480A24F0B1F8B5EEC00AF1EE10FA32DB19
:10354000DFED237AB0EE407A70EE677AF4EEE87A37
:10355000F1EE10FA04D5B4EEC97AF1EE10FA03DCFC
:103560000020BDEC068B70BDB5EEC00AF1EE10FA7E
:1035700008DD78EEE76A37EE496AF4EEC66AF1EEE6
:1035800010FA17D4B5EEC00AF1EE10FAE8D578EECD
:10359000E78A37EE497AF4EEC78AF1EE10FACCBF2B
:1035A00001200020DDE79FED0A7AF0EE407A30EE50
:1035B000077ACBE70120D4E7984A00300464003052
:1035C0000000C8421464003000000034986A0030E3
:1035D00000A00C4770B5394C0646A4F5875394ED0E
:1035E0006D0AA4F500552DED028BD3ED007ADFEDC9
:1035F000348A30EE270A20EE280A24F04DF8B5F977
:103600002E3FB0EE408A94ED6F7A01EE103A05F647
:1036100024730C2093ED000AB8EEC11AB5F92C3FC3
:1036200037EE000A00EE903AF8EEE00A24F0D4F803
:1036300060EE288A3046FFF7E9FEF0EE480AB0EE69
:10364000680A01463046FFF747FE03F013FDD0ED50
:10365000F77A90EDF66AD0EDF96A26EE277AB5F999
:103660002A3F26EEA70A002B67EE087A20EE080A0A
:10367000E6EEE87AA8EE860AB0EE678A0ADD07EE83
:10368000903A94ED6E7AF8EEE77AB4EEE77AF1EEDE
:1036900010FA0BDB0B4800F03FFBB0EE480A09487C
:1036A000BDEC028BBDE8704000F01EBC94F8783190
:1036B000002BEFD0BDEC028B70BD00BF986A0030CC
:1036C0000000C842982A003038B54F4C054694F89F
:1036D000D43113F0010229D1A4F500519FED4B7AAA
:1036E000D4ED6D7AB1F9FC1E00EE101AD906B8EED1
:1036F000C00A20EE070A67D437EE800A84ED6D0A0F
:10370000DFED437AB4EEE70AF1EE10FA05DD94F846
:10371000D43143F0100384F8D4312C209FED3C1AAF
:10372000DFED3C0A24F058F884ED6D0A94F8D431AA
:103730009A07C3F3400128D4374ADFED347AB2F94F
:10374000FE0E00EE100A1807B8EEC00A20EE270A97
:10375000D4ED6F7A1ED5B2F92C0F37EEC00A00EE09
:10376000900A84ED6F0AF8EEE00AB4EEE00AF1EE9A
:1037700010FA37D4B2F92E3F01EE103AB8EEC11A62
:103780003C2024F029F884ED6F0A2846BDE8384033
:10379000FFF720BFB2F92E1F30EE270A01EE101AF4
:1037A00084ED6F0AB8EEC11AB4EEC10AF1EE10FA58
:1037B00023DDB2F92C2F43F0080300EE902A84F8A1
:1037C000D431F8EEE00ADBE737EEC00AB5EEC00A06
:1037D00084ED6D0AF1EE10FA9FD562F3041384F8BC
:1037E000D4318DE7B2F92E2F61F3C30301EE102A15
:1037F00084F8D431B8EEC11AC2E7B2F92C3F00EE1A
:10380000903AF8EEE00ABBE7986A00300AD7A33C8A
:103810000000B44300000000984A00300A207047BE
:1038200001207047094B024693F8781161B993F86B
:10383000D91131B9A3F5005393F8343FDB0700D415
:1038400070471046FFF740BFFFF7C4BE986A0030CC
:10385000042070470120704730B504468BB08BF0D0
:10386000BFFB054607AB06AA05A9201D27F076F881
:10387000244A41F288311368EB1A8B4228D89FED15
:10388000227A2046DDED070A0021DDED067A60EEA2
:10389000870A9FED1E0A67EE877A60EE800A27EEA0
:1038A000800AFFF719FD09AA08A9DDED070A9DEDB9
:1038B000060A2046FFF780FD9DED080A144800F037
:1038C0002BFA9DED090A124800F00EFB0BB030BD3B
:1038D000156061F0E5FEDFED0C7A06219DED066ACC
:1038E0009DED077A26EE276A0A4A27EE277AB7EE79
:1038F000C66AB7EEC77A8DED026B8DED007B58F08E
:103900003BFCBCE7086F0030E02E65420000C84277
:10391000982A00304CC813080020704701207047D7
:1039200038B5134D134C286803681B68A34217D1A0
:103930001C30C188472064F08DFE472065F024F9D3
:10394000286803681B68A3420DD100F14803482092
:10395000D98864F07FFE4820BDE8384065F014B98E
:1039600000219847E5E7012198470346EFE700BFAC
:10397000507C0030412A0208022070470120704725
:10398000FFF7A2BE08B54B1EDBB2012B0DD873B1F9
:103990004820114664F05EFE482065F0F5F865F0B9
:1039A000A5F964F04DFD012008BD002008BD1146B9
:1039B000472064F04FFE472065F0E6F8EFE700BFD0
:1039C00008B563F0A9FBBDE8084063F08FBA00BFFB
:1039D000034642F278000021184402F0D1BB00BF38
:1039E00000F2E4700FF0A6BC10B5044610F050F8D9
:1039F00090F921305BB190F8543343B194F9083811
:103A00002BB1064B1B685B6D93F89C3003B110BD66
:103A100004F2E470BDE810400FF05EBB902A003065
:103A200038B5044600F5427014F012FB1D4A94F8B4
:103A3000E835106804EB0311D1F89C13884210D0CC
:103A400094F88E0668B9B02000FB034090F8C903D3
:103A5000022806D9144D11602A78012A02D9013AA8
:103A60002A7038BDFDD104F5804CDCF8E4202AB979
:103A7000DCF8E82012B905232B7038BDB0220CF118
:103A8000DC0C02FB034303F575730FCB8CE80F00CE
:103A900044F2DC012046214400F096FA00232B700A
:103AA00038BD00BF0C6F0030D4240030704700BF19
:103AB00030B59FED200A83B004468DED010A64F015
:103AC000DDFC04F500554721002064F06FFF48211C
:103AD000012064F06BFFB5F8281F472001EB81013E
:103AE00001EB8101490089B265F01AF8B5F92C3F64
:103AF000B5F92E1F4820C91A01EB810101EB8101A4
:103B0000490089B265F00CF865F0F0F864F098FCB3
:103B100043F66C109DED010A204457F019FE43F660
:103B20007C109DED010A204403B0BDE8304057F001
:103B30000FBE00BFCDCCCC3DF8B5054642F63C7774
:103B4000482005F500532F442DED028BB3F92C2F9F
:103B5000B3F92E3F02EB820203EB830302EB8202F6
:103B600003EB830396009C0064F0F6FE05F58043AA
:103B7000B0EE408A384693ED700A002176F0A4F842
:103B800007EE906A38EE008AF8EEE77AF4EEC87A2B
:103B9000F1EE10FA2ADA07EE904AF8EEE77AF4EE40
:103BA000C87AF1EE10FA27D905F540544820B0EE56
:103BB000480A64F0BDFE94F88D3943F67C1053B189
:103BC000B0EE480A2844DFED0F0ABDEC028BBDE8D9
:103BD000F84057F0D7BDB0EE480A284457F036FEFB
:103BE000012384F88D39BDEC028BF8BD3846B0EE68
:103BF000678A76F0FDF8CEE73846B0EE678A76F051
:103C0000F7F8D1E70AD7A33C00F5005200F5804051
:103C100002F6147102F61C7390ED707AD1ED007A01
:103C200093ED006AF0EEC76A67EE867AF4EEE76A13
:103C3000F1EE10FA2ED4B5EEC07AF1EE10FA24DDD2
:103C4000B2F92C3FDFED1B7A03EB830320EE270A4A
:103C500003EB83039B0007EE903AF8EEE77AB4EEAD
:103C6000E70AF1EE10FA1FDCB2F92E3F03EB8303F3
:103C700003EB83039B0007EE903AF8EEE77AF4EE4D
:103C8000C07AF1EE10FA0ADC7047DFED0A7A20EE16
:103C9000270AE9E79FED080A482064F049BE9FED36
:103CA000070A482064F044BE9FED050A482064F0EE
:103CB0003FBE00BF0000C8420000000000A00C464C
:103CC00000A00CC610B5044642F63C70002104F575
:103CD0008043204404F5005493ED700A75F0F4FF1E
:103CE000B4F92C3FB4F92E4F32218020E21A1B1B6D
:103CF00001FB02F201FB03F301EE102A00EE903A01
:103D0000B8EEC11AF8EEE00A23F066FD4820BDE8DF
:103D1000104064F00DBE00BF00F5005393F90C3F56
:103D2000012B03D0022B03D0FFF706BFFFF76CBFB8
:103D3000FFF7C8BF00F5005300F58042002170B5C1
:103D40002DED028BB3F9283F42F6F47692ED710A1D
:103D5000054603EB8303064403EB830330465C0014
:103D600075F0B2FF9FED2B1ADFED2B0ABF2023F079
:103D700033FDB0EE408A472064F0EEFDC02030EE07
:103D8000080A9FED241ADFED240A23F025FD634283
:103D900007EE903AF8EEE77AF4EEC07AF1EE10FA18
:103DA0002CDAB0EE408A07EE904AF8EEE77AF4EEAD
:103DB000C87AF1EE10FA27D905F540544720B0EE45
:103DC000480A64F0B5FD94F88C3943F66C1053B191
:103DD000B0EE480A2844DFED110ABDEC028BBDE8C5
:103DE000704057F0CFBCB0EE480A284457F02EFD83
:103DF000012384F88C39BDEC028B70BD3046B0EEE7
:103E0000678A75F0F5FFCEE73046B0EE678A75F049
:103E1000EFFFD1E700A08C4600A08CC60AD7A33CD8
:103E200000F5804300F500509FED157AD3ED717ACF
:103E300000F5716300F6187067EE877A93ED007AEB
:103E400090ED006AF0EEE76A27EE067AF4EEC76AB4
:103E5000F1EE10FA0ED4F5EEC07AF1EE10FA04DDB0
:103E60009FED080A472064F063BD9FED070A4720D5
:103E700064F05EBD9FED050A472064F059BD00BFA8
:103E80000AD7233C00A08C4600A08CC6000000008E
:103E900010B5044642F6F470002104F58043204436
:103EA00004F5005493ED710A75F00EFFB4F9282F54
:103EB0004FF6CE71F12002EB8203B1EE400A12FB05
:103EC00001F203EB830300EE902A5B00F8EEE00AB8
:103ED00001EE103AB8EEC11A23F07EFC4720BDE88F
:103EE000104064F025BD00BF00F5005393F90D3F6D
:103EF000012B03D0022B03D0FFF71CBFFFF790BFAD
:103F0000FFF7C6BFFEF716BD70B5114D88B0044669
:103F10000521284665F072F909210646284665F014
:103F20006DF9024601212846039204AD65F066F959
:103F300003460020039A3146009028460AF06AFFA3
:103F400095E80F0084E80F00012008B070BD00BFA5
:103F5000106F003070B50022194E0C460546114610
:103F6000304665F065F962683046012165F07CF9FC
:103F7000A2683046052165F077F90921E2683046EC
:103F800065F072F905F500529FED0E7A012492F961
:103F9000353F42F6357082F8354F013B284407EE35
:103FA000903AF8EEE77AF0EEE77AF4EEC77AF1EEBF
:103FB00010FA4CBF214600214FF0B4F8204670BDE6
:103FC000106F00300000003470B5054642F27806EC
:103FD00084B00C462E4468460AF004FF6946304619
:103FE00002F070FC20B12146304605F031FA78B17C
:103FF00021462846FFF7AEFF844648B144F2DC066E
:1040000094E80F002E4486E80F00604604B070BDAF
:104010004FF0000C604604B070BD00BF084B01219A
:104020001B6810B50446586D03681B68984743F237
:10403000B00001212044BDE8104054F093B900BF06
:10404000902A0030084B00211B6810B50446586DBB
:1040500003681B68984743F2B00000212044BDE884
:10406000104054F07FB900BF902A00302DE9F8438A
:1040700000F5005900F58046044689F8D02ED6F8A0
:10408000EC308B4231D0C6F8EC1008460B68154670
:1040900043F2B0085B689847184B0746A0441B687A
:1040A000586D03681B6817BB394698473946404628
:1040B00054F058F9D6F8EC0003681B68984701469D
:1040C0002A464046C9B254F02FFB43F69010002117
:1040D00020445DF0A9FDD9EDF97A9FED097AF8EE5B
:1040E000E77A67EE877AC6ED6D7ABDE8F88301213D
:1040F00098470121404654F035F9DBE7902A00301B
:104100000AD7233C2DE9F043044643F6A03083B0A0
:1041100043F69018204404F5D26978F0E5F804F1EC
:10412000100008F061F904F1A0000AF0A5F942F2CC
:104130002400A04441F6B876204442F278074AF0C1
:1041400041F943F6F83001226F4B204426449A711E
:104150002744DA7107F0A6F90823484604F500550C
:10416000C4F8A43605F0CCFF40465DF0BBFD204608
:10417000FEF7F8FB44F2241020448AF0B7FF0FF05A
:1041800087FC202383630FF083FC11F091FA022354
:10419000314604F54270C4F87C3312F04BF83846CF
:1041A00001F012F8002304F5346085F88935B4F97C
:1041B0009C1221B9B4F89A12A4F89C1209B289B2DF
:1041C00021F0FCFB384601F0C5F84846012106F015
:1041D0002FFA4E4B43F2B00000934D4B2044019315
:1041E00002AB13E9060054F0B1F80021304651F05B
:1041F00095FE62F091FF9922292163F0F3FF62F0AE
:104200008BFF62F04DFF2046FFF752FC04F53C5354
:104210009FED407AD3ED007AF0EEE76AF4EEC76ADC
:10422000F1EE10FA41D805F60473DFED3B6A93ED29
:10423000007AB0EEC76AB4EEE66AF1EE10FA34D84E
:10424000DFED366A04F5804267EEA67A27EE267A1D
:10425000FDEEE77ABDEEC77A17EE903AC2ED397AF5
:1042600082ED3A7A13B9D2F8E83043B32C4B4FF4CD
:104270007A711B68186D03685B68984795F9321F5F
:104280002046FEF78FFD0146C8B305F608751F22CC
:104290002046FFF7EBFED5ED007AF5EEC07AF1EEA1
:1042A00010FA16DC03B0BDE8F0831E4A0521404633
:1042B00057F062FF04F58042D2F8E430D2E795F976
:1042C000353F002BD2D044F2DC002044FFF71CFE27
:1042D000CCE78AF085FE04F54054034600214720D0
:1042E000C4F8AC3064F0EEF90021482064F0EAF93B
:1042F00064F0FCFC03B0BDE8F04364F0A1B844F204
:10430000F8012144C1E700BF60720030982A0030F4
:10431000053F02080000B442000034438096184B69
:10432000902A0030A8C8130808B50A2907D8DFE882
:1043300001F00F13171B1F060606060608000020D3
:1043400008BD44F2F0010144FFF790FE012008BDD2
:1043500044F2F8010144F7E744F220110144F3E785
:1043600044F218110144EFE744F21C110144EBE759
:1043700044F2FC010144E7E7034643F2B00018446D
:1043800053F08ABF0020704700207047002070471C
:104390000321014864F062BE106F0030F8B544F2AA
:1043A000181300F5804544F2DC0644F28C170344F0
:1043B000D5F8EC20044606449A42074403D095F809
:1043C000D431DA0732D5394630460AF0DDFEB7EE91
:1043D000C00B04F5005485ED6E0A94F90E3F012BD5
:1043E00039D0D5ED6C7ADFED2B6AF8EEE77A87EEFF
:1043F000A67AD5F8EC0085ED737A03681B689847B8
:10440000022812D095F8D4319B070ED494F90E3FB0
:10441000D5ED6E0A6BBB95ED720A0DF16DFADFED0D
:104420001E7A20EE270A85ED6F0AF8BD3946304620
:104430000BF0B6F9B6EE007B9FED146BA0EE067B99
:10444000DFED166ABDEEC77BB8EEC77A27EE267A97
:1044500085ED6D7AB7E7D5F89031D5F8E020DFED3E
:104460000D6A9B1A07EE903AF8EEE77A87EEA67A85
:10447000BFE795ED730A0DF13FFADFED077A20EE05
:10448000270A85ED6F0AF8BDAFF300800000000039
:104490009461B6400000C842E02E65420AD7233C32
:1044A00038B5054605F580442DED028B8AF08CFD6C
:1044B000D4F89C319FED217AF1EE047AC31A08EE0C
:1044C000103AB8EE488A28EE078AB4EEE78AF1EE91
:1044D00010FA05D4002384F87831BDEC028B38BD86
:1044E00004F5BE7304F5C67C0FCB8CE80F0094ED89
:1044F0006A1A44F28C1094ED690A28EE011A2844D5
:1045000028EE000AB7EEC11AB7EEC00A0BF09CF80D
:10451000D4ED647A94ED6B7A0123DFED096AF8EE4D
:10452000E77A84F8783127EE267AE7EE087AFDEE0E
:10453000E77AC4ED647ABDEC028B38BDBD378635B1
:104540000000C84230B585B004466D4628460AF0E2
:1045500049FC42F278002946204401F083F850B12A
:1045600004F58044002304F1DC0C84F8DA3195E88A
:104570000F008CE80F0005B030BD00BFF8B5044651
:10458000FFF78EFF04F580462046FFF7DBFF96F825
:10459000783113B12046FFF701FF04F5005707F605
:1045A0000875D5ED007AF5EEC07AF1EE10FA27DC49
:1045B000294B2A4A1C68606D03681B6A934236D1F6
:1045C00090F89C408CB997F9333F012B34D02146A9
:1045D000472064F03FF82146482064F03BF864F03F
:1045E00085FBBDE8F84063F02BBFD6F8EC0003680C
:1045F0009B68984764F07AFBBDE8F84063F020BF01
:1046000004F540548AF0ECFCDFED157AD4F8AC30B8
:1046100095ED007AC01A27EE277A07EE900AF8EE99
:10462000677AF4EEC77AF1EE10FAC1D5F8BD984773
:104630000128FBD0606DC3E79FED0A0A472064F0B4
:1046400077F99FED080A482064F072F964F04EFB98
:10465000BDE8F84063F0F4BE902A0030511E020815
:1046600000007A440000000070B500F580444B68FB
:104670002A4E0546C4F8843182B08B68DFED287A73
:10468000C4F88831CA6886FB0203D217C2EBA302C2
:10469000C4F880210B6986FB0326DB17C3EBA60356
:1046A000C4F8B031B1F9163006EE103AB1F918304D
:1046B00006EE903AB1F91430B8EEC66A07EE103A39
:1046C000F8EEE66AB8EEC77AC6EE275A86EEA76A13
:1046D000C7EE276AC4ED6A5A84ED6B6AC4ED696A55
:1046E0008AF072FCC4F89C018AF07AFC034602212D
:1046F0002846C4F8A031FFF73FFE08B902B070BDEC
:1047000044F2A416D4F8803128462E44D4E961122C
:104710000096FEF7D9F802B070BD00BF6766666606
:104720000000C84210B52DED028B90F8A13604466A
:10473000DFED207A00F5D26091ED018AC3EBC3036F
:1047400028EE278A00EBC30393ED090AF0EE480A2E
:1047500004F026FFB4EE400AF0EE400AF1EE10FA43
:104760001FD6F0EEC07A9FED147AF4EE477AF1EEA0
:1047700010FA16DC04F58043D3ED747A93F8D42153
:1047800077EE807A5107C3ED727A0AD5F1EE407A5E
:1047900000216FF38202C3F8C811C3ED747A83F865
:1047A000D421B0EE480A2046BDEC028BBDE8104093
:1047B000FEF762B80000C842FFFF7F7FB1F900201A
:1047C00000F58040002347F6FF7C07EE902AF8EEC4
:1047D000E77AC0ED6D7AB1F90220C0F8B83107EE82
:1047E000902A90F8D431F8EEE77AC0ED6F7AB1F9FB
:1047F0000020B2EB0C0218BF012262F3000380F824
:10480000D431B1F9023090F8D421B3EB0C0318BFC6
:10481000012363F3410280F8D421704710B500F5FD
:104820008044D4F8A03113B9084A137110BD8AF03E
:10483000D7FBD4F8A02141F28733801A034A98426B
:104840008CBF00230123137110BD00BF60720030C4
:1048500070B500F5804300F500541646D1200D4692
:104860002DED028BD3ED6F7AB7EE008AD3ED6D8A12
:1048700004F62473B4F92E2F93ED000AB4F92C3FFB
:1048800001EE102A30EE270A00EE903AB8EEC11A77
:10489000F8EEE00A22F0A0FFB4F92C2FB4F92E3F75
:1048A00007EE902A9B1AF8EEE77A30EE670A07EED9
:1048B000903A04F57263F8EEE77A30EE000A80EE83
:1048C000277A77EE487AC6ED007A93ED000A38EE43
:1048D000800A22F003FFB4F9283F30EE000A0120DD
:1048E00007EE103AB8EEC77AC0EE077A77EEC87ACC
:1048F000C5ED007ABDEC028B70BD00BF704700BFF4
:1049000000207047704700BF00207047704700BF0D
:1049100000207047704700BF10B504466830B0F003
:1049200099FB04F1E400B0F095FB4FF0FF33204613
:10493000C4F83C3110BD00BF014B1868704700BF80
:10494000146F003030B599B00024054604A80194D6
:10495000029403940AF046FA4FF07E5301A92846C8
:104960000B940A940994089301F0D6FC08B919B085
:1049700030BD04A9284601F09BFC0028F7D008A907
:10498000284600F09BFF0028F1D02D2200210CA822
:104990000FF178FE95224223A3218DF831208DF866
:1049A00032308DF830108AF023FB9FED2A6A9DED9E
:1049B000017ADDED027A27EE067ADFED276A67EEEF
:1049C000867A9DED030ACDF8330027EE267ACDF8DE
:1049D000371067EEA67A20EE060ABDEEC77AFDEE26
:1049E000E77A20EE260A17EE103AADF83B3017EEC4
:1049F000903AADF83D3022F087FEDDED057ABCEE51
:104A0000C00A9FED167AF8EEE77A069A079B089996
:104A100067EE877ACDF84520CDF8493010EE102AA0
:104A2000099BADF83F20CDF84D1017EE901A0A9A69
:104A3000CDF851300B9BCDF84110CDF85520CDF875
:104A4000593054F0ADFC2D220CA953F0ABFC19B039
:104A500030BD00BFE02E65420000C8420AD7233CAB
:104A600030B50023A3220D4604462DED028B89B0FC
:104A70009FED328ACDE90133CDE90333CDE905332A
:104A8000079344238DF8042095228DF806308DF885
:104A900005208AF0ADFA95ED017AD5ED007ABDEEEC
:104AA000C77AD4F86433FDEEE77A95ED020AADF8E3
:104AB000113017EE102AD4F86833CDF80B10ADF88A
:104AC000132017EE902ACDF80700ADF80F20ADF8AF
:104AD000153022F019FEBCEEC00AD4F86C0310EEBB
:104AE000103AADF8173022F025FE03462046ADF807
:104AF000193000F05DFC20EE080A2046BCEEC00A2A
:104B000010EE103AADF81B3000F058FC20EE080A09
:104B1000BCEEC00A10EE103AADF81D3002F0AAFA51
:104B200000F0AEFC8DF81F0054F03AFC1C2201A9E5
:104B300053F038FC09B0BDEC028B30BD0000C84218
:104B400030B5002387B01446A32200930D46059389
:104B50008DF800209522CDE90133CDE903334523BB
:104B60008DF801208DF802308AF042FAE26863681D
:104B70008DF80B50A568CDF807100593CDF803000C
:104B8000CDE9035254F00CFC1822694653F00AFC9C
:104B900007B030BD10B58EB0044602A80AF022F965
:104BA00002A9204600F05EFD08B90EB010BD02F06B
:104BB00061FA694601F0B2FF1F22002106A80FF139
:104BC00061FD95224623A3218DF819208DF81A3016
:104BD0008DF818108AF00CFADDED037A03469DED8E
:104BE000007A8C46F8EEE77ADFED186AB1EE477A84
:104BF000CDF81B300599204667EEA67A049A17EE89
:104C0000103ACDF8271001A9CDF81FC0CDF82F30EC
:104C100017EE903ACDF82320CDF82B3001F0F8FEB6
:104C200078B1DDED017AF1EE677A17EE903ACDF8C2
:104C3000333054F0B5FB1F2206A953F0B3FB0EB07E
:104C400010BD54F0ADFBDFED027AEEE70AD7233C4E
:104C50005241C07F704700BF002070472DE9F043EC
:104C60004FF07E539BB04FF0000904460D93CDF8F2
:104C70004090CDF83C90CDF8389080F0E5F90DA942
:104C800080F020F910B91BB0BDE8F08304F57D7702
:104C90000DA86D4604F597683946002625F086F97B
:104CA00004F2DC423946684623F05AF9BC460FCD7F
:104CB000ACE80F000FCDACE80F002B6804F557727D
:104CC00004F556713846CCF8003004F5587323F0DB
:104CD000EDFA204602F0F6FC204602F0D7FC04F57F
:104CE0008363C3F80890C3F80490C3F8009080F081
:104CF000ABF980F069F904F2244383ED000A04F56E
:104D00008563C3ED000A04F22C4383ED001A06EB21
:104D10004605013680F098F980F070F94246394630
:104D200011A804EB85058DED0A0ACDED0B0A8DED7A
:104D30000C1A23F015F90AA911A823F093F805F528
:104D40008665032E85ED000AC5ED010A85ED021A80
:104D5000DDD104F5866304F2544493E8070084E847
:104D600007001BB0BDE8F0832DE9F04F04464FF07B
:104D7000000A0D4604F5806904F20C4804F2AC46C2
:104D800004F5976704F2145B2DED028B8FB0F7EEFC
:104D9000008A2BF0EBF904F5B8702CF0E1F884F8F8
:104DA00074A304F55E709FEDF98A86F071FD04F539
:104DB0008363C4EDF68A5146C4EDF78A242284ED5C
:104DC000E88A04F5866084EDE98A84EDEA8A84ED58
:104DD000EB8A84EDEC8A84EDED8A84EDEE8A84ED35
:104DE000EF8A84EDF08AC4EDF88A84EDFD8A84EDC3
:104DF000FE8A84EDFF8A89ED008A89ED018A89EDBA
:104E0000028A88ED008A88ED018A88ED028A83EDA6
:104E1000008A83ED018A83ED028A04F2244383ED44
:104E2000008A83ED018A83ED028A0FF12BFC04F2E4
:104E3000544304F58F6083ED008A83ED018A83ED8E
:104E4000028A04F58C6383ED008A83ED018A83ED89
:104E5000028A4FF47A7384F8745404F2C445A4F8B7
:104E60006C3409F0BFFF04F2DC40039604F5946251
:104E7000039E4FF0030C019004F59A60C4F88CC4B3
:104E800004F59D6182ED008A04F2F44382ED018A0B
:104E900082ED028A86ED008A86ED018A86ED028A1D
:104EA00087ED008A87ED018A87ED028A85ED008A09
:104EB00085ED018A85ED028A04F5AC6580ED008AF6
:104EC00080ED018A80ED028A01980292242280ED11
:104ED000008A80ED018A80ED028A04F5A66081EDEA
:104EE000008A81ED018A81ED028A514683ED008AB4
:104EF00083ED018A83ED028AA54BC4F8143504F5CD
:104F00007173C4F8183504F57273C4F81C3504F5D0
:104F10007373C4F8203504F57473C4F8243504F2AF
:104F2000D533C4F8283504F57573C4F82C350FF162
:104F3000A9FB04F254535146242283ED008A04F560
:104F4000BF6083ED018A83ED028A04F26C5385ED24
:104F5000008A85ED018A85ED028A83ED008A83ED62
:104F6000018A83ED028A04F5AF6383ED008A83ED45
:104F7000018A83ED028A04F2845383ED008A83ED73
:104F8000018A83ED028A04F5B26383ED008A83ED22
:104F9000018A83ED028A04F29C5383ED008A83ED3B
:104FA000018A83ED028A04F2B45383ED008A83ED13
:104FB000018A83ED028A04F5B86383ED008A83EDEC
:104FC000018A83ED028A04F2CC5383ED008A83EDDB
:104FD000018A83ED028A04F5BB6383ED008A83EDC9
:104FE000018A83ED028A04F5BD6383ED008A83EDB7
:104FF000018A83ED028A0FF145FB24225146CBED55
:10500000448ACBED458A04F234600FF13BFB04F592
:10501000CB6304F2A46104F5D36083ED008A04F24B
:10502000746C83ED018A4FF07C5E83ED028A04F29A
:10503000BC63CCED008A8CED018A80ED008A80EDA6
:10504000018A80ED028A04F2D46081ED008A81ED4C
:10505000018A81ED028A83ED008A83ED018A83ED66
:10506000028ACBF8B4E104F2E46B09F0BBFE04F26F
:105070001C7E8BED008A04F5E56C8BED018A04F251
:10508000EC6B04F5E86304F234708BED008A514652
:105090008BED018A04F5E26A04F2F46B24228BEDB5
:1050A000008A8BED018AC5ED088AC5ED048AC5ED3D
:1050B000008A85ED028A85ED018A85ED058A85EDF8
:1050C000038A85ED078A85ED068A04F2B4458AEDE8
:1050D000008A8AED018A8AED028A8EED008A8EEDC1
:1050E000018A8EED028A8CED008A8CED018A8CEDAE
:1050F000028A80ED008A80ED018A80ED028A04F246
:105100004C7083ED008A83ED018A83ED028A0FF1F2
:10511000B9FA04F5EE6320461E4983ED008A83ED5B
:10512000018A83ED028A04F27C7383ED008A83EDA9
:10513000018A83ED028A184B1C604EF023FA04F2B8
:105140001443029A04F5966CC3ED008A04F20443FA
:10515000C3ED008A04F58163C4EDFD8A84EDFF8A06
:1051600084EDFE8A83ED008A04F5826389ED008A6E
:1051700083ED008A88ED008A07CA86E80700384672
:1051800095ED001A96ED000A08E000BF000000004F
:105190003CCC1308CCCA1308186F003004AEDCED09
:1051A000000A23F023F8394604A822F047FF019DA6
:1051B0000FCE0FC50FCE0FC5204633682B600FB042
:1051C000BDEC028BBDE8F08F10B590F99233012B46
:1051D0000BD0044600F21450C4F89C3401F096FF42
:1051E00070F0C8FEC4F8880710BD014807F0D4F974
:1051F000FCC8130870B500F5946600F2AC458CB09D
:1052000004463146284626F02BFC38BB04F596634D
:1052100096E8070085E8070004F5976104F2B442B8
:10522000D3ED000A084692ED001A95ED000A0191AF
:1052300022F0DCFF019902A822F000FF0DF1080E18
:1052400004F2DC4CBEE80F00ACE80F00BEE80F0033
:10525000ACE80F00DEF80030CCF800300CB070BDC8
:1052600000F22440704700BF00F57D70704700BF1A
:1052700000F58360704700BF10B5044682B040F26D
:10528000091204F55E7101A81DF0F6FC04F2145039
:1052900002F0BAFA20462BF08DF804F5B8702CF025
:1052A0002BF801A81DF014FD02B010BD2DE9F04F40
:1052B0000B6883B001F10C0500F57D76C0F858331A
:1052C00001F130094B6800F2244801F13C078C469B
:1052D000C0F85C3304468B6800F5866B01F1480A20
:1052E0004FF0000EC0F8603300F5836301930FCDDB
:1052F0000FC60FCD0FC62B68336099E8070088E80A
:10530000070097E80700019B83E807000AEB0E02FD
:105310000BEB0E030EF10C0E07CABEF1240F83E84F
:105320000700F3D10CF16C0204F254450CF1780C37
:1053300004F58C6307CA85E807009CE8070083E84A
:105340000700204602F0BEF9204603B0BDE8F04F4A
:1053500002F09CB910B5044682B04FF4307204F5E7
:105360005E7101A81DF088FC002104F2145002F0C7
:1053700043FD94F8F0333BB994F8F1336BB901A8CD
:105380001DF0A6FC02B010BD20462BF087FC94F85F
:10539000F13384F8F003002BF1D004F5B8702CF051
:1053A00093FD84F8F10301A81DF092FC02B010BD3A
:1053B00000F2145090ED440A704700BF00F2145000
:1053C00090ED450A704700BF10B590F9923304463E
:1053D000032B08DC012B18DC3BB990F87434DB0795
:1053E00003D4012010BD0B2B16D094F8F003002835
:1053F000F8D089F0F5FDD4F8702444F62063801AC3
:10540000984294BF0020012010BD032BEDD190F8ED
:10541000F1030028EDD110BD7FF016FEBDE810406D
:105420007FF04ABD10B590F992330C46032B09DC8E
:10543000012B19DC43B990F8743413F0010303D144
:10544000184610BD0B2B07D022464FF0FF312BF032
:10545000E3F80123184610BD7FF0F6FD21467FF0EA
:10546000ABFD0123184610BD032BEDD122464FF0B2
:10547000FF3100F5B8702CF069F90123184610BD12
:1054800070B590F9925384B00446032D0BDC012DC6
:1054900000F389804DB990F87434DD076BD4002592
:1054A000284604B070BD0B2D1DD094F8F033002BAE
:1054B000F5D094F87434D80761D420462AF0F4FE6D
:1054C0000028ECD094F8743303F0FD03012B68D16D
:1054D00003AA20464FF0FF312BF09EF8204602250C
:1054E0002BF074FB09E090F8744304F0FD04012CE8
:1054F000D6D103A9FFF796FF2046594B1C68636D70
:1055000093F89C30002B71D19DF80C30DA07C6D58A
:105510005C07C4D59806C2D5990703D5DA06BFD46F
:105520001B07BDD40EF0B4FA0DF00EFF0028B6D163
:1055300012F0B6FE90F8863390F8E022002BAED140
:10554000B02404FB020090F8C130022BA7D912F05E
:10555000A7FE90F8E032F0EE007A04FB030090ED35
:10556000377AB4EEE77AF1EE10FA98D59DF80D305F
:10557000DB0995D193E790F8F033002B8FD003AA85
:105580004FF0FF31204601922BF030F8BDF80C307F
:10559000002B84D194F87433019A03F0FD03012B9E
:1055A00097D002257CE7032D7FF47FAF94F8F13389
:1055B000002B3FF474AF94F8743404F5B876D9072F
:1055C00022D503AA4FF0FF31304601922CF0A8F803
:1055D000BDF80C30002B7FF462AF94F87433019A5D
:1055E00003F0FD03012B1CD0032559E79DF80D3076
:1055F0009B0603D59DF80C30DE0602D4D8B99DF881
:105600000C30DA0982D04AE730462BF0DBFD002867
:105610003FF445AF94F8743303F0FD03012BE3D15D
:1056200003AA30464FF0FF312CF090F830460325A6
:105630002BF0B8FF61E712F033FE90F8863390F854
:10564000E0223BB9B02303FB020090F8C130022BEB
:105650003FF625AF636D93F89C30002BCFD153E715
:10566000902A003038B504460D46FFF709FF0B2895
:105670000CD8DFE800F0110B061F0B0B0B0B0B0B0C
:105680000B18294620462AF0D9FED0B994F8743474
:10569000DB0701D5002038BD294604F21450BDE8CF
:1056A000384002F04BB97FF0CFFC2946BDE83840C6
:1056B0007FF03CBC294604F5B8702BF061FE002851
:1056C000E4D0012038BD00BF38B504460D46FFF7D1
:1056D000D7FE022803D0032809D0002038BD2A466F
:1056E00020464FF0FF31BDE838402AF03BBE2A4645
:1056F00004F5B8704FF0FF31BDE838402BF0C0BD65
:1057000070B582B004460E4640F2155200F55E7147
:1057100001A81DF0B1FA314620462AF0AFFE31460D
:10572000054604F5B8702BF04BFE034620461C4698
:10573000FFF7A6FE022803D003280CBF254600254C
:1057400001A81DF0C5FA284602B070BD08B5FFF7E4
:1057500097FE003818BF012008BD00BF38B50546C8
:105760000C46FFF78DFE03280AD00B2819D002281B
:105770000FD0214605F21450BDE8384002F0BAB807
:1057800005F5B87022464FF0FF312BF065FD012082
:1057900038BD284622464FF0FF312AF0CFFD0120C8
:1057A00038BD7FF051FC2146BDE838407FF0ECBBAE
:1057B00038B504460D46FFF763FE022803D00328E0
:1057C00007D0002038BD29462046BDE838402AF0E1
:1057D0008FBE294604F5B870BDE838402BF030BEC6
:1057E00010B590F992330446032B0CDC012B24DC1A
:1057F0005BB990F87434DB0707D400F21450BDE8AD
:10580000104002F0A1B90B2B04D094F8F0333BB94F
:10581000002010BD7FF018FCBDE810407FF046BBB3
:1058200020462AF041FD0028F2D094F8743303F0AA
:10583000FD03012B1CD0012010BD032BE5D194F8F2
:10584000F133002BE4D004F5B8702BF0BBFC00283A
:10585000DED094F8743303F0FD03012BEBD1204626
:10586000FFF70EFEA0F10300B0FA80F0400910BD72
:105870002046FFF705FEA0F10200B0FA80F04009D3
:1058800010BD00BF38B505460C46FFF7F9FD0328EB
:105890000BDC01280BDC70B995F99233032B07D090
:1058A000022B05D00B2B03D038BD0B2803D10023CE
:1058B0000120236038BD002038BD00BF70B584B022
:1058C0000D4606466946FFF7DDFF88B1009B04469A
:1058D0000B2B1BD8DFE803F0061A10341A1A1A1A19
:1058E0001A1A1A2B294606F2145002F01DF868B94C
:1058F0000024204604B070BD96F8F033002BF7D09A
:105900002A464FF0FF3130462AF03CFE06F59460FF
:1059100026F0E0F8284601A98DED010ACDED020A36
:105920008DED031A25F050F9204604B070BD7FF0CC
:105930008BFB29467FF0C6FA0446204604B070BDB2
:1059400096F8F133002BD3D02A464FF0FF3106F5FD
:10595000B8702BF0BFFDD9E710B5002388B004461E
:10596000059306930793FFF78BFD032811D00B28AF
:1059700030D002281ED004F2145001F067FC8DEDE7
:10598000030ACDED040ADDED040A9DED030A08B01B
:1059900010BD05AA4FF0FF3104F5B8702BF05CFC88
:1059A000069A059B04920393DDED040A9DED030A1C
:1059B00008B010BD05AA4FF0FF3120462AF0BEFC0A
:1059C000069A059B04920393DDED040A9DED030AFC
:1059D00008B010BD7FF038FB7FF0C0FA8DED030AF0
:1059E000CDED040ADDED040A9DED030A08B010BDFB
:1059F00010B582B00446FFF743FD60B904F21450BD
:105A000001F024FC68468DED000ACDED010A25F079
:105A10007DFF02B010BD2046FFF79EFF68468DED6A
:105A2000000ACDED010A25F071FF02B010BD00BFE4
:105A30002DE9F04F90F8F03395B0044653B120466D
:105A40002AF0F4FE2046FFF71BFD02282BD015B0EC
:105A5000BDE8F08FD0F87034002B00F08580984BB3
:105A6000984A1B68586D03685B68934240F08180D8
:105A700089F0B6FAD4F8702441F28733801A98423C
:105A800040F2108189F0ACFAD4F87024B4F86C3488
:105A9000801A984200F2FD8094F8F0030028CED1DD
:105AA00015B0BDE8F08F04F57D7B0026204604F597
:105AB000836559460596069607962AF039FD4FF0FC
:105AC000FF3105AA20462AF01FFD069B059A2046B5
:105AD000C4F85C33079BC4F85823C4F8603301F062
