:020000040802F0
:1000000000060030DD0D0208EDC70A087103020882
:1000100069C70A0861C70A0865C70A08DF0D020830
:10002000DF0D0208DF0D0208DF0D0208E580110870
:10003000DF0D0208DF0D0208DF0D0208DF0D0208E8
:10004000DF0D0208DF0D0208DF0D0208DF0D0208D8
:10005000DF0D0208DF0D0208F10212081D0312086D
:100060004903120875031208A1031208958F11089D
:10007000BD8F1108E98F11081590110841901108E2
:100080006990110895901108A18B1108218D0A081B
:100090006D8E0A08F58D0A08418F0A08CD031208F3
:1000A000DF0D02081D051208DF0D020831051208D8
:1000B00045051208DF0D020859051208C9981108F4
:1000C0007D991108659A1108199B110851A9110809
:1000D00065A91108DF0D0208A5041208B904120869
:1000E00031041208DF0D0208DF0D0208DF0D0208DF
:1000F000DF0D0208DF0D0208DF0D0208C1901108B4
:10010000DF0D0208E9A111086D051208DF0D0208D4
:10011000CD041208DF0D0208DF0D0208DF0D020812
:10012000ED90110815911108419111086D91110878
:1001300099911108DF0D0208DF0D0208DF0D02089A
:10014000DF0D0208DF0D0208DF0D0208DF0D0208D7
:10015000C1911108ED91110819921108E1041208DA
:10016000DF0D0208DF0D0208DF0D0208DF0D0208B7
:10017000DF0D02083DFF1108DF0D0208DF0D020848
:10018000DF0D0208DF0D0208F50412080905120848
:1001900079A91108DF0D0208DF0D0208DF0D020842
:1001A000DF0D0208DF0D0208DF0D0208DF0D020877
:1001B000DF0D0208DF0D0208DF0D0208DF0D020867
:1001C000DF0D0208DF0D0208DF0D0208DF0D020857
:1001D000DF0D020829FF1108DF0D0208DF0D0208FC
:1001E000DF0D0208DF0D0208DF0D0208DF0D020837
:1001F000DF0D0208DF0D0208DF0D0208DF0D020827
:10020000DF0D0208DF0D0208DF0D0208DF0D020816
:10021000DF0D0208DF0D0208DF0D0208DF0D020806
:10022000DF0D0208DF0D0208DF0D0208DF0D0208F6
:10023000DF0D0208DF0D0208DF0D0208C18B110877
:10024000DF0D0208458D11086D8D1108998D11087B
:10025000C58D1108F18D11081D8E1108498E1108E8
:10026000758E1108DF0D0208DF0D0208DF0D020890
:10027000DF0D0208DF0D0208DF0D0208DF0D0208A6
:10028000DF0D0208DF0D0208DF0D0208DF0D020896
:10029000DF0D0208DF0D0208DF0D0208DF0D020886
:1002A000F92F0208C1C602080DD302086DFD02082D
:1002B0006D0A0308116A0308B59303086DE8030883
:1002C00065F20608D12407082D2907089946070872
:1002D000A1B9070839C20708D5C50708E14E0808C3
:1002E00059730808751D090859300908253F090880
:1002F000C1700A08B98F0A087D920A089D970A08FA
:1003000071C10A08855C0C08ED5F0C086D600C0873
:10031000C9600C0869680C080D730C0845730C085B
:1003200071880C0811D80C08550D0D08E11B0D083B
:100330007D1C0D0885590D0875BE0D08A9C10D0855
:10034000F94B0F08D14C0F08414E0F08F5500F081C
:1003500041520F087D760F08AD0510083D121008B8
:10036000494E100825581008599D1008000000003B
:10037000EFF30383EFF30982EFF30881DFF814D082
:100380002DE9FE4F684601F003F8BDE8FE4F8D46AB
:1003900070470000542A0030F1EE101AA0EC200A39
:1003A00001607047A0EC108A704700BF81F00041E7
:1003B00002E000BF83F0004330B54FEA41044FEA4A
:1003C000430594EA050F08BF90EA020F1FBF54EAE5
:1003D000000C55EA020C7FEA645C7FEA655C00F081
:1003E000E2804FEA5454D4EB5555B8BF6D420CDD52
:1003F0002C4480EA020281EA030382EA000083EAD5
:10040000010180EA020281EA0303362D88BF30BD74
:1004100011F0004F4FEA01314FF4801C4CEA1131CA
:1004200002D0404261EB410113F0004F4FEA033329
:100430004CEA133302D0524263EB430394EA050FB4
:1004400000F0A780A4F10104D5F1200E0DDB02FA23
:100450000EFC22FA05F2801841F1000103FA0EF2B7
:10046000801843FA05F359410EE0A5F120050EF17D
:10047000200E012A03FA0EFC28BF4CF0020C43FAAE
:1004800005F3C01851EBE37101F0004507D54FF0BB
:10049000000EDCF1000C7EEB00006EEB0101B1F50B
:1004A000801F1BD3B1F5001F0CD349085FEA300051
:1004B0004FEA3C0C04F101044FEA445212F5800F5C
:1004C00080F09A80BCF1004F08BF5FEA500C50F1F9
:1004D000000041EB045141EA050130BD5FEA4C0CDC
:1004E000404141EB0101013C28BFB1F5801FE9D239
:1004F00091F0000F04BF01460020B1FA81F308BF5C
:100500002033A3F10B03B3F120020CDA0C3208DD27
:1005100002F1140CC2F10C0201FA0CF021FA02F102
:100520000CE002F11402D8BFC2F1200C01FA02F172
:1005300020FA0CFCDCBF41EA0C019040E41AA2BF97
:1005400001EB0451294330BD6FEA04041F3C1CDA5F
:100550000C340EDC04F11404C4F1200220FA04F07F
:1005600001FA02F340EA030021FA04F345EA030129
:1005700030BDC4F10C04C4F1200220FA02F001FAEB
:1005800004F340EA0300294630BD21FA04F029466D
:1005900030BD94F0000F83F4801306BF81F4801106
:1005A0000134013D4EE77FEA645C18BF7FEA655C79
:1005B00029D094EA050F08BF90EA020F05D054EA4B
:1005C000000C04BF1946104630BD91EA030F1EBF50
:1005D0000021002030BD5FEA545C05D14000494154
:1005E00028BF41F0004130BD14F580043CBF01F547
:1005F000801130BD01F0004545F0FE4141F470012D
:100600004FF0000030BD7FEA645C1ABF1946104607
:100610007FEA655C1CBF0B46024650EA013406BF08
:1006200052EA033591EA030F41F4002130BD00BFC7
:1006300090F0000F04BF0021704730B54FF4806484
:1006400004F132044FF000054FF0000150E700BF05
:1006500090F0000F04BF0021704730B54FF4806464
:1006600004F1320410F0004548BF40424FF0000151
:100670003EE700BF42004FEAE2014FEA31014FEA94
:1006800002701FBF12F07F4393F07F4F81F06051E3
:10069000704732F07F4208BF704793F07F4F04BF2E
:1006A00041F40021704730B54FF4607401F000450B
:1006B00021F000411CE700BF50EA010208BF70476B
:1006C00030B54FF000050AE050EA010208BF70475C
:1006D00030B511F0004502D5404261EB41014FF4C5
:1006E000806404F132045FEA915C3FF4D8AE4FF0CD
:1006F00003025FEADC0C18BF03325FEADC0C18BFB0
:10070000033202EBDC02C2F1200300FA03FC20FA00
:1007100002F001FA03FE40EA0E0021FA02F114444D
:10072000BDE600BF80F0004002E000BF81F0004164
:1007300042001FBF5FEA410392EA030F7FEA226C87
:100740007FEA236C6AD04FEA1262D2EB1363C1BF17
:10075000D218414048404140B8BF5B42192B88BF86
:10076000704710F0004F40F4000020F07F4018BFA9
:10077000404211F0004F41F4000121F07F4118BFC9
:10078000494292EA030F3FD0A2F1010241FA03FC71
:1007900010EB0C00C3F1200301FA03F100F0004359
:1007A00002D5494260EB4000B0F5000F13D3B0F121
:1007B000807F06D340084FEA310102F10102FE2A90
:1007C00051D2B1F1004F40EBC25008BF20F0010000
:1007D00040EA03007047490040EB0000013A28BF9F
:1007E000B0F5000FEDD2B0FA80FCACF1080CB2EB22
:1007F0000C0200FA0CF0AABF00EBC25052421843A0
:10080000BCBFD0401843704792F0000F81F4000144
:1008100006BF80F400000132013BB5E74FEA410317
:100820007FEA226C18BF7FEA236C21D092EA030F83
:1008300004D092F0000F08BF0846704790EA010FFD
:100840001CBF0020704712F07F4F04D1400028BF2A
:1008500040F00040704712F100723CBF00F500000C
:10086000704700F0004343F0FE4040F40000704742
:100870007FEA226216BF08467FEA236301464202EE
:1008800006BF5FEA412390EA010F40F48000704701
:100890004FF0000304E000BF10F0004348BF4042A7
:1008A0005FEA000C08BF704743F0964301464FF0E3
:1008B00000001CE050EA010208BF70474FF000033F
:1008C0000AE000BF50EA010208BF704711F0004380
:1008D00002D5404261EB41015FEA010C02BF844650
:1008E0000146002043F0B64308BFA3F18053A3F5AF
:1008F0000003BCFA8CF2083AA3EBC25310DB01FAF6
:1009000002FC634400FA02FCC2F12002BCF1004F79
:1009100020FA02F243EB020008BF20F0010070470A
:1009200002F1200201FA02FCC2F1200250EA4C005E
:1009300021FA02F243EB020008BF20EADC707047A4
:100940007BB972B90029BEBF00204FF0004106E01C
:1009500008BF00281CBF6FF000414FF0FF3000F0CF
:100960003BBAADF1080C6DE904CE002909DB002B80
:100970001ADB00F0C9F8DDF804E0DDE9022304B079
:100980007047404261EB4101002B1BDB00F0BCF8DB
:10099000DDF804E0DDE9022304B0404261EB4101EF
:1009A000524263EB43037047524263EB430300F050
:1009B000ABF8DDF804E0DDE9022304B0404261EB6E
:1009C00041017047524263EB430300F09DF8DDF8AC
:1009D00004E0DDE9022304B0524263EB43037047B5
:1009E00053B94AB9002908BF00281CBF4FF0FF3196
:1009F0004FF0FF3000F0F0B9ADF1080C6DE904CE16
:100A000000F082F8DDF804E0DDE9022304B070476D
:100A1000430803F05533C01A830803F0333300F062
:100A20003330184400EB101000F00F3000EB0020C2
:100A300000EB0040000E704780EA104080EA102072
:100A400080EA101046F6961300F00F0043FA00F00B
:100A500000F00100704700BF08B502460B4643ECAA
:100A6000172BB5EEC07BF1EE10FA03D4BDE80840B9
:100A700000F02AB8B1EE477B51EC170B00F024F8D8
:100A8000404261EB410108BD9FED0B6B07EE900A00
:100A90009FED0B5BB7EEE77A27EE066BBCEEC66BFD
:100AA000B8EE464BA4EE457BFCEEC77B16EE101A63
:100AB00017EE900A704700BF000000000000F03DF4
:100AC000000000000000F0419FED0B6B41EC170BA4
:100AD0009FED0B5B27EE066BBCEEC66BB8EE464B8C
:100AE000A4EE457BFCEEC77B16EE101A17EE900ABB
:100AF000704700BFAFF30080000000000000F03D31
:100B0000000000000000F0412DE9F047089D044678
:100B10008E46002B4DD18A42944669D9B2FA82F2B0
:100B200052B101FA02F3C2F1200120FA01F10CFAEC
:100B300002FC41EA030E94404FEA1C48210CBEFB24
:100B4000F8F61FFA8CF708FB16E341EA034306FBAD
:100B500007F199420AD91CEB030306F1FF3080F03C
:100B60001F81994240F21C81023E63445B1AA4B289
:100B7000B3FBF8F008FB103344EA034400FB07F72B
:100B8000A7420AD91CEB040400F1FF3380F00A816C
:100B9000A74240F207816444023840EA0640E41B61
:100BA00000261DB1D4400023C5E900433146BDE80D
:100BB000F0878B4209D9002D00F0EF800026C5E9AF
:100BC000000130463146BDE8F087B3FA83F6002EC7
:100BD0004AD18B4202D3824200F2F980841A61EB3F
:100BE000030301209E46002DE0D0C5E9004EDDE75D
:100BF00002B9FFDEB2FA82F2002A40F09280A1EB45
:100C00000C014FEA1C471FFA8CFE0126200CB1FB99
:100C1000F7F307FB131140EA01410EFB03F0884292
:100C200008D91CEB010103F1FF3802D2884200F21F
:100C3000CB804346091AA4B2B1FBF7F007FB1011B1
:100C400044EA01440EFB00FEA64508D91CEB04044F
:100C500000F1FF3102D2A64500F2BB800846A4EBAA
:100C60000E0440EA03409CE7C6F12007B34022FA95
:100C700007FC4CEA030C20FA07F401FA06F31C43C4
:100C8000F9404FEA1C4900FA06F3B1FBF9F8200CD1
:100C90001FFA8CFE09FB181140EA014108FB0EF017
:100CA000884202FA06F20BD91CEB010108F1FF3A67
:100CB00080F08880884240F28580A8F10208614473
:100CC000091AA4B2B1FBF9F009FB101144EA014181
:100CD00000FB0EFE8E4508D91CEB010100F1FF342C
:100CE0006CD28E456AD90238614440EA0840A0FBC4
:100CF0000294A1EB0E01A142C846A64656D353D09A
:100D00005DB1B3EB080261EB0E0101FA07F722FABD
:100D100006F3F1401F43C5E9007100263146BDE8E6
:100D2000F087C2F12003D8400CFA02FC21FA03F349
:100D3000914001434FEA1C471FFA8CFEB3FBF7F0CA
:100D400007FB10360B0C43EA064300FB0EF69E42EF
:100D500004FA02F408D91CEB030300F1FF382FD288
:100D60009E422DD9023863449B1B89B2B3FBF7F630
:100D700007FB163341EA034106FB0EF38B4208D909
:100D80001CEB010106F1FF3816D28B4214D9023E4A
:100D90006144C91A46EA004638E72E46284605E768
:100DA0000646E3E61846F8E64B45A9D2B9EB020839
:100DB00064EB0C0E0138A3E74646EAE7204694E7C9
:100DC0004046D1E7D0467BE7023B614432E73046FC
:100DD00009E76444023842E7704700BF02E000F0D0
:100DE00000F8FEE772B63A4880F30888394880F385
:100DF000098839484EF60851CEF20001086040F2E9
:100E00000000CCF200004EF63471CEF20001086012
:100E1000BFF34F8FBFF36F8F40F20000C0F2F000BE
:100E20004EF68851CEF200010860BFF34F8FBFF33A
:100E30006F8F4FF00000E1EE100A4EF63C71CEF2DB
:100E400000010860062080F31488BFF36F8FFEF066
:100E5000F3FAFEF087FAFDF04BF84FF055301F49DA
:100E60001B4A91423CBF41F8040BFAE71C49194A5E
:100E700091423CBF41F8040BFAE71A491A4A1B4B4E
:100E80009A423EBF51F8040B42F8040BF8E70020E9
:100E90001749184A91423CBF41F8040BFAE7FEF0AB
:100EA000A3FAFDF05DF9144C144DAC4203DA54F88A
:100EB000041B8847F9E702F08FF8114C114DAC4242
:100EC00003DA54F8041B8847F9E7FEF08BBA0000F8
:100ED0000006003000220030000002080000003050
:100EE00000060030A8A31508002200305C2800305E
:100EF00060280030E0E70130A00202086C0302081D
:100F00006C0302086C0302082DE9F04F2DED108AE6
:100F1000C1F80CD0D0F80CD0BDEC108ABDE8F08F31
:100F2000002383F311882846A0470020FCF0C8FD69
:100F3000FEE7FCF03FFC00DFFEE7000070B54FF07D
:100F4000FF0C4CF4E06C1CEA11541DBF1CEA135555
:100F500094EA0C0F95EA0C0F00F0DEF82C4481EABD
:100F6000030621EA4C5123EA4C5350EA013518BFDD
:100F700052EA033541F4801143F4801338D0A0FBCA
:100F800002CE4FF00005E1FB02E506F00042E0FB77
:100F900003E54FF00006E1FB03569CF0000F18BF7D
:100FA0004EF0010EA4F1FF04B6F5007F64F5407425
:100FB00004D25FEA4E0E6D4146EB060642EAC621B8
:100FC00041EA55514FEAC52040EA5E504FEACE2E25
:100FD000B4F1FD0C88BFBCF5E06F1ED8BEF1004F28
:100FE00008BF5FEA500E50F1000041EB045170BDA4
:100FF00006F0004646EA010140EA020081EA0301E8
:10100000B4EB5C04C2BFD4EB0C0541EA045170BDE3
:1010100041F480114FF0000E013C00F3AB8014F15D
:10102000360FDEBF002001F0004170BDC4F10004A6
:10103000203C35DA0C341BDC04F11404C4F1200527
:1010400000FA05F320FA04F001FA05F240EA020082
:1010500001F0004221F0004110EBD37021FA04F6B8
:1010600042EB06015EEA430E08BF20EAD37070BD72
:10107000C4F10C04C4F1200500FA04F320FA05F0D1
:1010800001FA04F240EA020001F0004110EBD370D3
:1010900041F100015EEA430E08BF20EAD37070BD43
:1010A000C4F1200500FA05F24EEA020E20FA04F31C
:1010B00001FA05F243EA020321FA04F001F00041CB
:1010C00021FA04F220EA020000EBD3705EEA430E3C
:1010D00008BF20EAD37070BD94F0000F0FD101F06B
:1010E0000046400041EB010111F4801F08BF013CA4
:1010F000F7D041EA060195F0000F18BF704703F0E2
:101100000046520043EB030313F4801F08BF013D68
:10111000F7D043EA0603704794EA0C0F0CEA135524
:1011200018BF95EA0C0F0CD050EA410618BF52EADE
:101130004306D1D181EA030101F000414FF00000E4
:1011400070BD50EA410606BF1046194652EA4306F2
:1011500019D094EA0C0F02D150EA013613D195EA66
:101160000C0F05D152EA03361CBF104619460AD1AE
:1011700081EA030101F0004141F0FE4141F47001B8
:101180004FF0000070BD41F0FE4141F4780170BDA8
:101190004FEA410212F5001215D211D56FF478739F
:1011A000B3EB625212D94FEAC12343F0004343EA42
:1011B000505311F0004F23FA02F018BF404270471D
:1011C0004FF00000704750EA013005D111F00040A7
:1011D00008BF6FF0004070474FF00000704700BF3D
:1011E0004FEA4102B2F1E04324BFB3F5001CDCF149
:1011F000FE5C0DD901F0004C4FEAC0024CEA507081
:10120000B2F1004F40EB830008BF20F001007047AF
:1012100011F0804F21D113F13872BCBF01F00040B2
:10122000704741F480114FEA5252C2F11802C2F1E4
:10123000200C10FA0CF320FA02F018BF40F0010065
:101240004FEAC1234FEAD32303FA0CFC40EA0C0017
:1012500023FA02F34FEA4303CCE77FEA625307D154
:1012600050EA01331EBF4FF0FE4040F4400070478B
:1012700001F0004040F0FE4040F40000704700BF25
:1012800001F0FF01102A2BDB10F0070F08D010F837
:10129000013B013A8B422DD010F0070F42B3F6D13B
:1012A000F0B441EA012141EA014122F007047FF054
:1012B00000070023F0E80256083C85EA010586EAAB
:1012C000010685FA47F5A3FA87F586FA47F6A5FAE7
:1012D00087F68EB9EED1F0BC01F0FF0102F00702F3
:1012E00032B110F8013B013A83EA010313B1F8D19E
:1012F0000020704701387047002D06BF354603387F
:10130000073815F0010F07D1013015F4807F02BFB7
:10131000013015F4C03F0130F0BC0138704700BF08
:10132000EC46A0E8F05F4FF000007047B0E8F05FD7
:10133000E546080008BF0120704700BF10F8012BE8
:1013400011F8013B012A28BF9A42F7D0D01A704702
:10135000034613F8012B002AFBD1181A01387047F5
:10136000A8B110B504460AE000F08CFA14F8041C89
:1013700054E903031B1AB3FBF1F200F083FA204691
:1013800054F80C3B082201210133EDD110BD704708
:101390002DE9F04F0023A7B00293C36A009013F029
:1013A000040FD0E9002118BF0A46D9064FF0E0210A
:1013B000D3694CBF02F1200002F168000192DB0901
:1013C00003F0040303430393D1F8883D03F4A0031F
:1013D000B3F5A00F01D10123029393694FF00409E3
:1013E0004F4D4FF001081B884E4C03F47F43A3F58B
:1013F0003E43B3FA83F35B09049329E000F040F91C
:10140000FFF7AEFF4FF0E023D3F8003D03F4702365
:10141000B3F5402F0ED0444A4FF0FF3305A88DF8A6
:101420001C90059214328DF828800692CDE908337D
:10143000FFF796FF2B68A34206D03C4B0422012104
:1014400005A8059300F01EFA00F066FB00285ED1A7
:1014500003A82C6000F002FC04220121344800F0B3
:1014600011FA0422012102A800F00CFA1022012135
:10147000019800F007FA0098202201210C3000F0BA
:1014800001FA019804220121103000F0FBF9042236
:10149000012103A800F0F6F901980C220121143073
:1014A00000F0F0F90C220121009800F0EBF9029B0A
:1014B000DA07A3D5009BDB6ADB0622D415A80DF161
:1014C000140AFEF76FFFDDF804E0D4460EF12006A3
:1014D0000EF1600B3068103656F80C1C674656F853
:1014E000082C0CF1100C56F8043C5E450FC7F1D1E6
:1014F000DEF86030259384225046012100F0C2F9C5
:101500007CE70DF1140A5046FEF746FFF3E7049B13
:101510001BB1019A93690233936127B0BDE8F08F44
:1015200060280030ED55CEAC28ED00E0ACCE55ED96
:10153000C883120838B526206D25FAF091F9144BAE
:10154000144A4FF0FF34D3F890100D2041F40031CD
:10155000C3F89010D3F8901021F40031C3F8901024
:10156000D3F89010D3F8E81041F40031C3F8E81034
:10157000D3F8101141F40031C3F810110121D3F850
:101580001031054BD56014621060197038BD00BF72
:1015900000440258004400408C2A0030002953D0F7
:1015A0002DE9F84F074689460026284DDFF8A4802C
:1015B000274C17F801AB2B784FEA1A1218F802B033
:1015C000002B3CD0C4F828B0E369580604D4FDF0E1
:1015D0008FFEE3695906FAD50AF00F0A2B7818F83E
:1015E0000AA04BB3C4F828A0E3695A0604D4FDF05E
:1015F0007FFEE3695B06FAD50136B14522D031079B
:10160000D7D12B784FF00D0BDFF84CA08BB1C4F87D
:1016100028B0E3695A0604D4FDF06AFEE3695B066C
:10162000FAD51AF801BFBBF1000FC2D02B78002BFE
:10163000EDD1FFF77FFFEAE7FFF77CFFD2E7FFF787
:1016400079FFBFE7BDE8F88F704700BF8C2A0030F4
:1016500000440040508412080C631308014B1868C2
:10166000704700BFFCFF1F08014B0248C01A7047BB
:1016700020AA1508000020080048704720AA150875
:10168000724943F69822724B09682DE9F04F0A44DB
:101690001B7883B002EB0309FBF03CFF002800F04D
:1016A0009B806C4F04466C4B0225DFF8D4810126E9
:1016B000FF1ADFF8C8A12EE018460191FDF066FA86
:1016C0000199A8BBE069AB460BF101030BEB4B0E94
:1016D00004F138058944DBB201440AEB8E0CB945AC
:1016E00003EB43034AF82E40CCF804500BF10205FB
:1016F0008CF808600AEB830CEDB24AF823008CF8F2
:101700000860CCF804104FD22046FBF013FF0446CB
:10171000E8B13A2D1BD8E069404505D0211AA369EC
:10172000002BC9D1AB46CFE74C4BA3EB0801F6E742
:1017300005EB450C01350AEB8C005FFA85FB067260
:10174000A3694AF82C300D334360E069BCE7B7EB7E
:10175000090129D40BF1030B414E42482B465FFA95
:101760008BF5341A8C424CDC04EB090203EB430387
:10177000BF1A4AF8230001220AEB8303002F1A72D2
:101780003A465E6010DB3848384BC11A914205EB8F
:10179000450249DD01354AF822301F440AEB820335
:1017A000EDB201225F601A723B2D1ED94FF0FF335C
:1017B0000122CAF8C4328AF8CC22CAF8C8322C4BAB
:1017C0001B782BB12B4A2C4B12681B68CAE90023EB
:1017D0002A4803B0BDE8F08F1E4F1F4BFF1AB7EB2E
:1017E00009012BD50225DFF894A005EB45054FF044
:1017F000FF3201210AEB85034AF8252019725A604D
:10180000DDE703EB4303014401224AF823000AEB1E
:101810008303154859601A720022144B1746C11AE7
:10182000914205EB4502B5DC4AF8223001350AEB5E
:1018300082030122EDB258601A72B5E7084E032503
:1018400008480223DFF834A0341A8BE77C2A0030E2
:10185000542A00300000200820AA15080022003079
:10186000E0E701306028003000000430E0E701309C
:1018700000220030802A0030782A00300422003014
:10188000000600309A4B1B782DE9F04F824685B058
:101890000E4693462BB9974B1B782BBB05B0BDE882
:1018A000F08F022900F0EE80042900F0B5800129B4
:1018B00000F0AE80904D2B780D27DFF858828F4CCA
:1018C0007BB1A762E3695A0604D4FDF011FDE36918
:1018D0005B06FAD518F8017F002FDCD02B78002B9F
:1018E000EFD1FFF727FEECE7854B4FF00009854A63
:1018F0009B1A0093CB45D1D0834F844C3868257810
:10190000031D009A2B44934279D2202D51D0022EF0
:1019100024D0042E0DD0012EECD12378DFF8F081F5
:101920005A1C22701AF8092009F1010908F803204D
:10193000E0E7DFF8DC810025434620789AF80010C4
:10194000421CE9400835D2B208F80010202A227063
:1019500018D0202DF1D109F10109CBE725789AF8AB
:101960000030DFF8AC8108F805300135EDB2202DEC
:10197000257030D06B1C09F101092370002308F891
:101980000530B7E738685F49019208441946FCF012
:10199000CBFE39684FF00003019A203123705C4B75
:1019A00039600021184603F193F8FDF0A1FC584B73
:1019B000CFE7544B2A4656491844FCF0B5FE3B6825
:1019C00000212A462033524821703B6003F180F801
:1019D000FDF08EFC9BE74B4B2A4638684146184485
:1019E000FCF0A2FE3B6800212A46203340462170CD
:1019F0003B6003F16DF8FDF07BFC2578BAE7444AC3
:101A00004FF0FF312023D161237005B0BDE8F08F86
:101A10001146FFF7C3FD4DE7002A3FF44BAF0246E6
:101A20000027354D0DF10C0852F8043B334C009261
:101A300003930191013704214046FFF7AFFDBB45F9
:101A40001ED0009ABE0752F8043B00920393F1D1D6
:101A50002A780D26DFF8BC907AB1A662E3695806B1
:101A600004D4FDF045FCE3695906FAD519F8016F75
:101A7000002EDFD02A78002AEFD1FFF75BFDECE7DC
:101A8000019E18E7002A3FF415AF024600271A4DC1
:101A90000DF10C0832F8023B184C0092ADF80C30F6
:101AA0000191013702214046FFF778FDBB45E7D0A1
:101AB000009A790732F8023B0092ADF80C30F0D171
:101AC0002A780D26DFF84C907AB1A662E3695A06AF
:101AD00004D4FDF00DFCE3695B06FAD519F8016F3B
:101AE000002EDED02A78002AEFD1FFF723FDECE7A5
:101AF000552A0030002200308C2A0030004400407B
:101B00000000200820AA15087C2A0030542A003042
:101B1000582A00300C631308F8B5324B1A782AB9EA
:101B2000314A1078F0B901221A70F8BD2F4E0D25F8
:101B30002F4F304C3B7893B1A562E3695A0604D429
:101B4000FDF0D6FBE3695B06FAD516F8015F002DC0
:101B5000F0D1294B5868003818BF0120F8BDFFF7B5
:101B6000E9FCE9E7254D264E2B68264C26481A1D30
:101B70003178241A0A44A24206D239BB9C421CD8AE
:101B80000020FCF07BFEE4E7204A4FF0FF31D161FA
:101B900020223270184420221C49FCF0C5FD2A681E
:101BA0003378002119481344202231702B6002F150
:101BB0008FFFFDF09DFB2B68E0E7144920221448BD
:101BC000CB61FCF0B1FDFDF093FBD9E703F12002FE
:101BD0009442DFD81F29DDD80C4AD361202232700D
:101BE000D8E700BF552A003000220030CC8312080D
:101BF0008C2A003000440040842A00307C2A0030C7
:101C0000542A00300000200820AA1508582A003065
:101C1000E0FF1F080E4B1B7810B5B3B16421002004
:101C20000C4A0D4CD3699B06FCD5536ADBB28B4240
:101C30004FF0640101D00020F4E70130C0B20E285B
:101C400001D0015DEEE7002010BDFFF773FCE5E772
:101C50008C2A003000440040DC8312082DE9F0415A
:101C600002680646EFF30581D9205369C9B28AF0AC
:101C70007DFD674B1B782BB9664C2378002B37D141
:101C8000BDE8F081644B0D27DFF8B081634D644CF3
:101C900096E8030083E803002B7833B3A762E36977
:101CA0005F0604D4FDF024FBE3695806FAD518F862
:101CB000017F002FF0D173680BB32B784227DFF838
:101CC0008081574C73B1A762E369590604D4FDF0D3
:101CD0000FFBE3695A06FAD518F8017F1FB32B787A
:101CE000002BF0D1FFF726FCEDE7FFF723FCD5E74B
:101CF0003568002D47D100232370BDE8F081DFF85F
:101D000044814327464C2B78002B6AD0A762E369B5
:101D10005B0604D4FDF0ECFAE3695F06FAD518F827
:101D2000017F002FEFD1DFF8208120273C4C2B785A
:101D3000002B53D0A762E369580604D4FDF0D8FA0B
:101D4000E3695906FAD518F8017F002FEFD1FFF7A4
:101D500061FF2B78DFF8F4800D27314C83B1A76247
:101D6000E3695A0604D4FDF0C3FAE3695B06FAD5C9
:101D700018F8017F002F3FF47FAF2B78002BEED1B6
:101D8000FFF7D8FBEBE72846FCF000FF0028B2D0B5
:101D90002846FCF023FF00F21450854231D3214B3A
:101DA000A5F214521A602846FCF02EFF05F5E05308
:101DB000834220D81C4A136000231C481C4A03603D
:101DC0001C481D49801A0B7002D10DE083420BD2D2
:101DD00052F8041B04330131F8D08CE7FFF7AAFB5B
:101DE000A8E7FFF7A7FB91E7FDF082FA0120BDE825
:101DF000F041FCF043BD2846FCF006FF0A4B18609A
:101E0000DAE72846FCF0EAFE064B1860CBE700BF95
:101E1000552A003000220030842A00308C2A0030FD
:101E200000440040802A0030782A00307C2A0030AC
:101E300020AA150800002008542A0030EC8312085C
:101E4000F483120848841208008412080C631308F3
:101E5000012070478368012B01D09B0616D5104BDB
:101E600093F9042F92B103F5805210B5D2F8E847E8
:101E7000B3F9063FB4F90AC003F10A02944507DD3D
:101E800040F28D32934203DD012010BD01207047E6
:101E90000A46044B202183F0BFFB002010BD00BF89
:101EA000904A0030648412082DE9F04300268FB078
:101EB0008846074606F082FB05462E22314602A8D8
:101EC000019602F105FE322301AA3146284604F0AC
:101ED00057FE044610B3DFF87890D9F8B8040268CA
:101EE0009368984718B920460FB0BDE8F083A9F56C
:101EF000804003F0EDFD0346D0B12846694604F06A
:101F0000C3FB0028EFD09DF801305B06EBD50D4AEE
:101F100041463846344683F0D7FFE4E7384601AB04
:101F2000094A414683F0D0FF20460FB0BDE8F08358
:101F30001C463846054A414683F0C6FF20460FB08E
:101F4000BDE8F0839C841208788412088484120807
:101F5000906A003070B50D4C05460E46D4F8B83482
:101F60001A681846D368984710B10124204670BDFE
:101F7000A4F5804003F0CEFD04460028F5D1044AC4
:101F80003146284683F0A0FFF0E700BF906A00309A
:101F9000BC841208F0B583B006460D4683F00CFCF5
:101FA000044610B3B368012B01D099071DD514481E
:101FB00083F0CAFAC205C0F30723C0F3002714D484
:101FC0009B0712D50E4883F0C9FA0E4B9FED0E7A8F
:101FD000D3ED237AF8EEE77A30EE670AB0EEC00A66
:101FE000B4EEC70AF1EE10FA02DC204603B0F0BDF1
:101FF000064B2A46022130463C4683F00DFBF4E7AF
:10200000286C0030906A00300000C842D08412086A
:1020100070B5054682B00E4684F022F9AB680446DE
:10202000012B01D0DB0605D5094883F08DFA10F0AD
:10203000010002D0204602B070BD0446054B284680
:102040003246102183F0E8FA204602B070BD00BF8E
:10205000286C0030E484120838B504460D4683F03D
:102060005FFDA8B1A368012B01D01B0610D5094B59
:1020700093F889302BB929462046BDE8384084F0D2
:1020800075BA2046044B2A46802183F0C5FA002009
:1020900038BD00BF906A0030F884120870B506465B
:1020A0000D46FFF701FF50B3184B0446D3F8B804B0
:1020B00003689B689847B8B1B368012B01D01B0730
:1020C00012D5134BB02193F8E82501FB023203F53A
:1020D0000053B2F8F623B3F9023F9A4209DC2946CD
:1020E000304683F09DFD50B10A4B01222046DA7143
:1020F00070BD094B2A460821304683F08DFA002333
:10210000044A1C46D371204670BD00BF906A00305F
:10211000902A0030587300300C85120883F06CBE92
:1021200070B50E460546FFF7BFFE084B0446314624
:10213000D8712846FFF70EFF034631462846002B8C
:1021400008BF002483F0ACFE204070BD58730030FF
:1021500070B50D46044663F031F9202164F026FA8B
:1021600030B163F02BF91F2164F020FA00283BD135
:10217000A368CBB923682946244A20461B6B9342A7
:1021800039D1FFF791FE224B06462946D8712046E9
:10219000FFF7E0FE034629462046002B08BF002635
:1021A00083F07EFE304070BD2946204684F036FB29
:1021B000064629462046FFF74DFE30402021C6B294
:1021C000204683F021FA134B93F8953B9B0715D4D7
:1021D00029462046FFF7BEFE0346294620461E40FC
:1021E00084F0DCFD304070BD20460B4A294683F068
:1021F0006BFE002070BDBDE870401847074A2946B5
:102200002046002683F060FEE2E700BF212102089D
:1022100058730030905A00301C851208AC841208A4
:1022200010B5094CD4F8983B1B7B13B9FFF790FF0E
:10223000034694F8802B1846044963F341028B71DE
:1022400084F8802B10BD00BF905A003058730030C6
:10225000144A13780133DBB21D2B15D813700021FB
:102260000368114A9B68934216D110B50F4CD4F8FD
:10227000983B1B7B8BB194F8802B0D4963F3410293
:102280008B7184F8802B10BD00230121137003682B
:10229000054A9B689342E8D01847FFF759FF034669
:1022A000E9E700BFD424003021220208905A003010
:1022B000587300302DE9F041444E3378BBB9444F98
:1022C0000124D7F8985B34702D7B1DB128463370FC
:1022D000BDE8F08184F0A6FD054660B93D4A307046
:1022E0002846137843F001031370BDE8F081002500
:1022F0002846BDE8F081DFF8F88054F0E5FD21467E
:1023000053F0C4FD88F804400B2449F0B3F949F0B8
:10231000D3F8611E11F0FF04F7D161F0BBFA2E4A29
:10232000062157F0B5FF06F049F9D0F86C23C7F83D
:10233000A42B90F88834DA072CD59B0736D5274B89
:1023400001211B68586D03681B689847D7F8983BB4
:102350001A7B1AB901221A7388F8042054F0B4FDCC
:1023600097F8852B97F8841B53F072FF50F066FFA7
:1023700050F030FB002333708AF070FA97F8813BFD
:10238000174A43F02003C2F8A804284687F8813B87
:10239000BDE8F08105F090FC54F096FD3C2154F02E
:1023A0002FFB07F5396300221A60C8E721460D4864
:1023B00001F0AEFF0C4883F0D1F8DFED0C7A07F5A1
:1023C000396320EE270A83ED000AB8E78D2A003032
:1023D000905A003074730030388512081070003045
:1023E000906A0030902A0030286C00300AD7233CD5
:1023F000587300302DE9F0432D4E87B0D6F8983B46
:102400001B7B23B90124204607B0BDE8F08384F08C
:1024100011FE04460028F6D061F03CFA254A062158
:1024200057F036FF06F0CAF8054612F0B5FB8046B5
:10243000284604F097FA18B198F92430022B1DD0E1
:10244000D6F8983B1A7B1AB100221B491A730A71FD
:1024500054F03AFD002153F019FD184B00211B6880
:10246000586D03681B68984796F8813B20466FF3C8
:10247000451386F8813B07B0BDE8F08300274FF095
:102480000009F9B203AA2846CDF80C900191013752
:10249000CDF81090CDF8149005F032FA019910B9EA
:1024A000032FEED1CCE703AA404611F08FFEF7E7E9
:1024B000905A003048851208587300301070003070
:1024C00000F5405008B590F8803BC3F380028A4283
:1024D00004D061F3820380F8803B01B908BD54F059
:1024E000F3FC0F21BDE8084054F08ABA00F54052D1
:1024F00010B592F8953B0C4603F00101A14209D0BA
:1025000064F3000382F8953BDB0704D502F080FA00
:10251000024B9C7210BD02F085F9F9E75873003048
:1025200000F54050044A90F8953B117361F3410364
:1025300080F8953B704700BF58730030002070470B
:10254000002070470020704700207047002070472F
:10255000002070470020704700207047704700BF80
:10256000002070470020704700207047002070470F
:1025700000207047002070470020704700207047FF
:1025800000207047704700BF002070470020704750
:1025900000207047002070470020704700207047DF
:1025A00000207047704700BF00F5405090F8840B42
:1025B000704700BF10B4044C19200C600821107043
:1025C0005DF8044B19607047B08812080368D3F8AF
:1025D0009030184776F06ABD0EF0EEBD50F016BD93
:1025E00020F06CBF53F0F4BD5FF0A2BC61F02EB8D8
:1025F00002F06EB902F06AB801F046BF48F05CBF65
:1026000009F04CBC67F0BEBA03F006B862F02ABE0F
:1026100016F0A2BD03F098BA02F018B902F090B912
:10262000F8B53C4900F540533B4A05460160D3F8F4
:10263000140BC3F8702908B10EF032FA374A05F5C9
:1026400000532A6093F8182D42B9D3F8144D2CB1D9
:1026500020461FF053F820460EF018FA41F63434A5
:1026600041F61C3605F5FD502C442E4481F080FDCA
:1026700014F8043C083C3BB92768384627B11FF0E2
:102680003DF838460EF002FAB442F1D141F6180096
:1026900005F6C47405F67C77284465F0D3F8204B22
:1026A000C5F8403B14F8043C083C3BB9266830466A
:1026B00026B11FF023F830460EF0E8F9BC42F1D104
:1026C00005F6984056F0C6FB05F67C4056F0C2FB76
:1026D00005F5466056F0BEFB05F6CC3056F0BAFB69
:1026E00005F53B6056F0B6FB05F6943056F0B2FBAC
:1026F0000C4A95F8CC31C5F8E42043B9D5F8C84167
:102700002CB120461EF0FAFF20460EF0BFF92846F5
:10271000F8BD00BFB08A120898AE1308A08D130848
:10272000883613084CEC120810B503F0F9F862F083
:1027300045FE0368BDE810405B68184710B50446C5
:1027400003F078F91021204603F022FA00B910BDF9
:1027500022F056FF20F0E4F841F610102044BDE8C6
:10276000104077F077BD00BF10B50121044603F09B
:102770000FFA30B94FF48051204603F009FA50B9EE
:1027800010BD204601F000FB4FF48051204603F0BD
:10279000FFF90028F4D02046BDE8104001F0B4BA9B
:1027A00038B543F6A8350446054428460AF044FCEB
:1027B00012F0F2F990F92130D3B190F85433BBB153
:1027C000284600210AF0B6FA9FED0A7A04F525633F
:1027D000DFED097A20EE070A04F2E47093ED287A1F
:1027E000A7EE270A83ED280ABDE8384011F026BE7F
:1027F00038BD00BFCDCCCC3D6666663FFFF7D0BF8D
:1028000038B50221044603F0C3F9002849D102215A
:10281000204603F0BDF900BB0121204603F0B8F9C2
:10282000D8B94021204603F0B3F9F8B94FF48061DC
:10283000204603F0ADF970BB8021204603F0A8F9D3
:1028400028B94FF48021204603F0A2F998B322F072
:10285000D7FEBDE838401FF06FBF204601F096FA62
:102860004021204603F094F90028DFD043F2F075B0
:10287000281952F0D9F904F5805393F91838002B30
:10288000D4D0281952F0F2FA4FF48061204603F0B8
:102890007FF90028D0D043F2F070204452F060FA63
:1028A000CAE70121204603F073F90028AFD1204682
:1028B00001F06AFAABE74FF40021204603F068F913
:1028C0000028C4D138BD00BFFFF79ABF10B5012161
:1028D000044603F05DF928B98021204603F058F939
:1028E00048B910BD204601F051FA8021204603F07E
:1028F0004FF90028F5D022F083FEBDE810401FF00C
:10290000FBBE00BFFFF7E2BF38B504464FF6FF71CC
:1029100003F03EF904F5405598B943F6FC00204415
:10292000FFF796FCD5F8983B1B7B8BB163F0D6FF85
:1029300095F8803B094A83F01003C3F300135371E9
:1029400038BD07212046D5F8802B01F027FAE4E7AF
:1029500042F27800204405F033FFE7E75873003077
:10296000FFF7D2BF70B542F27806044600F5804505
:10297000012106442DED028B304684B004F0EAFDBF
:1029800044F2C8013046214404F034F844F2E00136
:102990003046214405F0FAFA304603F093FD034631
:1029A00030461E4603F092FD01463046183127F0AE
:1029B00093FDD5F8C83044F2F40002A90293D5F88B
:1029C000CC30204485ED3B0A039357F053F944F291
:1029D000D00144F23810B0EE608A21442044F0EE79
:1029E000408A57F00FF844F2EC0144F2681085ED8C
:1029F000368A21442044C5ED358A85ED370A57F0E3
:102A000001F885ED3C0A04B0BDEC028B70BD00BF3F
:102A100010B5044600F5346021F0A0F8204602F01D
:102A2000E9FD2046FFF79EFF204602F0D7F820463A
:102A300001F00EFE204602F053F9204601F080FC22
:102A40004FF6FF71204603F0A3F820B92046BDE8F9
:102A5000104051F0F7BA204601F0CEF92046BDE80B
:102A6000104051F0EFBA00BF00F50050D1ED017AEF
:102A700091ED006A00F58B6300F26440D3ED006ACB
:102A8000D0ED005A27EEA67A65EEE77AA6EE257A13
:102A9000E6EE267A81ED017AC1ED007A704700BF3B
:102AA00000F50050D1ED017A91ED006A00F58B63DD
:102AB00000F26440D3ED006AD0ED005A27EEA67A0A
:102AC00067EEA57AA6EE657AE6EE267A81ED017AC2
:102AD000C1ED007A704700BFEE4B2DE9F04104468E
:102AE00042F278080025EC4E04F50057A0442DED85
:102AF000028B40F8043B86B065F04CFA04F11000FC
:102B00000AF02EFF04F1A0000CF098FDE34B0494B2
:102B100004F51670059306AB13E9060050F082F831
:102B200004F5427014F0C8FB04F5D26007F0F2FF20
:102B300004F2E47010F01EFF04F5346020F016FA81
:102B400041F29840204465F081F941F268502044F8
:102B50004FF004FD41F61800204464F05BFE41F69E
:102B6000540020440BF046F841F61010204476F053
:102B70004BFC04F5FD5081F0E7FA41F6B8702044B3
:102B800050F0A8FC42F20C00204466F005FE42F230
:102B9000140342F22400C24A23443D7520441360CA
:102BA00048F0C0FA2946404603F010FA42F6080001
:102BB000204475F07DF842F6140020446AF058F97C
:102BC00004F5215075F016FE42F6143020447CF0D6
:102BD00079FF42F62C4020447BF062FF42F64C40E5
:102BE00020447FF0ADF942F6C440204480F0CAFD95
:102BF00042F62450204474F03FF842F688502044B6
:102C000003F044F9336887F8D05E002B40F0CC81A4
:102C1000A44920464DF046FEA34B42F6487034606E
:102C2000236004F54056204401F072F942F6147115
:102C300043F2F0702144204452F0F6FF42F60A734A
:102C4000062243F6FC002344204486F8F828C6F800
:102C5000F43882F0A9FC954B04F56450C6F8FC38B2
:102C60004DF0F8FD002800F0918143F6901543F6F1
:102C7000F4178F4B25442744C6F87039284614357D
:102C80005DF0E4F8AF42F9D11E22002340F2CC609F
:102C9000C6F8182BA6F81C3B0DF0FCFE034643F6C5
:102CA0002030C6F8143B204486F030FA43F66430F6
:102CB000204486F02BFA7F4B1A68002A00F06A81C4
:102CC0007D4A012343F687309FED7C8AC6F8702940
:102CD00004F58045A6F8843B204482F043FC784B01
:102CE000784A43F6A830009302AB4FF400712044B9
:102CF000CDE902420CCB09F009FE44F29000B7EE98
:102D0000000A204456F04EFB44F2A800B7EE000A39
:102D1000204456F0B1FA44F2B80020440DF006F910
:102D2000B0EE083A9FED682A44F2B410F0EE481A6B
:102D3000DFED663AF0EE432A2044F0EE420A85EDDC
:102D4000328AB0EE430A85ED338AB0EE481A85ED3B
:102D5000348A85ED358A85ED368A85ED378A85EDAD
:102D6000388A85ED398A85ED3A8A85ED448A85ED84
:102D7000458A85ED468A85ED478A85ED488A85ED49
:102D8000498A85ED4A8A85ED4B8A85ED4C8A85ED29
:102D90004D8A85ED668A85ED678A85ED688A85EDC1
:102DA000698A85ED6A8A85ED6B8AC5F8B08173F012
:102DB000E9FBB0EE083A44F24820B7EE002AF7EEFD
:102DC000080ADFED423AF0EE432A2044B1EE0C0A45
:102DD000F0EE481AB0EE481A73F09CFDB0EE083AD7
:102DE00044F2A420F0EE481AB0EE481ADFED373A6C
:102DF000F0EE432A9FED342AB0EE430ADFED340AA9
:102E0000204473F087FDB0EE083AB7EE000ADFED1C
:102E10002F3AF0EE481A9FED2F2AF0EE432ADFED0D
:102E20002E0AB0EE481A04F5864073F0ABFBB0EE04
:102E3000083A44F29430B0EE482AF0EE481ADFED3A
:102E4000233AF0EE432A9FED250AB0EE481A2044BB
:102E5000F0EE480A73F05EFDF0EE083A44F2F0300E
:102E6000B7EE005AB0EE002A9FED184AF6EE000ABF
:102E70009FED1B0AB0EE633A2044F0EE632AF0EEB9
:102E8000484AF0EE481AB0EE481A73F031FA154984
:102E90002AE000BFA08D130844740030CD2502083D
:102EA00030820030BC8C1308B08A12086485120886
:102EB00098AE1308407D0030A08B1208000000007F
:102EC000A48A12081D260208CDCC4C3E0AD7A33C8A
:102ED000CDCCCC3ECDCCCC3DCDCC4C3D3333333FB3
:102EE0009A99993F38CC1208314A002344F2B440F1
:102EF00085F8AD34116020440A78002A4FD00133A0
:102F00009BB203EB430211F83220002AF7D1294982
:102F1000294A0B8029490B801368002B41D110608E
:102F200044F2BC402044C5F8B80401F0B1FE244B83
:102F300044F2E840C5F8BC34204401F0A9FE214B1E
:102F400044F21450C5F8E834204401F0A1FE1E4BB1
:102F500044F24050C5F81435204401F099FE05F2C2
:102F60006C53002219492046C5F840151A605A6072
:102F70009A6096F8963B23F0030343F0030386F828
:102F8000963B06B0BDEC028BBDE8F081012386F8CC
:102F900000396AE643F6701222441A6090E613463E
:102FA000B5E70B4889F026FC0A4889F023FC00BFEE
:102FB0000874003004740030B4730030DC730030E7
:102FC000A8D71208F0D6120808D812084CD7120851
:102FD000AC8512089885120838B5054C0A46054B91
:102FE00001462468256820462C68A047002038BD8B
:102FF00010700030902A003010B5084C86F052FB5B
:10300000074B024620461A60FFF766FD2046054A38
:103010000549BDE81040FDF02DBE00BF902A0030EC
:1030200010700030FC1F0130212602080B460449B5
:1030300010B5044603804DF035FC204610BD00BF9E
:103040005C8B1208FEEE007A00224FF07C5C29496E
:1030500008B54FF07E5E0346C0ED337AC0F860E0FD
:10306000C0F85CE00265C0F870C0C0F88020C0F80D
:103070009020C0F8A020C0F8B0C0C0F8C0204265C1
:10308000416681654FF47A712120C3F874C0C3F89A
:103090008420C3F89420C3F8A420C3F8B4C0C3F8B4
:1030A000C4209A669A67C3F888C0C3F89820C3F80A
:1030B000A820C3F8B820C3F8C8C0DA66DA67C3F836
:1030C0008CC0C3F89C20C3F8AC20C3F8BC2063F0CC
:1030D00019FF4FF47A71222063F014FF4FF47A71D4
:1030E000232063F00FFF4FF47A712420BDE80840DD
:1030F00063F008BF000080BFF8B52DED088B037B9F
:103100000546002B00F02A8190ED350AD0ED360AF5
:1031100090ED381AD0ED371A9A4805F1100700F0F3
:1031200081FDB7EE001AFFEE000A542095ED350A36
:103130003C46F0EE41AA22F087FFF0EE407A55209F
:10314000FFEE000A95ED360AB0EE6A1A2126C5EDAB
:10315000357A22F079FFF0EE407AB0EE6A1A562006
:10316000FFEE000A95ED380AC5ED367A22F06CFFC5
:10317000F0EE407AB0EE6A1A5720FFEE000A95EDA5
:10318000370AC5ED387A22F05FFF85ED370A89F0FE
:1031900059FB07EE900A9FED7C4AB8EE670A9FED57
:1031A0007B8ADFED7B9A9FED7BAA20EE044A9FEDA0
:1031B0007A9ADFED7A8A85ED024AD5ED367AD5ED39
:1031C000352A95ED383AD4ED105A94ED146AD4EDC1
:1031D000184A62EEA55A27EE866AD5ED373A63EEB5
:1031E000244A94ED1C5AC8FE255AF5EEC05A23EE27
:1031F000855A88FE066AF0EEE44A75EE866AB0EEFD
:10320000C55AF1EE10FA76EEA46A76EE856AE4EC21
:10321000016A94ED237AD4ED1F1A27EE877A94ED94
:10322000272AD4ED2B7AC4ED07AAA2EEA17AA3EE49
:10323000027AA3EEA77A84ED037A6ADDB5EEC06A5E
:10324000012385F8D030F1EE10FA02DD013385F864
:10325000D030F5EEC04AF1EE10FA6FDDB5EEC05A8F
:1032600001335BB2F1EE10FA85F8D03003DD0133A3
:103270005BB285F8D03007EE903AF8EEE77A87EE49
:1032800027BA84ED03BAF0EECB7A76EEA76AF4EEB5
:10329000EA6AF1EE10FA03DD3AEEE77A04ED017A1C
:1032A00095F9E830FBB994ED070A54ED01BAD5ED74
:1032B000397A20EE270A20EE040A30EE000A20EECA
:1032C000090AFDF0DDFCABEE80BA30B22BEE280A25
:1032D00084ED0BBA63F05CFD242E35D0013695EDFC
:1032E000024AB6B269E754ED01BAF4EEE9BAF1EE7A
:1032F00010FA0BD8F4EECA7AF1EE10FA06DBF0EE13
:10330000007AB0EE670AC4ED077AD0E794ED070AB9
:10331000CDE7B5EEC06A002385F8D030F1EE10FAA3
:1033200094DCF5EEC04AF1EE10FA97DCB5EEC05A27
:10333000F1EE10FA9BDC94ED03BAA4E7B5EEC05AA7
:10334000F1EE10FA97DD92E7BDEC088B05F1200253
:1033500039460C48BDE8F84000F09ABCDFED0B7A26
:10336000F0EE671AC0ED357AB0EE671AC0ED367A26
:10337000F0EE670AC0ED387AB0EE670AC0ED377A32
:10338000CAE600BF902A0030BD3786350000000035
:103390009A99193FCDCCCC3EDB0F494000007A44CE
:1033A0000022C0F8D420C0F8D820C0F8E020C0F82F
:1033B000DC20FFF7A1BE00BF00207047002070474F
:1033C00001207047FA207047014B93F8EE0E7047CA
:1033D000904A0030D0E9052310B443F4E051C469A9
:1033E000816144F4E051C16142F4F84141610D4909
:1033F00091F880CB1CF0400F10D042F4BE3243F461
:103400008E33C0E9052391F8803B5A0606D591F822
:10341000953BDB0702D444F48E34C4615DF8044B61
:10342000704700BF905A0030014802F0CDBB00BF8A
:10343000902A003010B582B04FF4EC70CDE9002135
:103440000DF01EFB0446DDE900215AF0B5FA024BEF
:103450002046236002B010BDC48D120808B590F854
:1034600084308B4203D3223150F8210008BD51F043
:1034700061FA18224FF4802151F00AFA002008BDA9
:1034800008B590F884308B4203D3223150F82100E4
:1034900008BD51F04FFA10224FF4802151F0F8F995
:1034A000002008BD704700BF704700BF704700BFD5
:1034B00000207047704700BF002070470020704711
:1034C0000020704700207047704700BF0020704701
:1034D000002070470020704703207047054BD3F849
:1034E000983B2BB11B7B002B0CBF5120D120704788
:1034F00051207047905A0030704700BF014B93F83D
:10350000F00E7047904A0030034B93F9A80F003833
:1035100018BF0120704700BF904A0030014B93F95B
:10352000F20E7047904A003000207047704700BF8D
:10353000114BD3F8980BF0B1D0ED387AD0ED365A64
:10354000D0ED356AB0EEE77A90ED376AF0EEE57AC5
:10355000F0EEE66ADFED095AB0EEC66AC7FE277ADA
:1035600086FE867AC7FE877A67EEA57AFDEEE77A51
:1035700017EE903A18B27047905A00300000C842D7
:103580005FF010BF10B504465BF010F9054802F07B
:103590001BFB054A034606212046BDE810405AF0B1
:1035A000E5BF00BF902A0030D88B12085AF03CB912
:1035B000084608B50DF04EFA00280CBF0420002084
:1035C00008BD00BF5AF0EABF014800F0A1BE00BF2D
:1035D000902A0030014800F04DBE00BF902A003014
:1035E00059F0E6BB70B50C464B7A897A94B0E27A12
:1035F000054643EA012343EA0243A62B3CD009D8FF
:103600006D2B39D0264A1A4422F07F42012A2CD849
:1036100014B070BDF32B28D1E5783D22002104A819
:10362000954228BF154601F153FA04F10C0104A894
:103630002A4601F103FA069CDDE9046546EA050322
:10364000234325D068460CF071FC164B694616489A
:1036500083FB0423E41701220296C4EBA304039521
:10366000019400F007FE14B070BD2146284614B046
:10367000BDE870405FF048BB08210B4802F088FAB3
:1036800021460246284614B0BDE870405BF020B9E0
:103690000121054814B0BDE8704000F039BE00BFFC
:1036A0007AFFFF0067666666902A003008B559F019
:1036B00005FB034640F6CD10184308BD10B504467F
:1036C0000DF0E4F9204610BD00B5002389B0029347
:1036D0000393049304F072FF02A903F027F9B0B139
:1036E00004F06CFF03F02AFE05A88DED050ACDED70
:1036F000060A8DED071A27F041FBF1EE047A20EE61
:10370000270AFCEEC07ACDED017A9DF8040009B0DD
:103710005DF804FB00B5002389B002930393049382
:1037200004F04CFF02A903F001F9D8B104F046FF00
:1037300003F004FEF0EE607AF1EE400AB1EE670AA3
:10374000FEF000FBDFED097A20EE270A22F0FEFBF7
:10375000F6EE007A20EE270AFCEEC07ACDED017A73
:103760009DF8040009B05DF804FB00BFE02E65423F
:103770008A8B162A22D0732A22D1D1ED007AF5EE57
:10378000C07A08B5F1EE10FA16DB9FED0F7AF4EE71
:10379000C77AF1EE10FA0FD891ED030ADFED0B7A3C
:1037A000B0EEC07AB4EEE77AF1EE10FA0AD4F7EE92
:1037B000000A22F0D3FA28B9042008BD002070477F
:1037C0005EF01CBD002008BD0000B44300000034C2
:1037D00000B5002385B001930293039304F0EEFE3D
:1037E00001A903F0A3F828B101A827F0C7FA05B092
:1037F0005DF804FB15F0D8FDB02290F8E03202FB32
:10380000030090ED370A05B05DF804FB044B18780F
:1038100020B9044B93F8810BC0F38010704700BFB0
:10382000C8710030905A0030094B93F889202AB9AA
:10383000A3F5805393F8952B520701D005207047CC
:1038400093F8803B13F0100F0CBF04200320704747
:10385000906A0030344B93F8842B012A5CD92DE90F
:10386000F04F324C8DB005464FF0010BA3F580565A
:1038700003F5A458E71DB6F9243F0BF1FF3A43FACC
:103880000AF3DB0732D5287C57F062FE8146287C9C
:1038900058F07EFE00F1210399453ED3BAF1070F9F
:1038A00024D8DFE80AF02B04373533312F2D204A96
:1038B0005168622021238DF824B001900491116A8F
:1038C00000931923CDF82510D169287CCDF8291053
:1038D00091690591D1680691116907915169126842
:1038E0000891C221039203AA57F09AFEA74202D080
:1038F00014F901BBBFE70DB0BDE8F08F0D4AD7E763
:103900004246D5E70C4AD3E70C4AD1E70C4ACFE749
:103910000C4ACDE70C4ACBE77047287C0DB0BDE8D8
:10392000F04F56F0A9BF00BF905A0030AD8E12087C
:10393000B06C0030886C0030586E0030FC6D003088
:10394000D46D0030686D00300C6D0030084BD3F83A
:10395000AC2F92070AD503F50053DFED067A93EDFD
:103960002F0AB8EEC00A20EE270A704759F076B841
:10397000904A00300AD7233C30B595B0044603A8DE
:103980000CF0D4FA1D4B1E4AD3F8B80403681B6B25
:10399000934201D115B030BD03A998470028F9D052
:1039A000257C88F05BFFDDED047A9621059C0022E2
:1039B000F8EEE77A9FED137A01914FF6F8510894EB
:1039C000002467EE877A3323079028460B920C92E7
:1039D0000D920E920F9210921192129207AAADF8C8
:1039E0004C1057218DF84E40069C0093CDED0A7A7D
:1039F000099457F015FE15B030BD00BF906A003035
:103A0000D53402080AD7233C08B50B4B93F8802B1A
:103A1000D2060AD403F58053084AD3F8B8040368E1
:103A20009B6A934203D1022008BD012008BD98473C
:103A30000028F8D0042008BD905A0030D134020884
:103A4000014802F0BFB800BF902A0030014B93F844
:103A5000840B7047905A0030024B93F8810BC0F3EF
:103A600040007047905A0030194B70B52DED028B15
:103A7000D3F8B82484B0174D0C461368064691ED70
:103A8000018ADB69AB421DD1BDEEC88A18EE103A3F
:103A9000DB0712D5D4E9040122F0DCFD68B16846E9
:103AA0000CF044FA6A46214630465DF0FFFB20B137
:103AB000094968460CF018FF00B1022004B0BDECC3
:103AC000028B70BD104698470028E3D1DCE700BFA9
:103AD000906A0030CD340208486B00308B8B202B6D
:103AE00003D0C02B03D1FFF7BFBF032070475DF0A9
:103AF00081BD00BF10B5002304462DED028B8CB0B4
:103B000003930493059304F059FD03A902F00EFFFB
:103B100050B304F053FD03F011FCF0EE607A8DED2C
:103B2000060AF1EE400A247CB1EE670ACDED077A71
:103B30008DED081AFEF006F906A8B0EE408A27F0CF
:103B40001DF9DFED0B7A0122089928EE278A0C2354
:103B50000B912046A8218DED0A0A8DED098ACDE949
:103B6000003209AA57F05CFD0CB0BDEC028B10BD11
:103B7000E02E654238B5A1F119030446222B13D873
:103B8000DFE803F016121212121212121212121899
:103B90001212121212121212121212121212121205
:103BA0001212121612161600BDE8384060F02EB838
:103BB000012038BD90F8D631ABB9006B03681B6AA1
:103BC00098470546207C58F0E3FCB5F5005F00F10E
:103BD0000C0028BF4FF40055A84207D82046FFF735
:103BE00089FF012038BD007C58F0D2FC207C56F0C3
:103BF00043FE002038BD00BFF6EE007A91ED007A5A
:103C0000B4EEE77AF1EE10FA01DC042070470122ED
:103C10000521034808B5FEF7EDFB002008BD00BFF5
:103C20008C6300302DE9F041002388B010EE108A3B
:103C300010EE906A019311EE105A069311EE904A1D
:103C4000CDF81B300746CDE90233CDE90433A32379
:103C50008DF8043095238DF805300B238DF8063050
:103C600088F004FECDF8070043F2F070CDF80B1099
:103C70001B2201A93844CDF80F80CDF81360CDF890
:103C80001750CDF81B4052F021F908B0BDE8F08183
:103C9000F0B52B278DB00D46144606463A46002156
:103CA00001A800F115FFA3238DF8043095238DF8AA
:103CB00005300C238DF8063088F0D8FD2B683A4685
:103CC000CDF8070043F2F070CDF80F302368304490
:103CD000CDF80B1001A9CDF813306B68CDF8173073
:103CE0006368CDF81B30AB68CDF81F30EB68CDF8BA
:103CF0002730E368A468CDF82B30CDF8234052F08C
:103D0000E5F80DB0F0BD00BF70B543F2F07444F2B9
:103D1000B41605460E2104440644204606F144022A
:103D200051F066FB06F16C0220460F2151F060FB5A
:103D300044F27C22204610212A4405F5864651F0A3
:103D400057FB44F2D822204611212A4451F050FB5F
:103D5000204606F14402642151F04AFB06F16C0250
:103D60002046652151F044FB44F2C83220460D2123
:103D70002A4451F03DFB05F5894220466121BDE80A
:103D8000704051F035BB00BF704700BF08B504F06C
:103D900015FCBDE8084004F0CFBB00BF70B50D4670
:103DA00084B04FF6FF710646144601F0F1FE08B9E3
:103DB00004B070BD0023CDE90033CDE90233A32365
:103DC0008DF8003095238DF8013004238DF80230F2
:103DD00088F04CFDCDF8030043F2F0700B46102242
:103DE000304469468DF80B50CDF80730039452F0FB
:103DF00005F904B070BD00BFF8B590F8A13600F524
:103E000040550446C3EBC30395F8961B00EBC30370
:103E100001F0010193F8C92612B193F8CA2642BBFA
:103E2000914211D095F8963B62F3000385F8963BDA
:103E300053F04AF895F8963B122113F0010F0CBF8E
:103E40000422002252F00EFE04F2E47794F8391BAB
:103E500095F8966B38460FF097FFC6F34006C0B250
:103E6000C0EB401004EB800090F83538B34203D12A
:103E7000F8BD93F8CB26D3E794F8391B38460FF0FA
:103E800083FF95F8963BC0B2C0EB401004EB800472
:103E900094F8352862F3410385F8963B53F014F803
:103EA00095F8963B032113F0020FBDE8F8400CBFD4
:103EB0000422002252F0D6BD38B5044643F2F07514
:103EC00001F082FE0C4925440246284651F026FFA7
:103ED00004F54053284693F8852B93F8841B52F041
:103EE000B7F942F27800204404F002FF04F5427072
:103EF000BDE8384014F076B8D88B1208034643F278
:103F0000F070A9220149184452F0DABC3CB81208FA
:103F1000F8B50746083075F097F80F4E07F17000B6
:103F200007F18C0461F0ACF807F553750B4B3B6758
:103F3000204661F04BFA44F82C6BAC42F8D1204695
:103F400063F016F807F62C0088F0FAFC38460449AE
:103F50004CF0A8FC3846F8BDA4D41208B8D4120816
:103F600020CB120870B504464BF0B4FA2E4B002853
:103F700051D01D6842F6EC660021686D264404F5B8
:103F8000005403681B68984730464CF007FB002834
:103F90003CD1286C254903681B68984763F022FAD6
:103FA0004BF0E2F9B4F9EC3E9FED217A0122013B9E
:103FB0003046A4F8EC2E07EE903AF8EEE77AF0EEF1
:103FC000E77AF4EEC77AF1EE10FA4CBF1146002101
:103FD0004CF038FA286C174903681B68984788F03A
:103FE00031FC04464DF00AFC2D6C2B681E6888F0ED
:103FF00029FC024610492846121BB0474DF05AFFD3
:104000000E4A138843F04003138070BDB4F9EC3EB0
:10401000012BBED1E3E71B680949186C03681B68D4
:104020009847084888F0E6FB107000308CC71208EB
:1040300000000034B0C71208B8C71208E873003097
:104040006CC712087CC712080069C0F340107047A3
:104050000F2904D82C2303FB01001C3070470020DB
:10406000704700BF014B93F9100F7047904A003022
:10407000014BD3F8EC077047905A0030054A92F88C
:10408000953B92F8942B03F0010313430CBF0120DE
:1040900000207047905A003000291ADBCBB210B5CF
:1040A000104C94F8F8289A4200D210BDD4F8F43895
:1040B0000122A4F54050595C00F03AFE94F8813B8F
:1040C00040B19B07F1D5084A137843F002031370FF
:1040D00010BD70479A07E8D5034A137843F00403EC
:1040E000137010BD905A003074730030022A08B566
:1040F00005D0104A92F8842B8A4210D008BD0122C4
:104100000D4800F015FE0B4B93F8813B9B07F5D54E
:104110000A4A137848B143F00203137008BD61F0F6
:104120004DF9BDE8084061F015B943F00403137080
:1041300008BD00BF905A0030902A003074730030E0
:1041400010B504469FED186ADFED186A42F2780058
:1041500004F5405301212044D3F8E427D3F8E03795
:10416000B2F90820B3F9083007EE102A07EE903AAA
:10417000B8EEC77AF8EEE77AC7EE060A87EE860A47
:1041800060EEA60A20EE260A04F0DAFA52F09CFE4F
:10419000262152F035FC43F67010054A06212044D2
:1041A000BDE8104056F074B80000C84235FA8E3CA5
:1041B000B0D21208332900D1704762F03FB800BF77
:1041C000332908B507D038291CD0052908D0BDE807
:1041D000084061F08DBC0121FFF788FF012008BD78
:1041E000022AFBD10A4890F8843B012BF6D8D0F87C
:1041F000E837B3F90830002BF0D1A0F54050FFF7B5
:104200009FFFEBE70321FFF771FF012008BD00BF0F
:10421000905A003030B585B004460D4668460BF024
:1042200085FE42F278006946204403F0B9FD18B9D2
:104230000024204605B030BD0446294668460CF0EF
:1042400047F89FED0A7BB4EEC70BF1EE10FAF0DCF5
:10425000019B4CF2503269685B1A002BB8BF5B427D
:104260009342E5DDE5E700BFAFF30080000000000A
:10427000006AE840F0B5044642F2780585B00E4683
:104280002544174668460BF051FE6946284603F060
:1042900087FD10B9002005B0F0BD31462046FFF77C
:1042A000B9FF0028F6D13146284606F0B7FB0028B2
:1042B000F0D0002FEFD004F50054384694F80035C4
:1042C00043F0020384F80035E5E700BF30B505464A
:1042D00089B042F2780468462C440BF027FE04A80B
:1042E0000BF024FE6946204602F0EEFA08B909B048
:1042F00030BD04A9204603F053FD0028F7D0059BEC
:104300000022694628460193FFF7B4FFEFE700BF9C
:1043100030B585B004460D4668460BF007FE42F204
:1043200078006946204402F0CFFA08B905B030BDE4
:104330002A4669462046FFF79DFF05B030BD00BF05
:1043400000F5005393F80035DB0719D400F540530E
:1043500030B5D3F8983B85B004461D7B5DB96846FF
:104360000BF0E4FD42F278006946204402F0ACFA1A
:1043700038B905B030BD05B0BDE83040FFF7A6BF85
:1043800070472A4669462046FFF774FF05B030BDE6
:1043900010B58AB0044642F278004FF0000C06A92E
:1043A00007AA05AB2044CDF81CC0CDF820C0CDF83D
:1043B00024C0CDE9002103AA04A903F0ABFE42F614
:1043C0002073DDED046A2344D3ED007A37EEA77A3B
:1043D000B4EEE67AF1EE10FA1CD99DED077ADDED28
:1043E000085A9DED096A87FE257A87FE067AB4EEA3
:1043F000E77AF1EE10FAF4EEE67AACBF0120002085
:10440000F1EE10FA09D8DDED036AF4EEE67AF1EE8A
:1044100010FA00D801200AB010BD9DED037A00F01B
:104420000100F4EEC77AF1EE10FA88BF00200AB05E
:1044300010BD00BF00F5405292F8953B590700D5DA
:10444000704743F0040310B582F8953B044652F0E0
:104450003BFD0122112152F005FB0A4BD3F8B804B1
:1044600003689B68984730B904F5005393F91B3FE4
:10447000032B00D010BD20460621BDE8104000F0FF
:1044800021BD00BF906A00302DE9F041044642F2A0
:10449000780584B0254468460BF048FD69462846F7
:1044A00003F07EFC00283AD004F54056D6F8983B3D
:1044B0001B7B002B36D004F5005707F57268D8ED4A
:1044C000007AF5EEC07AF1EE10FA2BD9204601F011
:1044D00017FB002850D007F57263D3ED007AF5EE94
:1044E000C07AF1EE10FA38D92046FFF751FF0028C4
:1044F00033D0544E7378D90703F001020DD43378CA
:104500000133DBB2082B33705FD0092B00F08680BB
:10451000092B69D8737803F001024B4BDA7304B0AE
:10452000BDE8F0814748002496F8951B0388464A69
:1045300023F4FF73D47323F0010303804807EED5FF
:1045400064F3820186F8951B52F0BEFC22461121CD
:1045500052F088FA04B0BDE8F0813A4C237893B366
:10456000013B23702388C3F30803B3F5807F63788E
:1045700012D003F00102D0E7204601F07FFA0028B4
:10458000A9D1D8ED007AF5EEC07AF1EE10FAB0D9E3
:104590002046FFF7FDFEACE76FF30003637052F0B7
:1045A00093FC0022102152F05DFA96F8953B5A07D1
:1045B00009D56FF3820386F8953B52F085FC002203
:1045C000112152F04FFA6378D3E707F57267D7ED00
:1045D000007AF5EEC07AF1EE10FA9BD92046FFF78B
:1045E000D7FE58BB337890E7338823F4FF7323F06A
:1045F000010343F48573338052F066FC02221021DC
:1046000052F030FA88F02AF9726847F23053801A73
:10461000984208D82046FFF70DFF7BE7284603F0B5
:104620005FFF337874E743F67010084A0221204494
:1046300055F02EFE88F012F97060EBE7284603F083
:1046400063FFCFE71470003058730030D0D41208E5
:1046500070B542F2780482B000F540560546044435
:1046600001A9204603F010FBD6F85C39834206D03E
:10467000C6F85C0952F028FC3E2152F0C1F92046F0
:1046800003F0A4FD96F96039834201D102B070BDF8
:10469000204603F09BFD0130F8D0204603F096FD44
:1046A00086F8600952F010FC96F86029182152F043
:1046B000D9F943F6701096F960390421024A28446A
:1046C00055F0E6FD02B070BDE0D412082DE9F041CE
:1046D000044694B042F2780588F0C0F8002203A99D
:1046E00002AB254408920646099228460A920B928C
:1046F0000C920D920E920F9210920BAACDE90031FE
:104700000EAB08A903F0D0FCDFED437A9DED0A7AE9
:104710000746B4EEE77AF1EE10FA61DB9DED0D7A13
:10472000B4EEE77AF1EE10FAACBF4FF001084FF0AB
:10473000000807AB284604AA05A9019311AB04F5AC
:1047400040550093002311931293139306AB03F08B
:10475000E1FC78B395F9D03763B35FB3D5F8983BF4
:104760001B7B3BB3B8F1000F24D0F7EE007A9DED30
:10477000057AB4EEE77AF1EE10FA1BD4D5F8683971
:10478000002B43D0F61AB6F57A7F26D995F864390E
:104790001BBB012685F8646952F096FB32461D2149
:1047A00052F060F943F670101C4A0221204455F083
:1047B0006FFD12E095F8643963B1D5F86C0920B942
:1047C000C5F86C6914B0BDE8F081301A43F698233F
:1047D000984208D80023C5F8683914B0BDE8F081C4
:1047E0004FF00008A5E7002685F86469C5F86C69F4
:1047F00052F06AFB32461D2152F034F943F6701034
:10480000074A0221204455F043FDE3E7C5F86869F3
:10481000C5F86C39E1E700BF0000003414D5120878
:10482000F8D4120810B5044652F04EFB00220521C0
:1048300052F018F943F67010034A04212044BDE8F1
:10484000104055F025BD00BF30D5120800F50053CB
:1048500093F9003FABB370B500F540550446D5F869
:10486000106B06B970BD87F0F9FF05F5FB62DFED4F
:10487000157A034692ED000A6A209FED131A9E1BDB
:1048800020EE270ADFED110A21F0DEFBBCEEC00AA4
:1048900010EE103A9E4209D295F8953B9A07E1D561
:1048A00020460021BDE87040FDF73ABEDAD995F800
:1048B000953B9B07D6D420460121BDE87040FDF70B
:1048C0002FBE704700007A440000804F00000000B7
:1048D00030B5044644F2981083B0204480F034FE92
:1048E00004F54052C0F3803592F8813BC3F30011C8
:1048F000A9421ED065F3041382F8813B7DB952F0C2
:10490000E3FA2A460B2152F0ADF843F670100A4A3A
:104910000221204403B0BDE8304055F0B9BC52F04C
:10492000D3FA02220B2152F09DF843F67010034A8D
:10493000EEE703B030BD00BF54D5120848D51208C9
:1049400070B50446164652F0BFFA062104F54055EC
:10495000012252F087F895F8813B990620D495F80A
:10496000803BDA061CD404F58043254AD3F8B8040A
:1049700003689B6A934230D143F67010214A0421A8
:10498000204455F085FC012E21D0052E37D143F669
:10499000FC00012214212044BDE87040FDF72ABD2F
:1049A00043F6FC00012207212044FDF723FD43F6D6
:1049B0007010154A04212044BDE8704055F068BCD1
:1049C00043F67010114A0421204455F061FC204642
:1049D0000421BDE8704000F075BA98470028CBD09C
:1049E000D5F8D4371B07C7D5002EE9D143F6701090
:1049F000044A04212044BDE8704055F049BC70BD14
:104A0000D134020888D5120868D51208D0D512080A
:104A10002DE9F041044652F057FA0122052152F0E7
:104A200021F804F5005204F5405692F9042F96F847
:104A3000813B151E18BF012599061BD496F8803BB3
:104A4000DA0617D404F58047DFF8A880D7F8B80451
:104A500003689B6A43451DD143F67010214A042127
:104A6000204455F015FC9DB320460321BDE8F041DC
:104A700000F028BA43F670101B4A0421204455F078
:104A800007FC43F6FC00012210212044BDE8F04160
:104A9000FDF7B0BC984730B197F889301BB197F952
:104AA0008830012B16DDD7F8B80403689B6A4345AC
:104AB000D2D098470028CFD0D6F8D4371B07CBD513
:104AC00043F67010094A0421204455F0E1FBCBE77E
:104AD000BDE8F08143F67010054A0421204455F0EA
:104AE000D7FBC1E7B8D512089CD51208F8D5120833
:104AF000C8D51208D13402082DE9F041044687F0E8
:104B0000A1FE2F4B0546B4F8B6221988914208D071
:104B10002C492D481A800B780560002B43D1BDE845
:104B2000F081284E337813BBDFF8A48098F800306A
:104B3000002BF4D0244F254A3B68C31A9342EED988
:104B400004F54053D3F8980B01233370037B002BFB
:104B500033D152F0B9F90122132151F083FF98F8B3
:104B60000030002BDBD03378002BD8D004E0184B7A
:104B70001B78002BD3D0144F3B68164AEB1A934294
:104B8000CDD904F540543D60D4F8983B1A7B002AF7
:104B9000C5D0002210491A730A71D4F8980BBDE8E9
:104BA000F041FEF7A9BA00240C7052F08DF92246AC
:104BB0001321BDE8F04151F055BFFEF7F1FBC8E706
:104BC0001E7000301C7000302070003080841E0089
:104BD0001D70003040420F005873003070B544F231
:104BE000981500F5405386B00446054493F86419BF
:104BF000284680F05DFC02A80BF098F942F278009C
:104C000002A9204401F060FE04F580432846DDE956
:104C10000412C3E9301280F097FC820601D406B07A
:104C200070BD284644F2B80580F098FCFDEEC07ACD
:104C3000254404F50054022217EE901A284617EE78
:104C4000906A0BF0ABF994F80035DB0705D501212C
:104C500028460BF069FA0028E1D1012231462846A6
:104C60000BF09CF906B070BD012070470020704722
:104C700000207047002070470020704700207047D8
:104C80009FED010A704700BF00000000704700BFA1
:104C90000F4A104930B402F15C040F4DC0E9001214
:104CA000C0E9024502F6AC41A2F67464C0E90441D1
:104CB00002F6F40402F6F801C0E9064102F6FC042B
:104CC000064902F510628162C0E9084230BC7047B3
:104CD0007C5900309CD61208286C0030902D003092
:104CE00000F58040D0F8B80403685B68184700BF3F
:104CF00038B500F580450446D5F8B80403685B690B
:104D0000984704F54051D5F8B834084A91F8841B07
:104D100010741846D1701A68536A9847014642F2D7
:104D200024002044BDE8384046F08CBC5873003065
:104D30002DE9F04700F54059174699F8843B8B421E
:104D400008D080460C46032900F28880DFE801F095
:104D500040444808012689F8852B3046BDE8F08795
:104D600044F240550544D9F8983B1B7B83F0010A77
:104D700093B12B6828469B689847002853D139483F
:104D800000F0C8FE40B908F58043D3F8B8040368C2
:104D9000DB689847002853D12B68514628461B688A
:104DA0009847064600BB2B6828461B6A98472E4A40
:104DB000034643F670100421404455F069FA52F05E
:104DC00083F822460A2151F04DFE3046BDE8F087B7
:104DD00044F2E8450544C6E744F2BC450544C2E751
:104DE00044F214550544BEE799F8843B43F2F07051
:104DF0003A46214689F8863B08F580434044C3F88B
:104E0000B85489F8844B89F8857B51F021FA43F630
:104E10007010002140445BF001F84046FFF768FF46
:104E20003046BDE8F0870F4800F052FE06460028E5
:104E3000A5D12B6828461B6A98470C4A0346B8E759
:104E40002B682846DB68984706460028A4D12B68C3
:104E500028461B6A9847064A0346AAE700264FF0F1
:104E600073FB7AE7902A003074D612081CD6120819
:104E700048D612080148FFF75BBF00BF902A0030F8
:104E800000207047012070470020704700207047C5
:104E900000487047E0D6120800487047E0D6120874
:104EA000426900231268C2F8D43042691268C2F81D
:104EB000D83042691268C2F8DC3042691268C2F820
:104EC000E03070470A46002108B5FFF731FF034A7A
:104ED000137843F00803137008BD00BF74730030EB
:104EE0000120704700207047012070470020704764
:104EF0000048704734D71208004870473CD7120862
:104F0000094A44F2E0038446134410B502F5005EFA
:104F100000F12C0493E8070084E80700DEF8D8339A
:104F20000120CCF8383010BD902A0030F0B50023B5
:104F30009FEDDC5ADC4A04469FEDDC7A2DED068BB2
:104F40008DB0C16992EDA90A05930393B0EEC06AD2
:104F500004930968B4EEC76A4368B1F90810D3ED49
:104F6000125A07EE901AF1EE10FAF8EEE77AC7EE51
:104F7000856A66EEA56A10D5B2F99A32B7EE007A64
:104F800007EE903AF8EEE77A87EE270A82EDA90A53
:104F9000B0EEC06A4368D3ED125A66EE806AA1692A
:104FA000DFEDC04A9FEDC15ACDED036A0968B4EE4A
:104FB000C56AB1F90810F1EE10FA07EE901AF8EE92
:104FC000E77A87EEA47A27EE257A0ED5B2F99A32DF
:104FD000B7EE006A07EE903AF8EEE77A86EE270A17
:104FE000B0EEC06A82EDA90A636827EE007A216AF2
:104FF0009FEDAC4A9FEDAD5A8DED047A0968B4EE91
:10500000C56AD3ED134AB1F90810F1EE10FA05EEB6
:10501000901AF8EEE55AC5EE847A67EEA47A0ED5BA
:10502000B2F99A32F7EE005A06EE103AB8EEC66AB6
:1050300085EE860AB0EEC06A82EDA90A636867EE63
:10504000807A616A9FED974A9FED985ACDED057A77
:105050000968B4EEC56AD3ED144AB1F90810F1EE4F
:1050600010FA05EE901AF8EEE55A85EE848A28EEDD
:10507000248A0CD5B2F99A32F7EE005A06EE103AAD
:10508000B8EEC66A85EE860A82EDA90A636893F9CE
:10509000543028EE008A002B00F0488194ED0B5A22
:1050A0000026D4ED0C5A94ED0D6A75EE266A94ED47
:1050B0000E0A35EE877A76EE277A7D4D38EE000AB5
:1050C000C4ED0B6A84ED0C7AA5F50057C4ED0D7A9A
:1050D000B7EEC00A20F078FFB7EEC00B754A09ABF7
:1050E00004F12C01099602F5087084ED0E0A0A9667
:1050F0000B9671F0F5FBB0EE608A05F56570F0EE89
:10510000408A0021D5ED3A0A94ED0D0ACDED068ACC
:105110008DED078A71F012FDD4ED0E7AF0EE409A13
:1051200097EDF6AA37EECA0AB7EEC00A20F04CFF98
:105130000021B7EEC00B05F57C7071F08FF9A26B02
:1051400005F59063B0EE409A2820B0EE680A1A6028
:1051500005F2844383ED00AA636893ED0F1AF1EE24
:10516000410A20F071FF6368F0EE408A292093ED38
:105170000F1AB0EE480AF1EE410A20F065FF6368AD
:10518000B0EE408A2A2093ED101AB0EE690AF1EED3
:10519000410A20F059FFF0EE407A63682B20CDEDF4
:1051A000068AB0EE490ACDED087A8DED078A93EDB7
:1051B000111AF1EE410A20F047FF09AB05F1D402C4
:1051C00006A905F5DA70B0EE408A09960A960B96A4
:1051D00071F086FBF0EE607A0021D5ED370A05F517
:1051E00012708DED010A9DED080ACDED027A71F085
:1051F000A5FC01A9A5F58040F0EE408AFDF750FC22
:1052000005F52970B0EE480A0021D5ED3C0A71F091
:1052100095FCB7F9423FF0EE407A980706D46369EF
:10522000019A1B68C3F8D820B7F9423FD90706D4C2
:105230006369029A1B68C3F8D420B7F9423F5A0742
:1052400005D463691B68C3ED388AB7F9423F1B0771
:1052500003D463691B68C3ED377A51F035FE9FEDC7
:10526000168ADFED163A95ED352ADDED061AB0EE19
:10527000633AD5ED380AF0EE632A94ED0B0AB0EEEE
:10528000631A22EE082A61EE881A60EE880A20EE80
:10529000080A50F0EDF851F017FEDFED083A95EDF1
:1052A000362A0DE000007A44902A003000000034D5
:1052B000906A0030706B00300000C84200000000AF
:1052C000DDED071AB0EE633AD5ED390AF0EE632A48
:1052D00094ED0C0AB0EE631A22EE082A61EE881AE9
:1052E00060EE880A20EE080A50F02AF951F0ECFD31
:1052F0005FED0E3A95ED372ADDED081AB0EE633A10
:10530000D5ED3A0AF0EE632A94ED0D0A22EE482A12
:1053100061EEC81AB0EE631A60EEC80A20EE480AC1
:1053200050F076F90DB0BDEC068BF0BD03A9054831
:10533000FDF79AFBDDED036A9DED047ADDED057A5C
:10534000ACE600BF902A0030002070470120704773
:1053500001207047002070470048704790D712081E
:105360000048704798D71208D0E90532DFED1C7A63
:1053700012681B68B2F9082007EE102AB8EEC77A47
:10538000C7EE276AC3ED356AC269436912681B68B4
:10539000B2F9082007EE102AB8EEC77AC7EE276ADE
:1053A000C3ED366A426A436912681B68B2F9082085
:1053B00007EE102AB8EEC77AC7EE276AC3ED376A40
:1053C000026A436912681B68B2F9082007EE102AC6
:1053D000B8EEC77AC7EE276AC3ED386A704700BFD8
:1053E00000007A4401207047002070470120704778
:1053F0000020704700487047ECD7120800487047FB
:10540000F8D7120830B5002405462DED028B89B07F
:10541000C3699FED728A049402A9029403941B68E5
:105420004268B3F9083092ED0F6A06EE903A83694C
:105430006B48F8EEE66A86EE887A27EE067A8DEDFE
:10544000027A1B68B3F9083007EE103AB8EEC77A53
:10545000C7EE087A67EE867ACDED037AFDF704FB96
:105460002A6A02A96B68126893ED106AD3ED116A7B
:10547000B2F908306A6A07EE103A05ABB8EEC77A9F
:10548000C7EE087A67EE867ACDED047A1268059445
:10549000B2F90820069407EE102A524A0794B8EE93
:1054A000C77A514C02F1E000C7EE087A27EEA68ACF
:1054B00071F016FA6946A4F580408DED000ACDED35
:1054C000010AFDF7EDFA0021D4ED370A04F5127058
:1054D0009DED040A71F032FBF0EE407A0021B0EE4F
:1054E000480AD4ED3C0A04F52970B0EE678A71F0E1
:1054F00025FBA4F50052F0EE407AB2F9423F99073D
:1055000006D46B6900991B68C3F8D810B2F9423F02
:10551000D80706D46B6901991B68C3F8D410B2F997
:10552000423F590705D46B691B6883ED388AB2F98D
:10553000423F1B0703D46B691B68C3ED377A51F0F8
:10554000C3FC9FED2A8ADFED2A3A94ED352AD4ED8B
:10555000380AB0EE633AF0EE632AF0EE631AB0EE6A
:10556000631AB0EE630A22EE082A60EE880A4FF052
:105570007FFF51F0A9FCDFED1E3A94ED362AD4ED01
:10558000390AB0EE633AF0EE632AF0EE631AB0EE39
:10559000631AB0EE630A22EE082A60EE880A4FF022
:1055A000CFFF51F091FCDFED123A94ED372AD4EDA4
:1055B0003A0AB0EE633AF0EE632A22EE482AF0EEA1
:1055C000631AB0EE631A60EEC80AB0EE630A50F0D8
:1055D0001FF809B0BDEC028B30BD00BF00007A445B
:1055E000902A0030646B0030906A00300000C8429E
:1055F0000000000010B5044661F046FD61F020FE99
:1056000004F5405461F044F9D4F8980BFDF774FDAB
:10561000BDE8104061F01CBE70B500F5405595F92D
:105620000C396BB3D5F8E827B2F90820002A39DC29
:10563000D5F8EC270446B2F90820B2F5617F20DDE9
:105640002F4EB6F90030642B1ADC01331BB2142B39
:10565000338043D0642B13D1D5F8983B1B7B7BB1AF
:1056600095F8843B012B0BD143F67010254A062197
:10567000204404F5804454F00BFEFA23A4F8AC3423
:1056800070BD12F5617F0DDA022B0BD100F580435E
:10569000D3F8B8040368DB68984738B995F8803BBD
:1056A000DB0603D4164B00221A8070BD144AB2F9EF
:1056B0000030142BE4DC01331BB2142B1380DFD138
:1056C000D5F8983B1B7B002BDAD043F6FC00012277
:1056D00000212044BDE87040FCF78CBED5F8983B13
:1056E000197B0029CCD143F6FC0001222044FCF7B1
:1056F000E1FD10B1B6F90030ACE7308070BD00BFFD
:10570000247000304CD8120810B500F54054142114
:10571000D4F8E0075FF06EFE1421D4F8E4075FF0E0
:1057200069FE1E21D4F8E8075FF064FE1421D4F866
:10573000EC075FF05FFE5FF041FE02680849126807
:105740008A4205D1F8300021BDE810405FF052BE1A
:10575000052190470021BDE810405FF04BBE00BF1F
:105760005140020870B505465FF028FE026805F555
:1057700040543F4E126894F8871BB24201F1FF314A
:10578000C9B263D10F2970D803462C2000FB013029
:105790001C30C4F8E0075FF011FE026894F8881B23
:1057A000034612680139B242C9B256D10F2956D800
:1057B0002C2000FB01301C30C4F8E4075FF0FEFD34
:1057C000026894F88A1B034612680139B242C9B2D2
:1057D00041D10F2945D82C2000FB01301C30C4F8E2
:1057E000E8075FF0EBFD026894F8891B0346126836
:1057F0000139B242C9B22BD10F2934D82C2000FB79
:1058000001331C33C4F8EC374FF47A71D4F8E00755
:105810005FF0ECFD4FF47A71D4F8E4075FF0E6FD39
:105820004FF47A71D4F8EC075FF0E0FD4FF47A7131
:10583000D4F8E8075FF0DAFD2846FFF765FF94F833
:10584000813B43F0080384F8813B70BD9047A0E79B
:1058500090470346D6E79047C1E79047ACE7002062
:10586000AAE70020BBE70023CCE7002091E700BFB8
:105870005140020808B561F031F8BDE8084061F018
:1058800025B800BF00F54050D0F8980BFDF788BD53
:1058900000F5005210B492F9044FB4B1B2F8062FDB
:1058A00003468A4214D900F5405292F8951BC80766
:1058B0000BD492F8801B490622D592F8941B013133
:1058C00049B2022922DC82F8941B5DF8044B704730
:1058D00000F5405393F8942B013A52B2002A04DDAC
:1058E00083F8942B5DF8044B7047002193F8952BB7
:1058F00083F8941BD307E8D55DF8044BFCF7F6BD9D
:10590000D2F8981B097B0029D7D1DEE703240121B7
:10591000184682F8944B5DF8044BFCF7E7BD00BFD6
:10592000F8B5044686F09AFF06465FF047FD04F599
:1059300040555FF0DDFB70BB95F8953BDA0700D56D
:10594000F8BD04F58043D3F8B004361A5FF066FC66
:10595000002814BF4FF47A734FF4FA73B342EFD8B0
:1059600004F5005393F9043F002BE9D095F8803BF0
:105970005B0604D4D5F8983B1B7B002BE0D051F09C
:10598000A3FA0222114651F06DF820460121BDE82C
:10599000F840FCF7ABBD95F8803B204643F0200370
:1059A00085F8803BD5F8E837D988FFF771FFD5F83F
:1059B000E837B3F9087086F051FF1C4B002F29DD42
:1059C000186095F8813B6FF3C30385F8813B95F828
:1059D000803B04F58047D5F8E82744F2A80043F05F
:1059E0004003DFED130A204485F8803BD7F8B0343C
:1059F000B2F90820F31A00EE102A07EE903AB8EE3A
:105A0000C00AF8EE677A67EEA00A53F057FCC7F8B1
:105A1000B064F8BD1B68C01AB0F5C87FD7D995F837
:105A2000813B43F0080385F8813BD0E728700030C4
:105A30006F12833A38B500F5D2650446284605F062
:105A400087FF94F8A1369FED087A04F58044C3EBF4
:105A5000C30305EBC305D5ED0B7A67EE877AFDEE40
:105A6000E77AC4ED237A38BD0000C842FEF724BAB5
:105A70000148FFF741B800BF902A003010B5044636
:105A800042F2780082B0204400F0ACFF08B902B0C6
:105A900010BD44F29810204404F540547FF054FDAA
:105AA0000346D4F8982BC1B20193C0F30010127BC7
:105AB0003AB90028EBD19DF80500C0F3400002B0D0
:105AC00010BD0028E3D081F08000C00902B010BDF5
:105AD00038B500F5405393F8953B5B0702D5002598
