:020000040800F2
:1000000000060020E1020008E3020008E302000805
:10001000E3020008E3020008E3020008E30200082C
:10002000E3020008E3020008E302000821340008AC
:10003000E3020008E3020008E3020008E30200080C
:10004000E3020008E3020008E3020008E3020008FC
:10005000E3020008E3020008C94B0008F54B000862
:10006000214C00084D4C0008794C0008FD10000898
:1000700025110008511100087D110008A911000880
:10008000D1110008FD110008E3020008E302000896
:10009000E3020008E3020008E3020008A54C0008A0
:1000A000E3020008E3020008E3020008E30200089C
:1000B000314E0008E3020008E3020008E3020008F2
:1000C000E3020008E3020008E3020008E30200087C
:1000D000E3020008914D0008A54D0008B94D000845
:1000E000094D0008E3020008E3020008E3020008EB
:1000F000E3020008E3020008E302000829120008F6
:10010000E3020008E3020008E3020008E30200083B
:10011000CD4D0008E14D0008E3020008E3020008AD
:10012000551200087D120008A9120008D512000817
:1001300001130008E3020008E3020008E3020008DC
:10014000E3020008E3020008E3020008E3020008FB
:10015000291300085513000881130008F54D000805
:10016000E3020008E3020008E3020008E3020008DB
:10017000E3020008F93F0008E3020008E302000878
:10018000E3020008E3020008094E00081D4E0008C3
:10019000E3020008E3020008E3020008E3020008AB
:1001A000E3020008E3020008E3020008E30200089B
:1001B000E3020008E3020008E3020008E30200088B
:1001C000E3020008E3020008E3020008E30200087B
:1001D000E3020008E53F0008E3020008E30200082C
:1001E000E3020008E3020008E3020008E30200085B
:1001F000E3020008E3020008E3020008E30200084B
:10020000E3020008E3020008E3020008E30200083A
:10021000E3020008E3020008E3020008E30200082A
:10022000E3020008E3020008E3020008E30200081A
:100230007D4D0008E3020008E3020008E302000825
:10024000E3020008E3020008E3020008E3020008FA
:10025000E3020008E3020008E3020008E3020008EA
:10026000E3020008E3020008E3020008E3020008DA
:10027000E3020008E3020008E3020008E3020008CA
:10028000E3020008E3020008E3020008E3020008BA
:10029000E3020008E3020008E3020008E3020008AA
:1002A000E3020008E3020008E3020008E30200089A
:1002B000E3020008E3020008E3020008E30200088A
:1002C000E3020008E3020008E3020008E30200087A
:1002D000E3020008E3020008E3020008E30200086A
:1002E00002E000F000F8FEE772B6374880F30888B5
:1002F000364880F3098836483649086040F20000E5
:10030000CCF200004EF63471CEF200010860BFF36B
:100310004F8FBFF36F8F40F20000C0F2F0004EF637
:100320008851CEF200010860BFF34F8FBFF36F8F8B
:100330004FF00000E1EE100A4EF63C71CEF20001E3
:100340000860062080F31488BFF36F8F03F0CAF8AB
:1003500004F002FA4FF055301F491B4A91423CBF4E
:1003600041F8040BFAE71D49184A91423CBF41F895
:10037000040BFAE71A491B4A1B4B9A423EBF51F83D
:10038000040B42F8040BF8E700201849184A914280
:100390003CBF41F8040BFAE703F0E2F804F062FA1C
:1003A000144C154DAC4203DA54F8041B8847F9E7A6
:1003B00000F042F8114C124DAC4203DA54F8041B21
:1003C0008847F9E703F0CAB80006002000220020A1
:1003D0000000000808ED00E00000002000060020FA
:1003E000305F0008002200206C22002070220020D4
:1003F000646A0020E0020008E0020008E002000851
:10040000E00200082DE9F04F2DED108AC1F80CD064
:10041000D0F80CD0BDEC108ABDE8F08F002383F338
:1004200011882846A047002002F04AFAFEE702F0B1
:10043000D5F900DFFEE7000038B500F039FC00F028
:10044000E7FD02F073FF054602F0E0FF0446C0B985
:100450000E4B9D4217D001339D4241F2883512BFA9
:10046000044600250124002002F06AFF0CB100F0D0
:1004700075F800F06DFD284600F012F900F06EF8F6
:10048000F9E70025EFE70546EDE700BF010007B0FB
:1004900008B500F0D9FBA0F120035842584108BD2F
:1004A00007B541F21203022101A8ADF8043000F0B3
:1004B000E9FB03B05DF804FB38B5302383F3118802
:1004C000174803680BB102F0DFFA0023154A4FF416
:1004D0007A71134802F0CEFA002383F31188124C8C
:1004E000236813B12368013B2360636813B1636819
:1004F000013B63600D4D2B7833B963687BB90220F3
:1005000000F090FC322363602B78032B07D16368E3
:100510002BB9022000F086FC4FF47A73636038BD7B
:1005200070220020B90400089023002088220020B7
:10053000084B187003280CD8DFE800F00805020803
:10054000022000F067BC022000F05ABC024B0022DF
:100550005A6070478822002090230020F8B5494B4C
:10056000494A1C461968013100F08A8004339342DD
:10057000F8D16268454B9A4240F28280444B9B68B6
:1005800003F1006303F500339A4279D2002000F0B2
:10059000A9FB0220FFF7CCFF3E4B00219A6C996427
:1005A0001A6F19671A6FDA6CD9645A6F59675A6FE4
:1005B0001A6D19659A6F99679B6F374BD3F8802036
:1005C00042F00062C3F88020D3F8802022F000625D
:1005D000C3F88020D3F88020D3F8802042F0007246
:1005E000C3F88020D3F8802022F00072C3F8802066
:1005F000D3F8803072B64FF0E023C3F8084DD4E949
:100600000004BFF34F8FBFF36F8F244AC2F88410EA
:10061000BFF34F8F536923F480335361BFF34F8F80
:10062000D2F8803043F6E076C3F3C905C3F34E3306
:100630005B0103EA060C29464CEA81770139C2F8CE
:100640007472F9D2203B13F1200FF2D1BFF34F8F18
:10065000BFF36F8FBFF34F8FBFF36F8F536923F4D7
:10066000003353610023C2F85032BFF34F8FBFF302
:100670006F8F302383F31188854680F308882047E5
:10068000F8BD00BF0000020820000208FFFF0108BB
:1006900000220020004502580044025800ED00E00E
:1006A0002DE9F04F93B0B44B2022FF2100900AA80F
:1006B0009D6800F0F7FBB14A1378A3B90121B04857
:1006C00011700360302383F3118803680BB102F0CB
:1006D000DBF90023AB4A4FF47A71A94802F0CAF95A
:1006E000002383F31188009B13B1A74B009A1A6073
:1006F000A64A1378032B03D000231370A24A536039
:100700004FF0000A009CD3465646D146012000F027
:1007100081FB24B19C4B1B68002B00F0268200203B
:1007200000F092FA0390039B002BF2DB012000F013
:1007300067FB039B213B1F2BE8D801A252F823F053
:10074000C1070008E90700087D0800080D07000838
:100750000D0700080D0700080F090008DF0A000850
:10076000F90900085B0A0008830A0008A90A0008C2
:100770000D070008BB0A00080D0700082D0B000834
:10078000610800080D070008710B0008CD0700087C
:10079000610800080D0700085B0A00080D07000843
:1007A0000D0700080D0700080D0700080D070008D9
:1007B0000D0700080D0700080D0700087D08000858
:1007C0000220FFF765FE002840F0F981009B02211E
:1007D00005A8BAF1000F08BF1C4641F21233ADF86C
:1007E000143000F04FFA91E74FF47A7000F02CFAD1
:1007F000071EEBDB0220FFF74BFE0028E6D0013F8F
:10080000052F00F2DE81DFE807F0030A0D10133632
:100810000523042105A8059300F034FA17E004210C
:100820005548F9E704215A48F6E704215948F3E707
:100830004FF01C08404608F1040800F055FA042166
:10084000059005A800F01EFAB8F12C0FF2D1012096
:100850004FF0000900FA07F747EA0B0B5FFA8BFB32
:1008600000F06CFB26B10BF00B030B2B08BF002430
:10087000FFF716FE4AE704214748CDE7002EA5D032
:100880000BF00B030B2BA1D10220FFF701FE074653
:1008900000289BD00120002600F024FA0220FFF758
:1008A00047FE1FFA86F8404600F02CFA0446B0B125
:1008B000039940460136A1F140025142514100F0F6
:1008C00031FA0028EDD1BA46044641F21213022152
:1008D00005A83E46ADF8143000F0D4F916E72546D9
:1008E0000120FFF725FE244B9B68AB4207D9284621
:1008F00000F0FAF9013040F067810435F3E7002594
:10090000224BBA463E461D701F4B5D60A8E7002E85
:100910003FF45CAF0BF00B030B2B7FF457AF0220BF
:10092000FFF706FE322000F08FF9B0F10008FFF665
:100930004DAF18F003077FF449AF0F4A08EB0503EA
:10094000926893423FF642AFB8F5807F3FF73EAFE3
:10095000124BB845019323DD4FF47A7000F074F91F
:100960000390039A002AFFF631AF039A0137019BE7
:1009700003F8012BEDE700BF002200208C230020AC
:1009800070220020B9040008902300208822002053
:1009900004220020082200200C2200208C220020AB
:1009A000C820FFF775FD074600283FF40FAF1F2D45
:1009B00011D8C5F120020AAB25F003008449424555
:1009C000184428BF4246019200F046FA019AFF21DE
:1009D0007F4800F067FA4FEAA803C8F387027C4912
:1009E0002846019300F066FA064600283FF46DAFF2
:1009F000019B05EB830533E70220FFF749FD002843
:100A00003FF4E4AE00F0ACF900283FF4DFAE00277D
:100A1000B846704B9B68BB4218D91F2F11D80A9B50
:100A200001330ED027F0030312AA134453F8203CDD
:100A300005934046042205A9043700F049FB80468F
:100A4000E7E7384600F050F90590F2E7CDF814805A
:100A5000042105A800F016F902E70023642104A888
:100A6000049300F005F900287FF4B0AE0220FFF7F0
:100A70000FFD00283FF4AAAE049800F067F9059036
:100A8000E6E70023642104A8049300F0F1F80028AD
:100A90007FF49CAE0220FFF7FBFC00283FF496AEEB
:100AA000049800F055F9EAE70220FFF7F1FC00286E
:100AB0003FF48CAE00F064F9E1E70220FFF7E8FCB8
:100AC00000283FF483AE05A9142000F05FF9074623
:100AD0000421049004A800F0D5F83946B9E7322083
:100AE00000F0B2F8071EFFF671AEBB077FF46EAEE2
:100AF000384A07EB0903926893423FF667AE02203B
:100B0000FFF7C6FC00283FF461AE27F003074F440F
:100B1000B9453FF4A5AE484609F1040900F0E4F8F0
:100B20000421059005A800F0ADF8F1E74FF47A70C4
:100B3000FFF7AEFC00283FF449AE00F011F90028A1
:100B400044D00A9B01330BD008220AA9002000F0F0
:100B5000B1F900283AD02022FF210AA800F0A2F91A
:100B6000FFF79EFC1C4801F0B1FE13B0BDE8F08F0A
:100B7000002E3FF42BAE0BF00B030B2B7FF426AEB5
:100B80000023642105A8059300F072F807460028A9
:100B90007FF41CAE0220FFF77BFC804600283FF468
:100BA00015AEFFF77DFC41F2883001F08FFE05980D
:100BB00000F00CFA46463C4600F0C0F9A6E50646B1
:100BC0004EE64FF0000901E6BA467EE637467CE67F
:100BD0008C22002000220020A08601002DE9F84F81
:100BE0004FF47A7306460D46002402FB03F7DFF844
:100BF0005080DFF8509098F900305FFA84FA5A1C60
:100C000001D0A34210D159F824002A463146036886
:100C1000D3F820B03B46D847854205D1074B012089
:100C200083F800A0BDE8F88F0134042CE3D14FF421
:100C3000FA7001F04BFE0020F4E700BFDC23002037
:100C40001022002014220020002307B502460121B3
:100C50000DF107008DF80730FFF7C0FF20B19DF8B8
:100C6000070003B05DF804FB4FF0FF30F9E7000028
:100C70000A46042108B5FFF7B1FF80F00100C0B2B9
:100C8000404208BD074B0A4630B41978064B53F86A
:100C90002140014623682046DD69044BAC4630BC48
:100CA000604700BFDC23002014220020A086010042
:100CB00070B50A4E00240A4D02F03EF930802868D3
:100CC0003388834208D902F033F92B680444013396
:100CD000B4F5003F2B60F2D370BD00BFDE230020CF
:100CE0009823002002F0F6B900F1006000F5003012
:100CF0000068704700F10060920000F5003002F0DB
:100D000077B90000054B1A68054B1B889B1A834274
:100D100002D9104402F00CB900207047982300203B
:100D2000DE23002038B50446074D29B12868204449
:100D3000BDE8384002F014B92868204402F0FEF8FB
:100D40000028F3D038BD00BF982300200020704752
:100D500000F1FF5000F58F10D0F800087047000038
:100D6000064991F8243033B100230822086A81F83B
:100D70002430FFF7BFBF0120704700BF9C23002035
:100D8000014B1868704700BF0010005C194B013818
:100D90000322084470B51D68174BC5F30B042D0CD6
:100DA0001E88A6420BD15C680A46013C824213466B
:100DB0000FD214F9016F4EB102F8016BF6E7013A58
:100DC00003F10803ECD181420B4602D22C2203F836
:100DD000012B0424094A1688AE4204D1984284BFEC
:100DE000967803F8016B013C02F10402F3D1581A22
:100DF00070BD00BF0010005C24220020AC5A000827
:100E0000022803D1024B4FF480129A61704700BF51
:100E100000100258022802D1014B10229A6170473B
:100E200000100258022804D1024A536983F01003CB
:100E3000536170470010025870B504464FF47A763B
:100E40004CB1412C254628BF412506FB05F0641B0B
:100E500001F03CFDF4E770BD002310B5934203D0D0
:100E6000CC5CC4540133F9E710BD0000013810B563
:100E700010F9013F3BB191F900409C4203D11AB1F6
:100E80000131013AF4E71AB191F90020981A10BD26
:100E90001046FCE703460246D01A12F9011B00294E
:100EA000FAD1704702440346934202D003F8011B73
:100EB000FAE770472DE9F8431F4D14460746884668
:100EC00095F8242052BBDFF870909CB395F824303D
:100ED0002BB92022FF2148462F62FFF7E3FF95F848
:100EE00024004146C0F1080205EB8000A24228BF61
:100EF0002246D6B29200FFF7AFFF95F82430A41B2C
:100F000017441E449044E4B2F6B2082E85F82460DB
:100F1000DBD1FFF725FF0028D7D108E02B6A03EBD0
:100F200082038342CFD0FFF71BFF0028CBD10020E4
:100F3000BDE8F8830120FBE79C230020024B1A78D0
:100F4000024B1A70704700BFDC23002010220020E3
:100F5000F8B5194C194800F0E9FF2146174801F08F
:100F600011F824684FF47A70154ED4F89020154D7E
:100F7000D2F80438114F43F00203C2F80438FFF7E7
:100F80005BFF2046104901F00BF9D4F890200424AF
:100F9000D2F8043823F00203C2F804384FF4E133E6
:100FA000336055F8040BB84202D0314600F01CFF04
:100FB000013CF6D1F8BD00BFA05C0008384A002013
:100FC000C423002014220020A85C00080C4B70B53C
:100FD0000C4D04461E780C4B55F826209A420DD035
:100FE0000A4B002118221846FFF75CFF04600146F7
:100FF00055F82600BDE8704000F0F6BE70BD00BF99
:10100000DC23002014220020384A0020C4230020C2
:10101000F8B571B6002301201A46194600F04EFAC1
:101020000446802002F0F4F8002849D00025254A23
:1010300080274FF4D06C3D26136913F0C06F26D182
:10104000D2F8103113F0C06F21D1236805F100618F
:1010500099602368D86023685F602368C3F800C084
:1010600021680B6843F001030B6021680B6823F0D3
:101070001E030B6021680B68DB07FCD4237B8035E3
:10108000616806FA03F3B5F5001F0B60D4D1204662
:1010900000F04AFAB5F5001F11D000240A4E0B4D9E
:1010A000012002F017F83388A34205D928682044AC
:1010B000013401F055FFF6E7002002F00BF861B6AD
:1010C000F8BD00BF00200052DE230020982300203E
:1010D00030B50A44084D91420DD011F8013B5840FB
:1010E000082340F30004013B2C4013F0FF0384EA83
:1010F0005000F6D1EFE730BD2083B8ED08B5074BBF
:10110000074A196801F03D01996053680BB1906876
:101110009847BDE8084002F0BBB900BF000002409C
:10112000E023002008B5084B1968890901F03D014A
:101130008A019A60054AD3680BB110699847BDE8E7
:10114000084002F0A5B900BF00000240E0230020E3
:1011500008B5084B1968090C01F03D010A049A60B2
:10116000054A53690BB190699847BDE8084002F001
:101170008FB900BF00000240E023002008B5084BF3
:101180001968890D01F03D018A059A60054AD36905
:101190000BB1106A9847BDE8084002F079B900BF6A
:1011A00000000240E023002008B5074B074A5968B9
:1011B00001F03D01D960536A0BB1906A9847BDE8D0
:1011C000084002F065B900BF00000240E0230020A3
:1011D00008B5084B5968890901F03D018A01DA60B8
:1011E000054AD36A0BB1106B9847BDE8084002F07E
:1011F0004FB900BF00000240E023002008B5084BB3
:101200005968090C01F03D010A04DA60054A536B84
:101210000BB1906B9847BDE8084002F039B900BFA8
:1012200000000240E023002008B5084B5968890DF2
:1012300001F03D018A05DA60054AD36B0BB1106CF1
:101240009847BDE8084002F023B900BF0000024003
:10125000E023002008B5074B074A196801F03D015B
:101260009960536C0BB1906C9847BDE8084002F050
:101270000FB900BF00040240E023002008B5084B6E
:101280001968890901F03D018A019A60054AD36C09
:101290000BB1106D9847BDE8084002F0F9B800BFE7
:1012A00000040240E023002008B5084B1968090C2F
:1012B00001F03D010A049A60054A536D0BB1906D2F
:1012C0009847BDE8084002F0E3B800BF00040240C0
:1012D000E023002008B5084B1968890D01F03D0195
:1012E0008A059A60054AD36D0BB1106E9847BDE828
:1012F000084002F0CDB800BF00040240E023002007
:1013000008B5074B074A596801F03D01D960536E93
:101310000BB1906E9847BDE8084002F0B9B800BF25
:1013200000040240E023002008B5084B59688909F1
:1013300001F03D018A01DA60054AD36E0BB1106FEE
:101340009847BDE8084002F0A3B800BF000402407F
:10135000E023002008B5084B5968090C01F03D0155
:101360000A04DA60054A536F0BB1906F9847BDE8E5
:10137000084002F08DB800BF00040240E0230020C6
:1013800008B5084B5968890D01F03D018A05DA60FE
:10139000054AD36F13B1D2F880009847BDE80840E2
:1013A00002F076B800040240E023002000230C493C
:1013B00010B51A460B4C0B6054F82300026001EB89
:1013C000430004334260402BF6D1074A4FF0FF330D
:1013D0009360D360C2F80834C2F80C3410BD00BF6B
:1013E000E0230020BC5A0008000002400F28F8B596
:1013F00010D9102810D0112811D0122808D10F248C
:101400000720DFF8B4E00126DEF80050A04208D93A
:10141000002649E00446F4E70F240020F1E7072402
:10142000FBE706FA00F73D4240D1214C4FEA001C91
:101430003D4304EB00160EEBC000CEF80050C0E9AF
:101440000123FBB24BB11B48836B43F00103836361
:10145000036E43F001030366036E17F47F4F09D058
:101460001448836B43F002038363036E43F002036B
:101470000366036E54F80C00036823F01F03036037
:10148000056815F00105FBD104EB0C033D2493F82E
:101490000CC05F6804FA0CF43C60212405604461D0
:1014A00012B1987B00F0D4FA3046F8BD0130ADE7B8
:1014B000BC5A000800450258E023002010B5302433
:1014C00084F31188FFF792FF002383F3118810BD86
:1014D00010B50446807B00F0D1FA01231049627BED
:1014E00003FA02F20B6823EA0203DAB20B604AB98C
:1014F0000C4A916B21F001019163116E21F0010101
:101500001166126E13F47F4F09D1064B9A6B22F0CD
:1015100002029A631A6E22F002021A661B6E10BD56
:10152000E02300200045025808B5302383F31188DA
:10153000FFF7CEFF002383F3118808BD02684368DC
:101540001143016003B1184770470000024A136855
:1015500043F0C0031360704700100140024A136853
:1015600043F0C0031360704700440040024A136810
:1015700043F0C0031360704700480040024A1368FC
:1015800043F0C00313607047004C0040024A1368E8
:1015900043F0C0031360704700500040024A1368D4
:1015A00043F0C0031360704700140140024A1368FF
:1015B00043F0C0031360704700780040024A13688C
:1015C00043F0C00313607047007C0040044B9A6CEA
:1015D00002439A641A6F104318671B6F704700BF6D
:1015E0000045025837B5654D654C284600F0F0FBC4
:1015F00005F11400009500234FF40072614900F0DA
:10160000ADFA4FF40072604905F1380000955F4B68
:1016100000F026FB5E4BC5E917345E4D284600F00E
:10162000D7FB05F11400009500234FF400725A49CE
:1016300000F094FA4FF40072584905F13800009513
:10164000574B00F00DFB574BC5E91734564D284654
:1016500000F0BEFB05F11400009500234FF400726A
:10166000524900F07BFA4FF40072514905F13800FD
:101670000095504B00F0F4FA4F4BC5E917344F4D2D
:10168000284600F0A5FB05F11400009500234FF457
:1016900000724B4900F062FA4FF40072494905F1BB
:1016A00038000095484B00F0DBFA484BC5E9173489
:1016B000474D284600F08CFB05F1140000950023EF
:1016C0004FF40072434900F049FA4FF40072424966
:1016D00005F138000095414B00F0C2FA404BC5E9D6
:1016E0001734404D284600F073FB05F114000095B7
:1016F00000234FF400723C4900F030FA4FF40072BE
:101700003A4905F138000095394B00F0A9FA394BF8
:10171000C5E91734384D284600F05AFB05F114008E
:10172000009500234FF40072344900F017FA4FF48B
:101730000072334905F138000095324B00F090FA01
:10174000314BC5E91734314D284600F041FB05F116
:10175000140000234FF400722D49009500F0FEF9AB
:101760002C4B4FF400722C4905F13800009500F025
:1017700077FA2A4BC5E9173403B030BD6424002042
:1017800000E1F505C4270020C43700204D150008EE
:1017900000100140D0240020C4290020C4390020BA
:1017A0005D150008004400403C250020C42B0020AB
:1017B000C43B00206D15000800480040A82500200B
:1017C000C42D0020C43D00207D150008004C0040C1
:1017D00014260020C42F0020C43F00208D150008CF
:1017E0000050004080260020C4310020C441002069
:1017F0009D15000800140140EC260020C433002091
:10180000C4430020AD150008007800405827002090
:10181000C4350020BD150008C4450020007C0040F0
:1018200038B53E4D0446037C002918BF0D46012BF8
:1018300019D13B4B984243D13A4B1A6D42F01002FA
:101840001A659A6F42F010029A679B6F364B9C4262
:1018500040D1344B1A6D42F020021A659A6F42F063
:1018600020029A679B6F2A68236EE16D03EB520397
:10187000A566B3FBF2F36A68100442BF23F00700C9
:1018800003F0070343EA4003CB60AB6843F0400337
:101890004B60EB6843F001038B6042F4967343F0B6
:1018A00001030B604FF0FF330B62510505D512F0B9
:1018B00010222FD0B2F1805F2ED084F8643038BD72
:1018C0001A4B98420CD01A4B98420ED14FF48020FC
:1018D000FFF77CFE174B9C420ED14FF0804016E084
:1018E0004FF40030FFF772FEB0E7134B984209D176
:1018F0004FF40020FFF76AFE104B9C42B3D14FF02B
:10190000004004E00E4B9842A0D14FF48010FFF746
:101910005DFEA8E77F23D0E73F23CEE7BC5B00084E
:10192000642400200045025880260020D024002096
:101930003C250020EC260020A82500205827002068
:10194000142600202DE9F047C66D05463768F46976
:10195000210734621AD014F0080118BF4FF48071C7
:10196000E20748BF41F02001A3074FF0300348BF12
:1019700041F04001600748BF41F0800183F31188C6
:10198000281DFFF7DBFD002383F31188E2050AD54C
:10199000302383F311884FF48061281DFFF7CEFDBB
:1019A000002383F311884FF030094FF0000A14F040
:1019B000200838D13B0616D54FF0300905F1380A1A
:1019C000200610D589F31188504600F07DF90028D3
:1019D00036DA0821281DFFF7B1FD27F080033360B8
:1019E000002383F31188790614D5620612D53023BB
:1019F00083F31188D5E913239A4208D12B6C33B1B4
:101A000027F040071021281DFFF798FD37600023BD
:101A100083F31188E30618D5AA6E1369ABB1506938
:101A2000BDE8F047184789F31188736A284695F88E
:101A30006410194000F0E6F98AF31188F469B6E7FA
:101A4000B06288F31188F469BAE7BDE8F087000056
:101A5000090100F16043012203F56143C9B283F833
:101A6000001300F01F039A4043099B0003F16043F9
:101A700003F56143C3F880211A60704700F01F032B
:101A800001229A40430900F160409B0000F561404B
:101A900003F1604303F56143C3F88020C3F880215C
:101AA000002380F800337047F8B515468268044675
:101AB0000B46AA4200D28568A1692669761AB5420A
:101AC0000BD218462A46FFF7C7F9A3692B44A36136
:101AD0002846A3685B1BA360F8BD0CD9AF1B184652
:101AE0003246FFF7B9F93A46E1683044FFF7B4F9F6
:101AF000E3683B44EBE718462A46FFF7ADF9E36895
:101B0000E5E7000083689342F7B50446154600D226
:101B10008568D4E90460361AB5420BD22A46FFF72D
:101B20009BF963692B4463612846A3685B1BA36030
:101B300003B0F0BD0DD93246AF1B0191FFF78CF910
:101B400001993A46E0683144FFF786F9E3683B447F
:101B5000E9E72A46FFF780F9E368E4E710B50A44AD
:101B60000024C361029B8460C16002610362C0E91A
:101B70000000C0E9051110BD08B5D0E90532934257
:101B800001D1826882B98268013282605A1C426146
:101B900019700021D0E904329A4224BFC36843611E
:101BA00000F0C8FE002008BD4FF0FF30FBE700004A
:101BB00070B5302304460E4683F31188A568A5B19D
:101BC000A368A269013BA360531CA3611578226935
:101BD000934224BFE368A361E3690BB120469847B1
:101BE000002383F31188284607E03146204600F0A1
:101BF00091FE0028E2DA85F3118870BD2DE9F74FD8
:101C000004460E4617469846D0F81C904FF0300A0E
:101C10008AF311884FF0000B154665B12A4631460C
:101C20002046FFF741FF034660B94146204600F0D9
:101C300071FE0028F1D0002383F31188781B03B0D4
:101C4000BDE8F08FB9F1000F03D001902046C847DE
:101C5000019B8BF31188ED1A1E448AF31188DCE78F
:101C6000C160C361009B82600362C0E90511114439
:101C7000C0E9000001617047F8B504460D461646FC
:101C8000302383F31188A768A7B1A368013BA36041
:101C900063695A1C62611D70D4E904329A4224BF00
:101CA000E3686361E3690BB120469847002080F345
:101CB000118807E03146204600F02CFE0028E2DAC9
:101CC00087F31188F8BD0000D0E9052310B59A42CA
:101CD00001D182687AB982680021013282605A1C7F
:101CE00082611C7803699A4224BFC368836100F053
:101CF00021FE204610BD4FF0FF30FBE72DE9F74FE6
:101D000004460E4617469846D0F81C904FF0300A0D
:101D10008AF311884FF0000B154665B12A4631460B
:101D20002046FFF7EFFE034660B94146204600F02B
:101D3000F1FD0028F1D0002383F31188781B03B054
:101D4000BDE8F08FB9F1000F03D001902046C847DD
:101D5000019B8BF31188ED1A1E448AF31188DCE78E
:101D6000026843681143016003B1184770470000DF
:101D70001430FFF743BF00004FF0FF331430FFF77C
:101D80003DBF00003830FFF7B9BF00004FF0FF3310
:101D90003830FFF7B3BF00001430FFF709BF000071
:101DA0004FF0FF311430FFF703BF00003830FFF76A
:101DB00063BF00004FF0FF323830FFF75DBF000017
:101DC000012914BF6FF0130000207047FFF70ABC11
:101DD000044B036000234360C0E902330123037412
:101DE000704700BFD45B000810B53023044683F36E
:101DF0001188FFF715FD02230020237480F311885A
:101E000010BD000038B5C36904460D461BB9042156
:101E10000844FFF7A5FF294604F11400FFF7ACFEC4
:101E2000002806DA201D4FF40061BDE83840FFF7B6
:101E300097BF38BD026843681143016003B118477A
:101E40007047000013B5406B00F58054D4F8A438F7
:101E50001A681178042914D1017C022911D1197949
:101E6000012312898B4013420BD101A94C3002F09F
:101E7000F5F9D4F8A4480246019B2179206800F0C6
:101E8000DFF902B010BD0000143002F077B9000095
:101E90004FF0FF33143002F071B900004C3002F003
:101EA00049BA00004FF0FF334C3002F043BA000053
:101EB000143002F045B900004FF0FF31143002F049
:101EC0003FB900004C3002F015BA00004FF0FF326D
:101ED0004C3002F00FBA00000020704710B500F53A
:101EE0008054D4F8A4381A681178042917D1017CD9
:101EF000022914D15979012352898B4013420ED102
:101F0000143002F0D7F8024648B1D4F8A4484FF490
:101F1000407361792068BDE8104000F07FB910BDC2
:101F2000406BFFF7DBBF0000704700007FB5124B2E
:101F300001250426044603600023057400F1840291
:101F400043602946C0E902330C4B029014300193E0
:101F50004FF44073009602F089F8094B04F694425E
:101F6000294604F14C000294CDE900634FF440731C
:101F700002F050F904B070BDFC5B0008211F00089E
:101F8000451E00080A68302383F311880B790B3350
:101F900042F823004B79133342F823008B7913B1B5
:101FA0000B3342F8230000F58053C3F8A418022332
:101FB0000374002080F311887047000038B5037F58
:101FC000044613B190F85430ABB90125201D02210D
:101FD000FFF730FF04F114006FF00101257700F0E6
:101FE000B5FC04F14C0084F854506FF00101BDE8D9
:101FF000384000F0ABBC38BD10B5012104460430B8
:10200000FFF718FF0023237784F8543010BD000039
:1020100038B504460025143002F040F804F14C00B5
:10202000257702F00FF9201D84F854500121FFF7A5
:1020300001FF2046BDE83840FFF750BF90F88030E0
:1020400003F06003202B06D190F881200023212A81
:1020500003D81F2A06D800207047222AFBD1C0E9E6
:102060001D3303E0034A426707228267C3670120EA
:10207000704700BF3C22002037B500F58055D5F8E9
:10208000A4381A68117804291AD1017C022917D1C1
:102090001979012312898B40134211D100F14C04AC
:1020A000204602F08FF958B101A9204602F0D6F877
:1020B000D5F8A4480246019B2179206800F0C0F8B9
:1020C00003B030BD01F10B03F0B550F8236085B0CB
:1020D00004460D46FEB1302383F3118804EB8507D7
:1020E000301D0821FFF7A6FEFB6806F14C005B6976
:1020F0001B681BB1019002F0BFF8019803A902F020
:10210000ADF8024648B1039B2946204600F098F8F6
:10211000002383F3118805B0F0BDFB685A6912688B
:10212000002AF5D01B8A013B1340F1D104F1800253
:10213000EAE70000133138B550F82140ECB1302304
:1021400083F3118804F58053D3F8A42813685279D7
:1021500003EB8203DB689B695D6845B1042160186D
:10216000FFF768FE294604F1140001F0ADFF204698
:10217000FFF7B4FE002383F3118838BD70470000D9
:1021800001F080BA01234022002110B5044600F876
:10219000303BFEF787FE0023C4E9013310BD000089
:1021A00010B53023044683F31188242241600021B6
:1021B0000C30FEF777FE204601F086FA022300205D
:1021C000237080F3118810BD70B500EB81030546C4
:1021D00050690E461446DA6018B110220021FEF74D
:1021E00061FEA06918B110220021FEF75BFE3146A6
:1021F0002846BDE8704001F067BB000083682022DC
:10220000002103F0011310B5044683601030FEF77F
:1022100049FE2046BDE8104001F0E2BBF0B40125C4
:1022200000EB810447898D40E4683D43A469458102
:1022300023600023A2606360F0BC01F0FFBB0000DC
:10224000F0B4012500EB810407898D40E4683D432B
:102250006469058123600023A2606360F0BC01F023
:1022600075BC000070B502230025044624220370CB
:102270002946C0F888500C3040F8045CFEF712FE86
:10228000204684F8705001F0B3FA63681B6823B1EC
:1022900029462046BDE87040184770BD0378052BDD
:1022A00010B504460AD080F88C30052303704368CB
:1022B0001B680BB1042198470023A36010BD0000E8
:1022C0000178052906D190F88C20436802701B68BC
:1022D00003B118477047000070B590F8703004469D
:1022E00013B1002380F8703004F18002204601F021
:1022F0009BFB63689B68B3B994F8803013F060056A
:1023000035D00021204601F08DFE0021204601F04D
:102310007DFE63681B6813B106212046984706239B
:1023200084F8703070BD204698470028E4D0B4F897
:102330008630A26F9A4288BFA36794F98030A56F58
:10234000002B4FF0300380F20381002D00F0F2806B
:10235000092284F8702083F3118800212046D4E9F3
:102360001D23FFF76DFF002383F31188DAE794F84C
:10237000812003F07F0343EA022340F202329342BA
:1023800000F0C58021D8B3F5807F48D00DD8012B4F
:102390003FD0022B00F09380002BB2D104F18802D1
:1023A00062670222A267E367C1E7B3F5817F00F0AD
:1023B0009B80B3F5407FA4D194F88230012BA0D14B
:1023C000B4F8883043F0020332E0B3F5006F4DD02B
:1023D00017D8B3F5A06F31D0A3F5C063012B90D807
:1023E0006368204694F882205E6894F88310B4F8FD
:1023F0008430B047002884D0436863670368A367CC
:102400001AE0B3F5106F36D040F6024293427FF4E3
:1024100078AF5C4B63670223A3670023C3E794F89C
:102420008230012B7FF46DAFB4F8883023F00203C3
:10243000A4F88830C4E91D55E56778E7B4F8803022
:10244000B3F5A06F0ED194F88230204684F88A301C
:1024500001F02CFA63681B6813B1012120469847EC
:10246000032323700023C4E91D339CE704F18B038D
:1024700063670123C3E72378042B10D1302383F350
:1024800011882046FFF7BAFE85F31188032163689F
:1024900084F88B5021701B680BB12046984794F844
:1024A0008230002BDED084F88B30042323706368E5
:1024B0001B68002BD6D0022120469847D2E794F81B
:1024C000843020461D0603F00F010AD501F09EFA64
:1024D000012804D002287FF414AF2B4B9AE72B4B32
:1024E00098E701F085FAF3E794F88230002B7FF447
:1024F00008AF94F8843013F00F01B3D01A062046C9
:1025000002D501F0A7FDADE701F098FDAAE794F828
:102510008230002B7FF4F5AE94F8843013F00F0175
:10252000A0D01B06204602D501F07CFD9AE701F001
:102530006DFD97E7142284F8702083F311882B46F1
:102540002A4629462046FFF769FE85F31188E9E609
:102550005DB1152284F8702083F311880021204694
:10256000D4E91D23FFF75AFEFDE60B2284F8702004
:1025700083F311882B462A4629462046FFF760FE42
:10258000E3E700BF2C5C0008245C0008285C00081E
:1025900038B590F870300446002B3ED0063BDAB2D6
:1025A0000F2A34D80F2B32D8DFE803F03731310847
:1025B000223231313131313131313737856FB0F835
:1025C00086309D4214D2C3681B8AB5FBF3F203FB2D
:1025D00012556DB9302383F311882B462A462946BC
:1025E000FFF72EFE85F311880A2384F870300EE081
:1025F000142384F87030302383F31188002320469D
:102600001A461946FFF70AFE002383F3118838BDE6
:10261000C36F03B198470023E7E70021204601F08C
:1026200001FD0021204601F0F1FC63681B6813B135
:102630000621204698470623D7E7000010B590F8FA
:1026400070300446142B29D017D8062B05D001D89A
:102650001BB110BD093B022BFBD80021204601F025
:10266000E1FC0021204601F0D1FC63681B6813B136
:10267000062120469847062319E0152BE9D10B23A4
:1026800080F87030302383F3118800231A461946EE
:10269000FFF7D6FD002383F31188DAE7C3689B694F
:1026A0005B68002BD5D1C36F03B19847002384F832
:1026B0007030CEE700238268037503691B68996850
:1026C0009142FBD25A6803604260106058607047C4
:1026D00000238268037503691B6899689142FBD8DF
:1026E0005A680360426010605860704708B5084639
:1026F000302383F311880A7D0023052A06D8DFE8FA
:1027000002F00B050503120E826913604FF0FF33D0
:102710008361FFF7CFFF002383F3118808BD82692F
:10272000936801339360D0E9003213605A60EDE79B
:10273000FFF7C0BF054BD968087518680268536079
:102740001A600122D8600275FDF75CBEC847002000
:102750000C4B30B5DD684B1C87B004460FD02B46C0
:10276000094A684600F086F92046FFF7E3FF009B20
:1027700013B1684600F088F9A86907B030BDFFF7CB
:10278000D9FFF9E7C8470020ED26000838B50C4D01
:1027900004468161EB6881689A68914203D8BDE87C
:1027A0003840FFF787BF1846FFF792FF0123014625
:1027B000EC6020462375BDE83840FDF723BE00BF1E
:1027C000C8470020044B1A68DB6890689B689842F1
:1027D00094BF002001207047C8470020084B10B567
:1027E0001C68D868226853601A600122DC60227578
:1027F000FFF76EFF01462046BDE81040FDF702BE20
:10280000C847002038B50123084C002523706560B7
:1028100001F00EFE01F034FE0549064801F008FF04
:102820000223237085F3118838BD00BF304A002091
:10283000345C0008C847002000F05CB9034A5168C6
:1028400053685B1A9842FBD8704700BF001000E045
:102850008B600223086108468B8270478368A3F16E
:10286000840243F8142C026943F8442C426943F86B
:10287000402C094A43F8242CC268A3F1200043F8F5
:10288000182C022203F80C2C002203F80B2C034A0C
:1028900043F8102C704700BF1D040008C8470020F3
:1028A00008B5FFF7DBFFBDE80840FFF741BF0000B8
:1028B000024BDB6898610F20FFF73CBFC847002040
:1028C000302383F31188FFF7F3BF000008B50146FA
:1028D000302383F311880820FFF73AFF002383F3A6
:1028E000118808BD054BDB6821B1036098610320A6
:1028F000FFF72EBF4FF0FF30704700BFC8470020E2
:1029000003682BB10022026018469961FFF710BFDF
:1029100070470000064BDB6839B1426818605A60A6
:10292000136043600420FFF713BF4FF0FF30704780
:10293000C84700200368984206D01A6802605060B9
:1029400018469961FFF7F4BE7047000038B5044699
:102950000D462068844200D138BD036823605C6066
:102960008561FFF7E5FEF4E7036810B59C68A242B5
:102970000CD85C688A600B604C6021605960996873
:102980008A1A9A604FF0FF33836010BD121B1B68D8
:10299000ECE700000A2938BF0A2170B504460D464D
:1029A0000A26601901F040FD01F02CFD041BA54230
:1029B00003D8751C04462E46F3E70A2E04D90120DD
:1029C000BDE8704001F074BE70BD0000F8B5144B56
:1029D0000D460A2A4FF00A07D96103F110018260FF
:1029E00038BF0A22416019691446016048601861C5
:1029F000A81801F00BFD01F005FD431B0646A3429C
:102A000006D37C1C28192746354601F00DFDF2E758
:102A10000A2F04D90120BDE8F84001F049BEF8BDF5
:102A2000C8470020F8B506460D4601F0EBFC0F4AFA
:102A3000134653F8107F9F4206D12A46014630467E
:102A4000BDE8F840FFF7C2BFD169BB68441A2C1932
:102A500028BF2C46A34202D92946FFF79BFF2246F6
:102A600031460348BDE8F840FFF77EBFC847002065
:102A7000D8470020C0E90323002310B45DF8044BBD
:102A80004361FFF7CFBF000010B5194C236998428E
:102A90000DD08168D0E9003213605A609A680A4408
:102AA0009A60002303604FF0FF33A36110BD0268FA
:102AB000234643F8102F53600022026022699A4295
:102AC00003D1BDE8104001F0A9BC936881680B44B4
:102AD000936001F097FC2269E1699268441AA2426E
:102AE000E4D91144BDE81040091AFFF753BF00BFF5
:102AF000C84700202DE9F047DFF8BC8008F1100737
:102B00002C4ED8F8105001F07DFCD8F81C40AA6873
:102B1000031B9A423ED814444FF00009D5E9003215
:102B2000C8F81C4013605A60C5F80090D8F81030FF
:102B3000B34201D101F072FC89F31188D5E9033168
:102B400028469847302383F311886B69002BD8D02F
:102B500001F058FC6A69A0EB040982464A450DD28F
:102B6000022001F0A5FD0022D8F81030B34208D1B0
:102B700051462846BDE8F047FFF728BF121A224405
:102B8000F2E712EB09092946384638BF4A46FFF7F3
:102B9000EBFEB5E7D8F81030B34208D01444C8F8BB
:102BA0001C00211AA960BDE8F047FFF7F3BEBDE89D
:102BB000F08700BFD8470020C8470020002070479A
:102BC000FEE70000704700004FF0FF307047000044
:102BD00002290CD0032904D00129074818BF00207E
:102BE0007047032A05D8054800EBC2007047044827
:102BF00070470020704700BF045D00084C22002091
:102C0000B85C000870B59AB005460846144601A99C
:102C100000F0C2F801A8FEF73DF9431C0022C6B23D
:102C20005B001046C5E9003423700323023404F826
:102C3000013C01ABD1B202348E4201D81AB070BD52
:102C400013F8011B013204F8010C04F8021CF1E72F
:102C500008B5302383F311880348FFF70DFA0023EA
:102C600083F3118808BD00BF384A002090F88030F7
:102C700003F01F02012A07D190F881200B2A03D10B
:102C80000023C0E91D3315E003F06003202B08D1B9
:102C9000B0F884302BB990F88120212A03D81F2A5C
:102CA00004D8FFF7CBB9222AEBD0FAE7034A4267F0
:102CB00007228267C3670120704700BF43220020BC
:102CC00007B5052917D8DFE801F0191603191920EF
:102CD000302383F31188104A01210190FFF774FA21
:102CE000019802210D4AFFF76FFA0D48FFF790F99E
:102CF000002383F3118803B05DF804FB302383F3D2
:102D000011880748FFF75AF9F2E7302383F3118857
:102D10000348FFF771F9EBE7585C00087C5C00089A
:102D2000384A002038B50C4D0C4C2A460C4904F1A9
:102D30000800FFF767FF05F1CA0204F11000094916
:102D4000FFF760FF05F5CA7204F118000649BDE8F7
:102D50003840FFF757BF00BF106300204C2200200F
:102D6000405C0008445C00084C5C000870B50446F8
:102D700008460D46FEF78EF8C6B2204601340378A9
:102D80000BB9184670BD32462946FEF76FF8002889
:102D9000F3D10120F6E700002DE9F84F05460C4677
:102DA000FEF778F82C49C6B22846FFF7DFFF08B1D6
:102DB0000236F6B229492846FFF7D8FF08B1103687
:102DC000F6B2632E0DD8DFF89080DFF89090244F94
:102DD000DFF894A0DFF894B02E7846B92670BDE8ED
:102DE000F88F29462046BDE8F84F02F041BE252E57
:102DF0002ED1072241462846FEF738F870B9DBF895
:102E000000300735093444F8093CDBF8043044F855
:102E1000053C9BF8083004F8013CDDE708224946F0
:102E20002846FEF723F898B9A21C0E4B19780232F7
:102E30000909C95D02F8041C13F8011B01F00F0118
:102E40005345C95D02F8031CF0D118340835C3E7B7
:102E5000013504F8016BBFE7245D00084C5C0008F5
:102E6000365D000800E8F11F0CE8F11F2C5D00083A
:102E7000BFF34F8F044B1A695107FCD1D3F81021CF
:102E80005207F8D1704700BF0020005208B50D4B23
:102E90001B78ABB9FFF7ECFF0B4BDA68D10704D511
:102EA0000A4A5A6002F188325A60D3F80C21D207DC
:102EB00006D5064AC3F8042102F18832C3F804217A
:102EC00008BD00BF6E650020002000522301674549
:102ED00008B5114B1B78F3B9104B1A69510703D58C
:102EE000DA6842F04002DA60D3F81021520705D5C3
:102EF000D3F80C2142F04002C3F80C21FFF7B8FFD1
:102F0000064BDA6842F00102DA60D3F80C2142F095
:102F10000102C3F80C2108BD6E650020002000529C
:102F20000F289ABF00F58060400400207047000021
:102F30004FF4003070470000102070470F2808B58C
:102F40000BD8FFF7EDFF00F500330268013204D122
:102F500004308342F9D1012008BD0020FCE70000C5
:102F60000F2838B505463FD8FFF782FF1F4CFFF703
:102F70008DFF4FF0FF3307286361C4F814311DD86B
:102F80002361FFF775FF030243F02403E360E36866
:102F900043F08003E36023695A07FCD42846FFF717
:102FA00067FFFFF7BDFF4FF4003100F0D7F9284667
:102FB000FFF78EFFBDE83840FFF7C0BFC4F81031FF
:102FC000FFF756FFA0F108031B0243F02403C4F8E7
:102FD0000C31D4F80C3143F08003C4F80C31D4F830
:102FE00010315B07FBD4D9E7002038BD0020005228
:102FF0002DE9F84F05460C46104645EA0203DE0669
:1030000002D00020BDE8F88F20F01F00DFF8BCB030
:10301000DFF8BCA0FFF73AFF04EB0008444503D1FA
:103020000120FFF755FFEDE720222946204602F058
:103030000FFD10B920352034F0E72B4605F12002B2
:103040001F68791CDDD104339A42F9D105F1784328
:103050001B481C4EB3F5801F1B4B38BF184603F1AD
:10306000F80332BFD946D1461E46FFF701FF07607D
:10307000A5EB040C336804F11C0143F00203336038
:10308000231FD9F8007017F00507FAD153F8042F61
:103090008B424CF80320F4D1BFF34F8FFFF7E8FECB
:1030A0004FF0FF332022214603602846336823F087
:1030B0000203336002F0CCFC0028BBD03846B0E7F6
:1030C000142100520C2000521420005210200052F3
:1030D0001021005210B5084C237828B11BB9FFF716
:1030E000D5FE0123237010BD002BFCD02070BDE85D
:1030F0001040FFF7EDBE00BF6E6500202DE9F04FD8
:103100000D4685B0814658B111F00D0614BF20223E
:10311000082211F00803019304D0431E03426AD031
:10312000002435E0002E37D009F11F0121F01F09DE
:103130004FF00108324F05F00403DFF8D0A005EA94
:10314000080BBBF1000F32D07869C0072FD408F10B
:1031500001080C37B8F1060FF3D19EB9294D494645
:10316000A819019201F0AEF9044600283AD11836A8
:10317000019A782EF3D1494601F0A4F904460028BB
:1031800030D1019A4946204801F09CF9044668BBB9
:10319000204605B0BDE8F08F0029C9D10146284678
:1031A000029201F08FF90446E0B9029AC0E713B128
:1031B00078694107CBD5AC0702D578698007C6D5B9
:1031C000019911B178690107C1D51820494600FB62
:1031D00008A0CDE9022301F075F90446DDE90223D8
:1031E0000028B4D04A460021204601E04A4600218A
:1031F000FDF758FECCE70246002E95D198E700BFB8
:10320000485D0008A06500207065002088650020EA
:103210000121FFF773BF0000F8B5144D01241827F2
:10322000134E40F2FF3200210120FDF73BFE07FB69
:10323000046001342A6955F80C1F01F02FF9062C9F
:10324000F5D137254FF4C0542046FFF7E1FF014682
:1032500028B122460748BDE8F84001F01FB9C4EB89
:10326000C404013D4FEAD404EED1F8BD485D000826
:1032700088650020706500200421FFF73FBF000033
:1032800008B101F091B9704770B5AAB140EA0103E5
:1032900013F01F030FD1094C0144A5686D0706D533
:1032A0002568A84203D366683544A94204D903338C
:1032B0000C34122BF1D10022104670BD485D00087D
:1032C0000244074BD2B210B5904200D110BD441C4D
:1032D00000B253F8200041F8040BE0B2F4E700BF5D
:1032E000504000580E4B30B51C6F240405D41C6FA1
:1032F0001C671C6F44F400441C670A4C024423689A
:10330000D2B243F480732360074B904200D130BDAA
:10331000441C51F8045B00B243F82050E0B2F4E7DB
:1033200000440258004802585040005807B5012296
:1033300001A90020FFF7C4FF019803B05DF804FB6A
:1033400013B50446FFF7F2FFA04205D0012201A900
:1033500000200194FFF7C6FF02B010BD0144BFF387
:103360004F8F064B884204D3BFF34F8FBFF36F8F4D
:103370007047C3F85C022030F4E700BF00ED00E0C6
:103380000144BFF34F8F064B884204D3BFF34F8FE6
:10339000BFF36F8F7047C3F870022030F4E700BFAF
:1033A00000ED00E0114BDA6952021ED59A69D00790
:1033B00004D50F4A9A6002F144329A600B4BDA69E5
:1033C000D107FCD41A6A22F480021A629A6942F088
:1033D00002029A61DA69D207FCD49A6942F00102CA
:1033E0009A61024AD369DB07FCD47047002000527F
:1033F0003B2A1908034B1A681AB9034AD2F8D02499
:103400001A607047186600200040025808B5FFF7A0
:10341000F1FF024B1868C0F3806008BD18660020F9
:10342000EFF30983054968334A6B22F001024A63CE
:1034300083F30988002383F31188704700EF00E0CD
:10344000302080F3118862B60D4B0E4AD96821F402
:10345000E0610904090C0A430B49DA60D3F8FC2047
:1034600042F08072C3F8FC20084AC2F8B01F11680D
:1034700041F0010111602022DA7783F822007047C1
:1034800000ED00E00003FA0555CEACC5001000E0E9
:10349000302310B583F311880E4B5B6813F400637F
:1034A00014D0F1EE103AEFF309844FF08073683CCA
:1034B000E361094BDB6B236684F30988FFF782F92C
:1034C00010B1064BA36110BD054BFBE783F31188D8
:1034D000F9E700BF00ED00E000EF00E02F04000876
:1034E0003204000870B5BFF34F8FBFF36F8F1A4AD5
:1034F0000021C2F85012BFF34F8FBFF36F8F536993
:1035000043F400335361BFF34F8FBFF36F8FC2F8A3
:103510008410BFF34F8FD2F8803043F6E074C3F3CA
:10352000C900C3F34E335B0103EA0406014646EAD1
:1035300081750139C2F86052F9D2203B13F1200F96
:10354000F2D1BFF34F8F536943F480335361BFF31C
:103550004F8FBFF36F8F70BD00ED00E0FEE70000FE
:10356000214B2248224A70B5904237D3214BC11ECD
:10357000DA1C121A22F003028B4238BF002200210B
:10358000FDF790FC1C4A0023C2F88430BFF34F8F34
:10359000D2F8803043F6E074C3F3C900C3F34E336E
:1035A0005B0103EA0406014646EA81750139C2F867
:1035B0006C52F9D2203B13F1200FF2D1BFF34F8FA1
:1035C000BFF36F8FBFF34F8FBFF36F8F0023C2F82E
:1035D0005032BFF34F8FBFF36F8F70BD53F8041B92
:1035E00040F8041BC0E700BF9C5F0008646A00202D
:1035F000646A0020646A002000ED00E0054B996BCE
:1036000021EA000199631A6E22EA00021A661B6E13
:10361000704700BF0045025870B5D0E9244300222E
:103620004FF0FF359E6804EB42135101D3F80009B7
:10363000002805DAD3F8000940F08040C3F80009FB
:10364000D3F8000B002805DAD3F8000B40F08040D7
:10365000C3F8000B013263189642C3F80859C3F847
:10366000085BE0D24FF00113C4F81C3870BD0000B5
:10367000890141F02001016103699B06FCD41220FD
:10368000FFF7DCB810B50A4C2046FEF77BFD094B6E
:10369000C4F89030084BC4F89430084C2046FEF72C
:1036A00071FD074BC4F89030064BC4F8943010BD40
:1036B0001C66002000000840B45D0008B8660020C9
:1036C00000000440C05D000870B503780546012B7A
:1036D00058D13F4BD0F89040984254D13D4B0E21E9
:1036E00065209A6B42F000629A631A6E42F00062A3
:1036F0001A661B6E384BD3F8802042F00062C3F884
:103700008020D3F8802022F00062C3F88020D3F814
:103710008030FEF79DF9314BE360314BC4F800383F
:103720000023D5F89060C4F8003EC02323604FF416
:103730000413A3633369002BFCDA01230C203361EB
:10374000FFF77CF83369DB07FCD41220FFF776F82B
:103750003369002BFCDA00262846A660FFF75CFFE1
:103760006B68C4F81068DB68C4F81468C4F81C6897
:1037700063BB1C4BA3614FF0FF336361A36843F04D
:103780000103A36070BD184B9842C9D1114B4FF093
:1037900080609A6B42F000729A631A6E42F0007277
:1037A0001A661B6E0C4BD3F8802042F00072C3F8EF
:1037B0008020D3F8802022F00072C3F88020D3F854
:1037C0008030FFF71BFF0E214D20A2E7074BD1E70A
:1037D0001C66002000450258004402584014004076
:1037E00003002002003C30C0B8660020083C30C016
:1037F000F8B5D0F89040054600214FF0006620460D
:10380000FFF736FFD5F8941000234FF001128F68B0
:103810004FF0FF30C4F83438C4F81C2804EB4312CE
:1038200001339F42C2F80069C2F8006BC2F8080970
:10383000C2F8080BF2D20B68D5F89020C5F8983082
:10384000636210231361166916F01006FBD1122073
:10385000FEF7F4FFD4F8003823F4FE63C4F8003810
:10386000A36943F4402343F01003A3610923C4F880
:103870001038C4F814380B4BEB604FF0C043C4F859
:10388000103B094BC4F8003BC4F81069C4F8003978
:10389000D5F8983003F1100243F48013C5F898204E
:1038A000A362F8BD905D000840800010D0F8902021
:1038B00090F88A10D2F8003823F4FE6343EA01132B
:1038C000C2F80038704700002DE9F84300EB81038F
:1038D000D0F890500C468046DA680FFA81F948011A
:1038E000166806F00306731E022B05EB41134FF01A
:1038F000000194BFB604384EC3F8101B4FF001010D
:1039000004F1100398BF06F1805601FA03F39169A0
:1039100098BF06F5004600293AD0578A04F15801AD
:10392000374349016F50D5F81C180B430021C5F8E7
:103930001C382B180127C3F81019A7405369611EC2
:103940009BB3138A928B9B08012A88BF5343D8F8F4
:103950009820981842EA034301F140022146C8F832
:103960009800284605EB82025360FFF781FE08EBC2
:103970008900C3681B8A43EA845348341E436401A8
:103980002E51D5F81C381F43C5F81C78BDE8F883C4
:1039900005EB4917D7F8001B21F40041C7F8001BBD
:1039A000D5F81C1821EA0303C0E704F13F030B4AD2
:1039B0002846214605EB83035A60FFF759FE05EBC5
:1039C0004910D0F8003923F40043C0F80039D5F885
:1039D0001C3823EA0707D7E7008000100004000224
:1039E000D0F894201268C0F89820FFF715BE0000A8
:1039F0005831D0F8903049015B5813F4004004D09E
:103A000013F4001F0CBF0220012070474831D0F88A
:103A1000903049015B5813F4004004D013F4001FA8
:103A20000CBF02200120704700EB8101CB68196AAE
:103A30000B6813604B6853607047000000EB810314
:103A400030B5DD68AA691368D36019B9402B84BF0B
:103A5000402313606B8A1468D0F890201C4402EB5A
:103A60004110013C09B2B4FBF3F46343033323F088
:103A7000030343EAC44343F0C043C0F8103B2B6840
:103A800003F00303012B0ED1D2F8083802EB4110EA
:103A900013F4807FD0F8003B14BF43F0805343F011
:103AA0000053C0F8003B02EB4112D2F8003B43F058
:103AB0000443C2F8003B30BD2DE9F041D0F89060DE
:103AC00005460C4606EB4113D3F8087B3A07C3F8CA
:103AD000087B08D5D6F814381B0704D500EB810302
:103AE000DB685B689847FA071FD5D6F81438DB0700
:103AF0001BD505EB8403D968CCB98B69488A5A6811
:103B0000B2FBF0F600FB16228AB91868DA68904218
:103B10000DD2121AC3E90024302383F31188214601
:103B20002846FFF78BFF84F31188BDE8F08101235D
:103B300003FA04F26B8923EA02036B81CB68002B42
:103B4000F3D021462846BDE8F041184700EB810339
:103B50004A0170B5DD68D0F890306C692668E6607F
:103B600056BB1A444FF40020C2F810092A6802F02C
:103B70000302012A0AB20ED1D3F8080803EB42145B
:103B800010F4807FD4F8000914BF40F0805040F05A
:103B90000050C4F8000903EB4212D2F8000940F0CB
:103BA0000440C2F800090122D3F8340802FA01F1F6
:103BB0000143C3F8341870BD19B9402E84BF4020AA
:103BC000206020681A442E8A8419013CB4FBF6F464
:103BD00040EAC44040F00050C6E700002DE9F84339
:103BE000D0F8906005460C464F0106EB4113D3F820
:103BF000088918F0010FC3F808891CD0D6F81038CE
:103C0000DB0718D500EB8103D3F80CC0DCF81430C7
:103C1000D3F800E0DA68964530D2A2EB0E024FF0FE
:103C200000091A60C3F80490302383F31188FFF76A
:103C30008DFF89F3118818F0800F1DD0D6F8343825
:103C40000126A640334217D005EB84030134D5F892
:103C50009050D3F80CC0E4B22F44DCF8142005EBEC
:103C60000434D2F800E05168714514D3D5F83438E3
:103C700023EA0606C5F83468BDE8F883012303FA91
:103C800001F2038923EA02030381DCF80830002BE8
:103C9000D1D09847CFE7AEEB0103BCF810008342C8
:103CA00028BF0346D7F8180980B2B3EB800FE3D8DA
:103CB0009068A0F1040959F8048FC4F80080A0EBC3
:103CC00009089844B8F1040FF5D818440B449060E3
:103CD0005360C8E72DE9F84FD0F8905004466E695C
:103CE000AB691E4016F480586E6103D0BDE8F84FF2
:103CF000FEF7B8BA002E12DAD5F8003E9B0705D0C1
:103D0000D5F8003E23F00303C5F8003ED5F804388B
:103D1000204623F00103C5F80438FEF7D1FA370531
:103D200005D52046FFF778FC2046FEF7B7FAB00429
:103D30000CD5D5F8083813F0060FEB6823F4705350
:103D40000CBF43F4105343F4A053EB6031071BD571
:103D50006368DB681BB9AB6923F00803AB612378A8
:103D6000052B0CD1D5F8003E9A0705D0D5F8003EBA
:103D700023F00303C5F8003E2046FEF7A1FA63686E
:103D8000DB680BB120469847F30200F1BA80B70216
:103D900026D5D4F8909000274FF0010A09EB47127E
:103DA000D2F8003B03F44023B3F5802F11D1D2F8B1
:103DB000003B002B0DDA62890AFA07F322EA0303BB
:103DC000638104EB8703DB68DB6813B13946204667
:103DD00098470137D4F89430FFB29B689F42DDD9F1
:103DE000F00619D5D4F89000026AC2F30A1702F05F
:103DF0000F0302F4F012B2F5802F00F0CA80B2F582
:103E0000402F09D104EB8303002200F58050DB68CA
:103E10001B6A974240F0B0803003D5F8185835D56A
:103E2000E90303D500212046FFF746FEAA0303D588
:103E300001212046FFF740FE6B0303D502212046F7
:103E4000FFF73AFE2F0303D503212046FFF734FE88
:103E5000E80203D504212046FFF72EFEA90203D570
:103E600005212046FFF728FE6A0203D506212046D9
:103E7000FFF722FE2B0203D507212046FFF71CFE89
:103E8000EF0103D508212046FFF716FE700340F12D
:103E9000A780E90703D500212046FFF79FFEAA0768
:103EA00003D501212046FFF799FE6B0703D50221B8
:103EB0002046FFF793FE2F0703D503212046FFF787
:103EC0008DFEEE0603D504212046FFF787FEA806E7
:103ED00003D505212046FFF781FE690603D506219B
:103EE0002046FFF77BFE2A0603D507212046FFF771
:103EF00075FEEB0574D520460821BDE8F84FFFF7A5
:103F00006DBED4F890904FF0000B4FF0010AD4F83A
:103F100094305FFA8BF79B689F423FF638AF09EB0E
:103F20004713D3F8002902F44022B2F5802F20D1A4
:103F3000D3F80029002A1CDAD3F8002942F0904275
:103F4000C3F80029D3F80029002AFBDB3946D4F84E
:103F50009000FFF78DFB22890AFA07F322EA030398
:103F6000238104EB8703DB689B6813B13946204645
:103F700098470BF1010BCAE7910701D1D0F80080F7
:103F8000072A02F101029CBF03F8018B4FEA1828AF
:103F90003FE704EB830300F58050DA68D2F818C0DD
:103FA000DCF80820DCE9001CA1EB0C0C00218F429E
:103FB00008D1DB689B699A683A449A605A683A4427
:103FC0005A6029E711F0030F01D1D0F800808C4529
:103FD00001F1010184BF02F8018B4FEA1828E6E7DE
:103FE000BDE8F88F08B50348FFF774FEBDE8084048
:103FF000FFF74EBA1C66002008B50348FFF76AFEBB
:10400000BDE80840FFF744BAB8660020D0F8903009
:1040100003EB4111D1F8003B43F40013C1F8003B1E
:1040200070470000D0F8903003EB4111D1F800390F
:1040300043F40013C1F8003970470000D0F8903005
:1040400003EB4111D1F8003B23F40013C1F8003B0E
:1040500070470000D0F8903003EB4111D1F80039DF
:1040600023F40013C1F800397047000030B5043361
:10407000039C0172002104FB0325C160C0E90653C3
:10408000049B0363059BC0E90000C0E90422C0E96A
:104090000842C0E90A11436330BD00000022416AB2
:1040A000C260C0E90411C0E90A226FF00101FEF705
:1040B0004DBC0000D0E90432934201D1C2680AB974
:1040C000181D704700207047036919600021C268FD
:1040D0000132C260C269134482699342036124BF02
:1040E000436A0361FEF726BC38B504460D46E36813
:1040F0003BB162690020131D1268A3621344E3629E
:1041000007E0237A33B929462046FEF703FC00284E
:10411000EDDA38BD6FF00100FBE70000C368C2694B
:10412000013BC3604369134482699342436124BFE6
:10413000436A436100238362036B03B118477047EE
:1041400070B53023044683F31188866A3EB9FFF7C1
:10415000CBFF054618B186F31188284670BDA36AC7
:10416000E26A13F8015B9342A36202D32046FFF791
:10417000D5FF002383F31188EFE700002DE9F84F06
:1041800004460E46174698464FF0300989F31188C9
:104190000025AA46D4F828B0BBF1000F09D141464A
:1041A0002046FFF7A1FF20B18BF311882846BDE818
:1041B000F88FD4E90A12A7EB050B521A934528BFD2
:1041C0009346BBF1400F1BD9334601F1400251F831
:1041D000040B914243F8040BF9D1A36A40364035F1
:1041E0004033A362D4E90A239A4202D32046FFF760
:1041F00095FF8AF31188BD42D8D289F31188C9E7A7
:1042000030465A46FCF728FEA36A5E445D445B4490
:10421000A362E7E710B5029C0433017203FB04219B
:10422000C460C0E906130023C0E90A33039B03639B
:10423000049BC0E90000C0E90422C0E908424363CE
:1042400010BD0000026A6FF00101C260426AC0E95D
:1042500004220022C0E90A22FEF778BBD0E9042339
:104260009A4201D1C26822B9184650F8043B0B604B
:10427000704700231846FAE7C3680021C26901337A
:10428000C3604369134482699342436124BF436A14
:104290004361FEF74FBB000038B504460D46E368A6
:1042A0003BB1236900201A1DA262E2691344E36254
:1042B00007E0237A33B929462046FEF72BFB002876
:1042C000EDDA38BD6FF00100FBE70000036919600B
:1042D000C268013AC260C2691344826993420361B1
:1042E00024BF436A036100238362036B03B1184751
:1042F0007047000070B530230D460446114683F325
:104300001188866A2EB9FFF7C7FF10B186F31188AE
:1043100070BDA36A1D70A36AE26A01339342A3626F
:1043200004D3E16920460439FFF7D0FF002080F371
:104330001188EDE72DE9F84F04460D469046994661
:104340004FF0300A8AF311880026B346A76A4FB9A6
:1043500049462046FFF7A0FF20B187F31188304679
:10436000BDE8F88FD4E90A073A1AA8EB0607974286
:1043700028BF1746402F1BD905F1400355F8042BE1
:104380009D4240F8042BF9D1A36A40364033A36222
:10439000D4E90A239A4204D3E16920460439FFF79D
:1043A00095FF8BF311884645D9D28AF31188CDE762
:1043B00029463A46FCF750FDA36A3D443E443B443F
:1043C000A362E5E7D0E904239A4217D1C3689BB101
:1043D000836A8BB1043B9B1A0ED01360C368013B08
:1043E000C360C3691A4483699A42026124BF436A65
:1043F0000361002383620123184670470023FBE713
:1044000000F05ABA4FF08043586A70474FF080432B
:10441000002258631A610222DA6070474FF080432D
:104420000022DA60704700004FF080435863704705
:10443000024B034A1A60034A5A6070476C670020B7
:10444000686A002000000220074B494210B55C68F2
:10445000201A08401968821A8A4203D3A24201D85E
:104460005A6010BD0020FCE76C67002008B53023BF
:1044700083F31188FFF7E8FF002383F3118808BD59
:1044800004480121044B03600023C0E901330C30D0
:1044900000F016B9746700206D440008CB1D083A7F
:1044A00023F00703591A521A012110B4D20800242C
:1044B000C0E9004384600C301C605A605DF8044B16
:1044C00000F0FEB82DE9F84F364ECD1D0F460028FE
:1044D00018BF0646082A4FEAD50538BF082206F15C
:1044E0000C08341D9146404600F006F909F1070119
:1044F000C9F1000E224624686CB9404600F006F966
:104500003368CBB308224946E8009847044698B37D
:1045100040E9026730E004EB010CD4F804A00CEA97
:104520000E0C0AF10100ACF1080304EBC000984244
:10453000E0D9A0EB0C0CB5EBEC0F4FEAEC0BD9D8A3
:104540009C421CD204F10802AB45A3EB02024FEAE5
:10455000E202626009D9691CED43206803EBC102E5
:104560005D44556043F8310022601C465F60404660
:1045700044F8086B00F0CAF82046BDE8F88FAA4559
:10458000216802D111602346EFE7013504EBC50332
:1045900044F8351003F10801401AC0105860136048
:1045A000F1E700BF74670020F8B550F8043C0446FA
:1045B00050F8085CA0F1080607332F1D0C35DB0806
:1045C00040F8043C284600F097F83B469F421A68A2
:1045D00001D0B34228D20AB1964225D244F8082C21
:1045E00054F8042C1E60013254F8081C06EBC2007B
:1045F000814206D14868024444F8042C0A6844F811
:10460000082C5868411C03EBC1018E4207D154F8B5
:10461000042C013202445A6054F8082C1A602846CF
:10462000BDE8F84000F072B81346CFE7FEE700009F
:1046300070B51B4B0025044686B058600E46856257
:104640000163FEF7FDFE04F11003A560E562C4E915
:1046500004334FF0FF33C4E90044C4E90635FFF7E3
:10466000D1FE2B46024604F134012046C4E908235A
:1046700080230C4A2565FEF7EBF801230A4AE06027
:1046800000920375684672680192B268CDE9022310
:10469000064BCDE90435FEF703F906B070BD00BF47
:1046A000304A0020CC5D0008D15D00082D4600088E
:1046B000024AD36A1843D062704700BFC84700203F
:1046C000C0E90000816070478368013B002B10B592
:1046D00083600CDA074BDC684368A061206063608C
:1046E0001C6044600520FEF725F8A06910BD00207D
:1046F000FCE700BFC847002008B5302383F31188CA
:10470000FFF7E2FF002383F3118808BD08B53023CB
:1047100083F3118883680133002B836007DC03680F
:1047200000211A68026050601846FEF72FF8002337
:1047300083F3118808BD00004B6843608B68836079
:10474000CB68C3600B6943614B6903628B69436249
:104750000B6803607047000008B53C4B40F2FF71E6
:104760003B48D3F888200A43C3F88820D3F8882030
:1047700022F4FF6222F00702C3F88820D3F88830C1
:10478000344B1A6C0A431A649A6E0A439A66324A88
:104790009B6E1146FFF7D0FF00F5806002F11C010F
:1047A000FFF7CAFF00F5806002F13801FFF7C4FF90
:1047B00000F5806002F15401FFF7BEFF00F5806054
:1047C00002F17001FFF7B8FF00F5806002F18C0183
:1047D000FFF7B2FF00F5806002F1A801FFF7ACFF20
:1047E00000F5806002F1C401FFF7A6FF00F58060CC
:1047F00002F1E001FFF7A0FF00F5806002F1FC018B
:10480000FFF79AFF02F58C7100F58060FFF794FFC7
:1048100000F014F9114BD3F8902242F00102C3F8D2
:104820009022D3F8942242F00102C3F89422052288
:10483000C3F898204FF06052C3F89C20084AC3F890
:10484000A020BDE80840FEF7ADBD00BF00440258FF
:104850000000025800450258D85D000800ED00E055
:104860001F00080308B500F037FBFDF7CBFF0D4B29
:10487000DA6B42F04002DA635A6E22F040025A6666
:104880005B6E094B1A6842F008021A601A6842F01F
:1048900004021A60FEF7AEFDFEF7BEFCBDE808405C
:1048A000FEF740BA00450258001802480120704740
:1048B00000207047704700000F4B9A6C42F00102D5
:1048C0009A641A6F42F001021A670C4A1B6FD36B8D
:1048D00043F00103D3634FF08043C7229A624FF045
:1048E000FF32DA6200229A615A63DA605A6001226A
:1048F0005A611A60704700BF004502580010005C02
:104900004FF0804208B51169D3680B40D9B29B07BC
:104910006FEA0101116107D5302383F31188FDF798
:104920008BFF002383F3118808BD0000044BDA6B72
:104930000243DA635A6E104358665B6E704700BFDD
:104940000045025808B53C4B4FF0FF31D3F88020AA
:1049500062F00042C3F88020D3F8802002F00042C9
:10496000C3F88020D3F88020D3F88420C3F88410C3
:10497000D3F884200022C3F88420D3F88400D86FB1
:1049800040F0FF4040F4FF0040F4DF4040F07F0083
:10499000D867D86F20F0FF4020F4FF0020F4DF40FC
:1049A00020F07F00D867D86FD3F888006FEA4050B6
:1049B0006FEA5050C3F88800D3F88800C0F30A00AB
:1049C000C3F88800D3F88800D3F89000C3F890109B
:1049D000D3F89000C3F89020D3F89000D3F8940057
:1049E000C3F89410D3F89400C3F89420D3F894003B
:1049F000D3F89800C3F89810D3F89800C3F898201B
:104A0000D3F89800D3F88C00C3F88C10D3F88C003E
:104A1000C3F88C20D3F88C00D3F89C00C3F89C100A
:104A2000D3F89C10C3F89C20D3F89C30FCF7BEFC54
:104A3000BDE8084000F004BA0044025808B501225D
:104A4000504BC3F80821504B5A6D42F002025A6590
:104A5000DA6F42F00202DA670222DB6F4B4BDA6058
:104A60005A689104FCD54A4A1A6001229A60494A60
:104A7000DA6000221A614FF440429A61434B9A690E
:104A80009204FCD51A6842F480721A60424B1A6F85
:104A900012F4407F04D04FF480321A6700221A6764
:104AA0001A6842F001021A603B4B1A685007FCD5A5
:104AB00000221A611A6912F03802FBD10121196033
:104AC0004FF0804159605A67344ADA62344A1A61B9
:104AD0001A6842F480321A602F4B1A689103FCD591
:104AE0001A6842F480521A601A689204FCD52D4A62
:104AF0002D499A6200225A63196301F57C01DA6339
:104B000001F5E77199635A64284A1A64284ADA62FF
:104B10001A6842F0A8521A601F4B1A6802F0285215
:104B2000B2F1285FF9D148229A614FF48862DA61C4
:104B300040221A621F4ADA641F4A1A651F4A5A65E0
:104B40001F4A9A6532231F4A1360136803F00F034C
:104B5000022BFAD1104A136943F00303136113695E
:104B600003F03803182BFAD14FF00050FFF7DEFEA8
:104B70004FF08040FFF7DAFE4FF00040BDE80840FC
:104B8000FFF7D4BE0080005100450258004802588B
:104B900000C000F002000001004402580000FF01C4
:104BA000008890083220600063020901470E050862
:104BB000DD0BBF0120000020000001100910E00003
:104BC00000010110002000524FF0B04208B5D2F8A9
:104BD000883003F00103C2F8883023B1044A136817
:104BE0000BB150689847BDE80840FEF751BC00BFC4
:104BF0008C6700204FF0B04208B5D2F8883003F03F
:104C00000203C2F8883023B1044A93680BB1D0681C
:104C10009847BDE80840FEF73BBC00BF8C6700200A
:104C20004FF0B04208B5D2F8883003F00403C2F860
:104C3000883023B1044A13690BB150699847BDE825
:104C40000840FEF725BC00BF8C6700204FF0B04243
:104C500008B5D2F8883003F00803C2F8883023B1D1
:104C6000044A93690BB1D0699847BDE80840FEF744
:104C70000FBC00BF8C6700204FF0B04208B5D2F8DF
:104C8000883003F01003C2F8883023B1044A136A55
:104C90000BB1506A9847BDE80840FEF7F9BB00BF6A
:104CA0008C6700204FF0B04310B5D3F8884004F46F
:104CB0007872C3F88820A30604D5124A936A0BB110
:104CC000D06A9847600604D50E4A136B0BB1506B3F
:104CD0009847210604D50B4A936B0BB1D06B9847CC
:104CE000E20504D5074A136C0BB1506C9847A30535
:104CF00004D5044A936C0BB1D06C9847BDE81040C2
:104D0000FEF7C6BB8C6700204FF0B04310B5D3F858
:104D1000884004F47C42C3F88820620504D5164A12
:104D2000136D0BB1506D9847230504D5124A936D4E
:104D30000BB1D06D9847E00404D50F4A136E0BB148
:104D4000506E9847A10404D50B4A936E0BB1D06EF8
:104D50009847620404D5084A136F0BB1506F984707
:104D6000230404D5044A936F0BB1D06F9847BDE874
:104D70001040FEF78DBB00BF8C67002008B50348CC
:104D800000F070FDBDE80840FEF782BB0C68002013
:104D900008B50348FCF7D6FDBDE80840FEF778BB30
:104DA0006424002008B50348FCF7CCFDBDE80840AA
:104DB000FEF76EBBD024002008B50348FCF7C2FD07
:104DC000BDE80840FEF764BB3C25002008B5034859
:104DD000FCF7B8FDBDE80840FEF75ABBA825002047
:104DE00008B50348FCF7AEFDBDE80840FEF750BB30
:104DF0001426002008B50348FCF7A4FDBDE80840D0
:104E0000FEF746BB8026002008B50348FCF79AFD54
:104E1000BDE80840FEF73CBBEC26002008B503487F
:104E2000FCF790FDBDE80840FEF732BB5827002094
:104E300008B5FFF765FDBDE80840FEF729BB000097
:104E4000062108B50846FCF703FE06210720FCF7FB
:104E5000FFFD06210820FCF7FBFD06210920FCF7D9
:104E6000F7FD06210A20FCF7F3FD06211720FCF7C9
:104E7000EFFD06212820FCF7EBFD09217A20FCF745
:104E8000E7FD09217C20FCF7E3FD07211C20FCF74E
:104E9000DFFD0C212520FCF7DBFD0C212620FCF793
:104EA000D7FD0C212720FCF7D3FD0C213420FCF783
:104EB000CFFD0C213520FCF7CBFD0C214720FCF762
:104EC000C7FD0C215220FCF7C3FD0C215320BDE887
:104ED0000840FCF7BDBD000008B5FFF733FD00F04A
:104EE00015FAFCF773FF00F003FAFDF749F9FDF737
:104EF0001BF8FFF7DFFCBDE80840FFF781BA0000B0
:104F00000379052B05BF836A002001204B6004BF95
:104F10004FF400730B60704770B55D1E866A0446DF
:104F20000D44B54205D9436B43F080034363012030
:104F300070BD0625057100F047FC05232371F7E7D6
:104F400070B55D1E866A04460D44B54205D9436BB3
:104F500043F080034363012070BD0725057100F015
:104F600059FC05232371F7E738B505790446052D6B
:104F700005D10823037100F073FC257138BD0120B1
:104F8000FCE700000323F0B5037185B0044600F090
:104F90000DFA00222046114600F052FA4FF4D57265
:104FA00003AB0821204600F06DFA0246B8B9012390
:104FB0002363039BC3F30323012B09D103AB3721E5
:104FC000204600F05FFA18B9A44B039A1340ABB126
:104FD0002046012500F01CFA0223237137E103ABC0
:104FE00000223721204600F04DFA28B99B4A039B46
:104FF0001A40002A00F0A78002232363236B03F0EA
:105000000F03022B40F0A9806425954E42F21070E8
:10501000FDF75CFC03AB32460121204600F01CFA90
:105020000028D5D1039B002B80F293805A0003D532
:10503000236B43F010032363002204F108030221D1
:10504000204600F07DFA02460028C1D104F1380361
:105050000321204600F016FA0028B9D104F1180502
:10506000A26B092120462B4600F06AFA0028AFD136
:1050700002ABA26B0721204600F004FA0646002886
:10508000A6D1236B03F00F03022B40F08F807E220A
:105090007F21284600F0F4FB012840F28780E76B6F
:1050A00042F21070FDF712FC08234FF400723946EB
:1050B0002046009600F060FA002889D1384600F0BA
:1050C0002DFC236BA06203F00F03022B72D103AB04
:1050D000644A0621204600F0D5F9002871D15F49C5
:1050E000039B1940B1FA81F14909204600F070F99B
:1050F00002AB4FF400721021204600F0C3F90546C0
:1051000000287FF465AF554E029B33427FF460AFB9
:10511000236B13F00E0F03F00F0273D0022A7FF4FB
:1051200057AFE36A1978012900F09480022900F052
:105130009380002900F089804B4F204600F06EF9E3
:1051400003AB3A4676E011462046226300F078F938
:1051500054E7013D7FF45AAF3AE7444D6426444A90
:105160003E4F012B18BF154603AB002237212046C6
:1051700000F088F900287FF42BAF039B3B427FF4BB
:1051800027AF03AB2A462921204600F065F9002805
:105190007FF41EAF039B002BFFF648AF013E3FF4A8
:1051A00017AF42F21070FDF791FBDDE7284600F0E3
:1051B00089FB86E77E227F212846E66B00F060FBB4
:1051C00008B9002191E70023402231462046009390
:1051D000062300F0D1F90028F3D1B3895BBA9B070D
:1051E000EFD5244B4022314620460093062300F0A1
:1051F000C3F90028E5D1317C01F00F010F3918BF48
:10520000012172E7E36A1978F9B101297FF4E0AE70
:10521000204600F003F903ABA26B3721204600F0D3
:1052200031F900287FF4D4AE039B33427FF4D0AE33
:1052300003AB02220621204600F024F900287FF467
:10524000C7AE039B33427FF4C3AE052323712846C8
:1052500005B0F0BD084F70E7084F6EE708E0FFFDAE
:105260000080FFC00001B9030000B7030080FF50B9
:1052700000001080F1FFFF800001B7030002B703B8
:1052800037B504460C4D01ABA26B0D21204600F052
:10529000F9F878B9019B2B420BD1C3F34323042BBC
:1052A00008D0053B022B04D84FF47A70FDF70EFBB3
:1052B000E9E7012003B030BD08E0FFFD70B5302301
:1052C000054683F3118803790024022B03D184F36C
:1052D0001188204670BD0423037184F311880226CF
:1052E000FFF7CEFF0446284600F092F82E71F0E753
:1052F00000F042B8044B03600123037100234363B1
:10530000C0E90A33704700BF0C5F00080023054A5C
:1053100019460133102BC2E9001102F10802F8D13D
:10532000704700BF8C670020836CC26A8B42506854
:1053300010B506D95A1E4C0002EB4103B3FBF4F33F
:10534000184410BD01F001038A0748BF43F002036F
:105350004A0748BF43F008030A0748BF43F0040365
:10536000CA0648BF43F010038A06426B48BF43F0A9
:10537000200313434363704710B5074C2046FFF7E3
:10538000B9FF064B0022C4E91023054BA364054B6B
:10539000E363054BE36410BD0C6800200024024861
:1053A00000B4C40460680020606A002010B5446C3A
:1053B0000649FFF7B9FF6060236842F2107043F0BE
:1053C00003032360BDE81040FDF780BA801A060091
:1053D0000129F8B5466C0B4F09D175680A493D4063
:1053E000FFF7A2FF054345F480557560F8BD74686A
:1053F00006493C40FFF798FF044344F4805474602E
:10540000F4E700BF00ECFFFF80F0FA0240787D0176
:10541000436C00225A601A6070470000426C0129F8
:10542000536823F4404304D0022905D001B95360E6
:10543000704743F48043FAE743F40043F7E7000082
:10544000436C41F480519A60D9605A6B1206FCD5C6
:1054500080229A637047000010B541F48851446C73
:10546000A260E160616B11F04502FBD0A26311F014
:10547000040203D0FFF766FF012010BD61691046EA
:105480001960FAE710B541F48851446CA260E160FC
:10549000616B11F04502FBD0A26311F0050203D04D
:1054A000FFF750FF012010BD616910461960FAE74F
:1054B00073B5134604460E46302282F31188426CBF
:1054C000D26B32B14FF0FF3140300193FDF70AFA51
:1054D000019B606C00220265C263C262456B15F4D9
:1054E000807504D185F31188012002B070BD4FF0A2
:1054F000FF31816382F31188012E06D90C212046E9
:1055000002B0BDE87040FFF7BDBF1046EDE70000F8
:1055100073B5446C0E4600250192616BA16325654D
:10552000E562FFF70FFF012E07D9019B2A460C21E8
:1055300002B0BDE87040FFF7A5BF02B070BD00002B
:1055400010B541F49851446CA260E160616B11F0B8
:105550004502FBD0A26311F03F0203D0FFF7F2FE39
:10556000012010BD216A10461960E1695960A169E6
:1055700099606169D960F4E72DE9F7430446019128
:10558000006D01A91746984600F0D8F90646002894
:105590004AD0626C2046DDF804905568C5F30905D1
:1055A00001356B00A56CB5FBF3F54FF47A73B5FBD1
:1055B000F3F55D435562FFF763FE50BB636C4FF03C
:1055C000FF3201254146C3F8589020461D659A6375
:1055D0004FF49572DA6342F207029F62DA62E36C7B
:1055E0000A9AFFF74FFFA0B9E26C104B11680B400D
:1055F0007BB929462046FFF75BFF054648B92E4692
:105600003A460199206D00F0D1F9304603B0BDE86B
:10561000F0833A460199206D00F0C8F9E26C01214F
:105620002046FFF775FFF0E70126EEE708E0FFFDF3
:105630002DE9F7431F46436C01924FF47A725D687F
:1056400004468846C5F3090501356E00856CB5FB37
:10565000F6F5B5FBF2F555435D62FFF711FE20B19B
:105660000125284603B0BDE8F0837E0201A9206D24
:10567000324600F063F905460028F1D0636C019AC8
:10568000D4F84C909A6501221A654FF0FF329A6364
:105690004FF49572DA639E62236BDB064B4658BF6C
:1056A0004FEA4828012F42461BD912212046FFF716
:1056B000E9FEC0B9D9F80020104B13409BB9636CC8
:1056C00042F2930239462046DA62E26CFFF7F0FEBE
:1056D000804640B932460199206D454600F066F992
:1056E000BFE71121E2E732460199206D00F05EF933
:1056F000E26C39462046FFF70BFFB2E708E0FFFDFA
:105700002DE9F3411F46436C01924FF47A725D68B4
:1057100004468846C5F3090501356E00856CB5FB66
:10572000F6F5B5FBF2F555435D62FFF7A9FD20B133
:105730000125284602B0BDE8F0817E0201A9206D56
:10574000324600F041F905460028F1D0636C019A19
:105750009A6501221A654FF0FF329A634FF48D72F9
:10576000DA639E62236BE66CDB06334658BF4FEA72
:105770004828012F424619D919212046FFF782FEF9
:10578000B0B932680F4B134093B9636C42F2910287
:1057900039462046DA62E26CFFF78AFE064638B9DF
:1057A00001993546206D00F04BF9C2E71821E4E776
:1057B0000199206D00F044F9E26C39462046FFF76C
:1057C000A7FEB6E708E0FFFD12F0030F2DE9F04158
:1057D00007460C4615461E4617D00E44B44202D169
:1057E0000020BDE8F0810123FA6B21463846FFF71F
:1057F0001FFF0028F5D128464FF40072F96B05F51C
:1058000000750134FBF728FBE8E7BDE8F041FFF73E
:105810000FBF000012F0030F2DE9F04107460C46C0
:1058200015461E4617D00E44B44202D10020BDE8F2
:10583000F08129464FF40072F86B05F50075FBF70F
:105840000BFB0123FA6B21463846FFF759FF00286E
:10585000EDD10134E8E7BDE8F041FFF751BF0000AA
:1058600000207047302310B583F311880024436C67
:1058700040302146DC63FDF743F884F3118810BD06
:1058800001F01F03F0B502F01F0456095A1C012352
:10589000B6EB511F50F8265003FA02F34FEA5117A6
:1058A00003F1FF333DBF50F82720C4F1200013401F
:1058B00003EA05003BBF03FA00F225FA04F0E040DA
:1058C0001043F0BD70B57E227F210546FFF7D8FF5B
:1058D00018B1012819D0002070BD3E224921284668
:1058E000FFF7CEFF2F22044631212846FFF7C8FFDD
:1058F000064601345022023653212846B440FFF7B1
:10590000BFFF093804FA00F0E6E7302245212846B7
:10591000FFF7B6FF01308002DEE7000090F8D630D6
:1059200090F8D7201B0403EB026390F8D42090F882
:10593000D500134403EB002070470000F8B50F4674
:105940001546044648B905F11F010126386821F0C3
:105950001F01FDF703FD3046F8BD427B294638683C
:10596000FDF792FC06460028EDD13B686360A36812
:10597000AB4210D213B12068FDF782FC637B28464E
:105980002BB1FDF779FC206020B9A060E3E7FDF7BB
:105990003FFCF8E7A560206805F11F01012621F012
:1059A0001F013860FDF7DAFC2673D4E710B5044612
:1059B00040B10068884205D1606808B1FBF74CFA35
:1059C0000023237310BD0000F8B50F4614460546AA
:1059D00048B904F11F010126386821F01F01FDF7C5
:1059E000CFFC3046F8BD427B21463868FDF74CFCC1
:1059F00006460028EDD1AB68A34210D213B1286847
:105A0000FDF73EFC6B7B20462BB1FDF735FC286093
:105A100020B9A860E5E7FDF7FBFBF8E7AC60396863
:105A200019B122462868FBF717FA286804F11F010C
:105A3000012621F01F013860FDF7A2FC2E73D0E78C
:105A400020B103688B4204BF00230373704700003A
:105A500010B501390244904201D1002005E00378DD
:105A600011F8014FA34201D0181B10BD0130F2E71D
:105A7000034611F8012B03F8012B002AF9D17047D6
:105A800053544D333248373F3F3F0053544D333228
:105A9000483733782F3732780053544D33324837F4
:105AA00034332F3735332F373530000001105A008B
:105AB0000310590001205800032056001000024036
:105AC000080002400008024000000B0028000240CD
:105AD000080002400408024006010C004000024099
